{
  "contractName": "Marketplace",
  "abi": [
    {
      "inputs": [
        {
          "internalType": "contract Token",
          "name": "_token",
          "type": "address"
        }
      ],
      "stateMutability": "nonpayable",
      "type": "constructor"
    },
    {
      "anonymous": false,
      "inputs": [
        {
          "indexed": false,
          "internalType": "uint256",
          "name": "id",
          "type": "uint256"
        },
        {
          "indexed": false,
          "internalType": "uint256",
          "name": "tokenId",
          "type": "uint256"
        },
        {
          "indexed": false,
          "internalType": "address",
          "name": "seller",
          "type": "address"
        },
        {
          "indexed": false,
          "internalType": "uint256",
          "name": "price",
          "type": "uint256"
        }
      ],
      "name": "itemPlacedOnMarket",
      "type": "event"
    },
    {
      "anonymous": false,
      "inputs": [
        {
          "indexed": false,
          "internalType": "uint256",
          "name": "id",
          "type": "uint256"
        },
        {
          "indexed": false,
          "internalType": "uint256",
          "name": "tokenId",
          "type": "uint256"
        },
        {
          "indexed": false,
          "internalType": "address",
          "name": "buyer",
          "type": "address"
        },
        {
          "indexed": false,
          "internalType": "uint256",
          "name": "price",
          "type": "uint256"
        }
      ],
      "name": "itemSold",
      "type": "event"
    },
    {
      "inputs": [
        {
          "internalType": "uint256",
          "name": "",
          "type": "uint256"
        }
      ],
      "name": "marketItems",
      "outputs": [
        {
          "internalType": "uint256",
          "name": "id",
          "type": "uint256"
        },
        {
          "internalType": "uint256",
          "name": "tokenId",
          "type": "uint256"
        },
        {
          "internalType": "address payable",
          "name": "seller",
          "type": "address"
        },
        {
          "internalType": "address payable",
          "name": "owner",
          "type": "address"
        },
        {
          "internalType": "uint256",
          "name": "price",
          "type": "uint256"
        },
        {
          "internalType": "bool",
          "name": "sold",
          "type": "bool"
        }
      ],
      "stateMutability": "view",
      "type": "function"
    },
    {
      "inputs": [
        {
          "internalType": "uint256",
          "name": "tokenId",
          "type": "uint256"
        },
        {
          "internalType": "uint256",
          "name": "price",
          "type": "uint256"
        }
      ],
      "name": "placeItemOnMarket",
      "outputs": [
        {
          "internalType": "uint256",
          "name": "",
          "type": "uint256"
        }
      ],
      "stateMutability": "nonpayable",
      "type": "function"
    },
    {
      "inputs": [
        {
          "internalType": "uint256",
          "name": "id",
          "type": "uint256"
        }
      ],
      "name": "buyItem",
      "outputs": [],
      "stateMutability": "payable",
      "type": "function"
    },
    {
      "inputs": [],
      "name": "getMsgSender",
      "outputs": [
        {
          "internalType": "address",
          "name": "",
          "type": "address"
        }
      ],
      "stateMutability": "nonpayable",
      "type": "function"
    }
  ],
  "bytecode": "0x60806040523480156200001157600080fd5b506040516200111d3803806200111d8339818101604052810190620000379190620000fc565b806000806101000a81548173ffffffffffffffffffffffffffffffffffffffff021916908373ffffffffffffffffffffffffffffffffffffffff160217905550506200012e565b600080fd5b600073ffffffffffffffffffffffffffffffffffffffff82169050919050565b6000620000b08262000083565b9050919050565b6000620000c482620000a3565b9050919050565b620000d681620000b7565b8114620000e257600080fd5b50565b600081519050620000f681620000cb565b92915050565b6000602082840312156200011557620001146200007e565b5b60006200012584828501620000e5565b91505092915050565b610fdf806200013e6000396000f3fe60806040526004361061003f5760003560e01c806351f28e14146100445780637a6ce2e114610086578063d9fd32e4146100b1578063e7fb74c7146100ee575b600080fd5b34801561005057600080fd5b5061006b60048036038101906100669190610acf565b61010a565b60405161007d96959493929190610b67565b60405180910390f35b34801561009257600080fd5b5061009b6101a3565b6040516100a89190610be9565b60405180910390f35b3480156100bd57600080fd5b506100d860048036038101906100d39190610c04565b6101ab565b6040516100e59190610c44565b60405180910390f35b61010860048036038101906101039190610acf565b610561565b005b6001818154811061011a57600080fd5b90600052602060002090600602016000915090508060000154908060010154908060020160009054906101000a900473ffffffffffffffffffffffffffffffffffffffff16908060030160009054906101000a900473ffffffffffffffffffffffffffffffffffffffff16908060040154908060050160009054906101000a900460ff16905086565b600033905090565b60003373ffffffffffffffffffffffffffffffffffffffff1660008054906101000a900473ffffffffffffffffffffffffffffffffffffffff1673ffffffffffffffffffffffffffffffffffffffff16636352211e856040518263ffffffff1660e01b815260040161021d9190610c44565b602060405180830381865afa15801561023a573d6000803e3d6000fd5b505050506040513d601f19601f8201168201806040525081019061025e9190610c8b565b73ffffffffffffffffffffffffffffffffffffffff16146102b4576040517f08c379a00000000000000000000000000000000000000000000000000000000081526004016102ab90610d3b565b60405180910390fd5b3073ffffffffffffffffffffffffffffffffffffffff1660008054906101000a900473ffffffffffffffffffffffffffffffffffffffff1673ffffffffffffffffffffffffffffffffffffffff1663081812fc856040518263ffffffff1660e01b81526004016103249190610c44565b602060405180830381865afa158015610341573d6000803e3d6000fd5b505050506040513d601f19601f820116820180604052508101906103659190610c8b565b73ffffffffffffffffffffffffffffffffffffffff16146103bb576040517f08c379a00000000000000000000000000000000000000000000000000000000081526004016103b290610da7565b60405180910390fd5b6000600180549050905060016040518060c001604052808381526020018681526020013373ffffffffffffffffffffffffffffffffffffffff1681526020013373ffffffffffffffffffffffffffffffffffffffff168152602001858152602001600015158152509080600181540180825580915050600190039060005260206000209060060201600090919091909150600082015181600001556020820151816001015560408201518160020160006101000a81548173ffffffffffffffffffffffffffffffffffffffff021916908373ffffffffffffffffffffffffffffffffffffffff16021790555060608201518160030160006101000a81548173ffffffffffffffffffffffffffffffffffffffff021916908373ffffffffffffffffffffffffffffffffffffffff1602179055506080820151816004015560a08201518160050160006101000a81548160ff02191690831515021790555050507f2c812940d9d1c69f920ba68d4462d81074939cd15394ac538355b830a32536938185338660405161054f9493929190610dc7565b60405180910390a18091505092915050565b806001828154811061057657610575610e0c565b5b906000526020600020906006020160000154146105c8576040517f08c379a00000000000000000000000000000000000000000000000000000000081526004016105bf90610e87565b60405180910390fd5b3073ffffffffffffffffffffffffffffffffffffffff1660008054906101000a900473ffffffffffffffffffffffffffffffffffffffff1673ffffffffffffffffffffffffffffffffffffffff1663081812fc6001848154811061062f5761062e610e0c565b5b9060005260206000209060060201600101546040518263ffffffff1660e01b815260040161065d9190610c44565b602060405180830381865afa15801561067a573d6000803e3d6000fd5b505050506040513d601f19601f8201168201806040525081019061069e9190610c8b565b73ffffffffffffffffffffffffffffffffffffffff16146106f4576040517f08c379a00000000000000000000000000000000000000000000000000000000081526004016106eb90610da7565b60405180910390fd5b6001818154811061070857610707610e0c565b5b906000526020600020906006020160050160009054906101000a900460ff1615610767576040517f08c379a000000000000000000000000000000000000000000000000000000000815260040161075e90610ef3565b60405180910390fd5b6001818154811061077b5761077a610e0c565b5b906000526020600020906006020160020160009054906101000a900473ffffffffffffffffffffffffffffffffffffffff1673ffffffffffffffffffffffffffffffffffffffff163373ffffffffffffffffffffffffffffffffffffffff16036107e457600080fd5b60018082815481106107f9576107f8610e0c565b5b906000526020600020906006020160050160006101000a81548160ff02191690831515021790555060008054906101000a900473ffffffffffffffffffffffffffffffffffffffff1673ffffffffffffffffffffffffffffffffffffffff166342842e0e6001838154811061087157610870610e0c565b5b906000526020600020906006020160020160009054906101000a900473ffffffffffffffffffffffffffffffffffffffff1633600185815481106108b8576108b7610e0c565b5b9060005260206000209060060201600101546040518463ffffffff1660e01b81526004016108e893929190610f72565b600060405180830381600087803b15801561090257600080fd5b505af1158015610916573d6000803e3d6000fd5b505050506001818154811061092e5761092d610e0c565b5b906000526020600020906006020160020160009054906101000a900473ffffffffffffffffffffffffffffffffffffffff1673ffffffffffffffffffffffffffffffffffffffff166108fc349081150290604051600060405180830381858888f193505050501580156109a5573d6000803e3d6000fd5b5033600182815481106109bb576109ba610e0c565b5b906000526020600020906006020160030160006101000a81548173ffffffffffffffffffffffffffffffffffffffff021916908373ffffffffffffffffffffffffffffffffffffffff1602179055507f4496a6564083482f53eb386f5afb1fdc95d9cba78aa38995ad3fa2c83c58e8dc8160018381548110610a4057610a3f610e0c565b5b9060005260206000209060060201600101543360018581548110610a6757610a66610e0c565b5b906000526020600020906006020160040154604051610a899493929190610dc7565b60405180910390a150565b600080fd5b6000819050919050565b610aac81610a99565b8114610ab757600080fd5b50565b600081359050610ac981610aa3565b92915050565b600060208284031215610ae557610ae4610a94565b5b6000610af384828501610aba565b91505092915050565b610b0581610a99565b82525050565b600073ffffffffffffffffffffffffffffffffffffffff82169050919050565b6000610b3682610b0b565b9050919050565b610b4681610b2b565b82525050565b60008115159050919050565b610b6181610b4c565b82525050565b600060c082019050610b7c6000830189610afc565b610b896020830188610afc565b610b966040830187610b3d565b610ba36060830186610b3d565b610bb06080830185610afc565b610bbd60a0830184610b58565b979650505050505050565b6000610bd382610b0b565b9050919050565b610be381610bc8565b82525050565b6000602082019050610bfe6000830184610bda565b92915050565b60008060408385031215610c1b57610c1a610a94565b5b6000610c2985828601610aba565b9250506020610c3a85828601610aba565b9150509250929050565b6000602082019050610c596000830184610afc565b92915050565b610c6881610bc8565b8114610c7357600080fd5b50565b600081519050610c8581610c5f565b92915050565b600060208284031215610ca157610ca0610a94565b5b6000610caf84828501610c76565b91505092915050565b600082825260208201905092915050565b7f53656c6c6572206973206e6f7420746865206f776e6572206f6620746865204960008201527f74656d0000000000000000000000000000000000000000000000000000000000602082015250565b6000610d25602383610cb8565b9150610d3082610cc9565b604082019050919050565b60006020820190508181036000830152610d5481610d18565b9050919050565b7f4d61726b65742061646472657373206973206e6f7420617070726f7665640000600082015250565b6000610d91601e83610cb8565b9150610d9c82610d5b565b602082019050919050565b60006020820190508181036000830152610dc081610d84565b9050919050565b6000608082019050610ddc6000830187610afc565b610de96020830186610afc565b610df66040830185610bda565b610e036060830184610afc565b95945050505050565b7f4e487b7100000000000000000000000000000000000000000000000000000000600052603260045260246000fd5b7f4e6f206974656d20666f756e6400000000000000000000000000000000000000600082015250565b6000610e71600d83610cb8565b9150610e7c82610e3b565b602082019050919050565b60006020820190508181036000830152610ea081610e64565b9050919050565b7f4974656d20697320616c726561647920736f6c64000000000000000000000000600082015250565b6000610edd601483610cb8565b9150610ee882610ea7565b602082019050919050565b60006020820190508181036000830152610f0c81610ed0565b9050919050565b6000819050919050565b6000610f38610f33610f2e84610b0b565b610f13565b610b0b565b9050919050565b6000610f4a82610f1d565b9050919050565b6000610f5c82610f3f565b9050919050565b610f6c81610f51565b82525050565b6000606082019050610f876000830186610f63565b610f946020830185610bda565b610fa16040830184610afc565b94935050505056fea2646970667358221220840357ad1c89fb24d48c76398e98541b72e1103bf50f66f355a79aa170f5e98764736f6c634300080d0033",
  "immutableReferences": {},
  "source": "// SPDX-License-Identifier: MIT\r\npragma solidity ^0.8.4;\r\n\r\nimport \"./Token.sol\";\r\n\r\ncontract Marketplace{\r\n    Token private token;\r\n\r\n    struct MarketItem{\r\n        uint256 id;\r\n        uint256 tokenId;\r\n        address payable seller;\r\n        address payable owner;\r\n        uint256 price;\r\n        bool sold;\r\n    }\r\n\r\n    MarketItem[] public marketItems;\r\n\r\n    event itemPlacedOnMarket(uint256 id, uint256 tokenId, address seller, uint256 price);\r\n    event itemSold(uint256 id, uint256 tokenId, address buyer, uint256 price);\r\n\r\n    constructor(Token _token){\r\n        token = _token;\r\n    }\r\n\r\n    function placeItemOnMarket(uint256 tokenId, uint256 price) external returns (uint256){\r\n        require(token.ownerOf(tokenId) == msg.sender, \"Seller is not the owner of the Item\");\r\n        require(token.getApproved(tokenId) == address(this), \"Market address is not approved\");\r\n\r\n        uint256 newMarketItemId = marketItems.length;\r\n        marketItems.push(\r\n            MarketItem({\r\n                id: newMarketItemId,\r\n                tokenId: tokenId,\r\n                seller: payable(msg.sender),\r\n                owner: payable(msg.sender),\r\n                price: price,\r\n                sold: false\r\n            })\r\n        );\r\n\r\n        emit itemPlacedOnMarket(newMarketItemId, tokenId, msg.sender, price);\r\n\r\n        return newMarketItemId;\r\n    }\r\n\r\n    function buyItem(uint256 id) payable external{\r\n        require(marketItems[id].id == id, \"No item found\");\r\n        require(token.getApproved(marketItems[id].tokenId) == address(this), \"Market address is not approved\");\r\n        require(!marketItems[id].sold, \"Item is already sold\");\r\n        require(msg.sender != marketItems[id].seller);\r\n        // TODO Check whether buyer has enough funds\r\n        // require(msg.value >= marketItems[id].price, \"Insufficient funds\");\r\n\r\n        marketItems[id].sold = true;\r\n        token.safeTransferFrom(marketItems[id].seller, msg.sender, marketItems[id].tokenId);\r\n        marketItems[id].seller.transfer(msg.value);\r\n        marketItems[id].owner = payable(msg.sender);\r\n\r\n        emit itemSold(id, marketItems[id].tokenId, msg.sender, marketItems[id].price);\r\n    }\r\n\r\n    function getMsgSender() public returns (address){\r\n        return msg.sender;\r\n    }\r\n}",
  "sourcePath": "C:\\dev\\mintybay\\mintybay\\webapp\\src\\contracts\\Marketplace.sol",
  "compiler": {
    "name": "solc",
    "version": "0.8.13+commit.abaa5c0e.Emscripten.clang"
  },
  "schemaVersion": "3.4.7",
  "updatedAt": "2022-05-06T09:07:06.191Z",
  "devdoc": {
    "kind": "dev",
    "methods": {},
    "version": 1
  },
  "userdoc": {
    "kind": "user",
    "methods": {},
    "version": 1
  }
}