{
  "contractName": "Token",
  "abi": [
    {
      "inputs": [],
      "stateMutability": "nonpayable",
      "type": "constructor"
    },
    {
      "anonymous": false,
      "inputs": [
        {
          "indexed": true,
          "internalType": "address",
          "name": "owner",
          "type": "address"
        },
        {
          "indexed": true,
          "internalType": "address",
          "name": "approved",
          "type": "address"
        },
        {
          "indexed": true,
          "internalType": "uint256",
          "name": "tokenId",
          "type": "uint256"
        }
      ],
      "name": "Approval",
      "type": "event"
    },
    {
      "anonymous": false,
      "inputs": [
        {
          "indexed": true,
          "internalType": "address",
          "name": "owner",
          "type": "address"
        },
        {
          "indexed": true,
          "internalType": "address",
          "name": "operator",
          "type": "address"
        },
        {
          "indexed": false,
          "internalType": "bool",
          "name": "approved",
          "type": "bool"
        }
      ],
      "name": "ApprovalForAll",
      "type": "event"
    },
    {
      "anonymous": false,
      "inputs": [
        {
          "indexed": true,
          "internalType": "address",
          "name": "from",
          "type": "address"
        },
        {
          "indexed": true,
          "internalType": "address",
          "name": "to",
          "type": "address"
        },
        {
          "indexed": true,
          "internalType": "uint256",
          "name": "tokenId",
          "type": "uint256"
        }
      ],
      "name": "Transfer",
      "type": "event"
    },
    {
      "inputs": [
        {
          "internalType": "uint256",
          "name": "",
          "type": "uint256"
        }
      ],
      "name": "Items",
      "outputs": [
        {
          "internalType": "uint256",
          "name": "id",
          "type": "uint256"
        },
        {
          "internalType": "address",
          "name": "creator",
          "type": "address"
        },
        {
          "internalType": "string",
          "name": "name",
          "type": "string"
        },
        {
          "internalType": "string",
          "name": "symbol",
          "type": "string"
        },
        {
          "internalType": "string",
          "name": "uri",
          "type": "string"
        }
      ],
      "stateMutability": "view",
      "type": "function"
    },
    {
      "inputs": [
        {
          "internalType": "address",
          "name": "to",
          "type": "address"
        },
        {
          "internalType": "uint256",
          "name": "tokenId",
          "type": "uint256"
        }
      ],
      "name": "approve",
      "outputs": [],
      "stateMutability": "nonpayable",
      "type": "function"
    },
    {
      "inputs": [
        {
          "internalType": "address",
          "name": "owner",
          "type": "address"
        }
      ],
      "name": "balanceOf",
      "outputs": [
        {
          "internalType": "uint256",
          "name": "",
          "type": "uint256"
        }
      ],
      "stateMutability": "view",
      "type": "function"
    },
    {
      "inputs": [
        {
          "internalType": "uint256",
          "name": "tokenId",
          "type": "uint256"
        }
      ],
      "name": "getApproved",
      "outputs": [
        {
          "internalType": "address",
          "name": "",
          "type": "address"
        }
      ],
      "stateMutability": "view",
      "type": "function"
    },
    {
      "inputs": [
        {
          "internalType": "address",
          "name": "owner",
          "type": "address"
        },
        {
          "internalType": "address",
          "name": "operator",
          "type": "address"
        }
      ],
      "name": "isApprovedForAll",
      "outputs": [
        {
          "internalType": "bool",
          "name": "",
          "type": "bool"
        }
      ],
      "stateMutability": "view",
      "type": "function"
    },
    {
      "inputs": [],
      "name": "name",
      "outputs": [
        {
          "internalType": "string",
          "name": "",
          "type": "string"
        }
      ],
      "stateMutability": "view",
      "type": "function"
    },
    {
      "inputs": [
        {
          "internalType": "uint256",
          "name": "tokenId",
          "type": "uint256"
        }
      ],
      "name": "ownerOf",
      "outputs": [
        {
          "internalType": "address",
          "name": "",
          "type": "address"
        }
      ],
      "stateMutability": "view",
      "type": "function"
    },
    {
      "inputs": [
        {
          "internalType": "address",
          "name": "from",
          "type": "address"
        },
        {
          "internalType": "address",
          "name": "to",
          "type": "address"
        },
        {
          "internalType": "uint256",
          "name": "tokenId",
          "type": "uint256"
        }
      ],
      "name": "safeTransferFrom",
      "outputs": [],
      "stateMutability": "nonpayable",
      "type": "function"
    },
    {
      "inputs": [
        {
          "internalType": "address",
          "name": "from",
          "type": "address"
        },
        {
          "internalType": "address",
          "name": "to",
          "type": "address"
        },
        {
          "internalType": "uint256",
          "name": "tokenId",
          "type": "uint256"
        },
        {
          "internalType": "bytes",
          "name": "_data",
          "type": "bytes"
        }
      ],
      "name": "safeTransferFrom",
      "outputs": [],
      "stateMutability": "nonpayable",
      "type": "function"
    },
    {
      "inputs": [
        {
          "internalType": "address",
          "name": "operator",
          "type": "address"
        },
        {
          "internalType": "bool",
          "name": "approved",
          "type": "bool"
        }
      ],
      "name": "setApprovalForAll",
      "outputs": [],
      "stateMutability": "nonpayable",
      "type": "function"
    },
    {
      "inputs": [
        {
          "internalType": "bytes4",
          "name": "interfaceId",
          "type": "bytes4"
        }
      ],
      "name": "supportsInterface",
      "outputs": [
        {
          "internalType": "bool",
          "name": "",
          "type": "bool"
        }
      ],
      "stateMutability": "view",
      "type": "function"
    },
    {
      "inputs": [],
      "name": "symbol",
      "outputs": [
        {
          "internalType": "string",
          "name": "",
          "type": "string"
        }
      ],
      "stateMutability": "view",
      "type": "function"
    },
    {
      "inputs": [
        {
          "internalType": "uint256",
          "name": "index",
          "type": "uint256"
        }
      ],
      "name": "tokenByIndex",
      "outputs": [
        {
          "internalType": "uint256",
          "name": "",
          "type": "uint256"
        }
      ],
      "stateMutability": "view",
      "type": "function"
    },
    {
      "inputs": [
        {
          "internalType": "address",
          "name": "owner",
          "type": "address"
        },
        {
          "internalType": "uint256",
          "name": "index",
          "type": "uint256"
        }
      ],
      "name": "tokenOfOwnerByIndex",
      "outputs": [
        {
          "internalType": "uint256",
          "name": "",
          "type": "uint256"
        }
      ],
      "stateMutability": "view",
      "type": "function"
    },
    {
      "inputs": [
        {
          "internalType": "uint256",
          "name": "tokenId",
          "type": "uint256"
        }
      ],
      "name": "tokenURI",
      "outputs": [
        {
          "internalType": "string",
          "name": "",
          "type": "string"
        }
      ],
      "stateMutability": "view",
      "type": "function"
    },
    {
      "inputs": [],
      "name": "totalSupply",
      "outputs": [
        {
          "internalType": "uint256",
          "name": "",
          "type": "uint256"
        }
      ],
      "stateMutability": "view",
      "type": "function"
    },
    {
      "inputs": [
        {
          "internalType": "address",
          "name": "from",
          "type": "address"
        },
        {
          "internalType": "address",
          "name": "to",
          "type": "address"
        },
        {
          "internalType": "uint256",
          "name": "tokenId",
          "type": "uint256"
        }
      ],
      "name": "transferFrom",
      "outputs": [],
      "stateMutability": "nonpayable",
      "type": "function"
    },
    {
      "inputs": [
        {
          "internalType": "string",
          "name": "_tokenUri",
          "type": "string"
        }
      ],
      "name": "mint",
      "outputs": [
        {
          "internalType": "uint256",
          "name": "",
          "type": "uint256"
        }
      ],
      "stateMutability": "nonpayable",
      "type": "function"
    },
    {
      "inputs": [
        {
          "internalType": "address",
          "name": "marketplaceAddress",
          "type": "address"
        }
      ],
      "name": "setMarketplaceAddress",
      "outputs": [],
      "stateMutability": "nonpayable",
      "type": "function"
    }
  ],
  "bytecode": "0x60806040523480156200001157600080fd5b506040518060400160405280600e81526020017f6d696e747962617920546f6b656e0000000000000000000000000000000000008152506040518060400160405280600381526020017f4d42540000000000000000000000000000000000000000000000000000000000815250816000908051906020019062000096929190620000b8565b508060019080519060200190620000af929190620000b8565b505050620001cc565b828054620000c69062000197565b90600052602060002090601f016020900481019282620000ea576000855562000136565b82601f106200010557805160ff191683800117855562000136565b8280016001018555821562000136579182015b828111156200013557825182559160200191906001019062000118565b5b50905062000145919062000149565b5090565b5b80821115620001645760008160009055506001016200014a565b5090565b7f4e487b7100000000000000000000000000000000000000000000000000000000600052602260045260246000fd5b60006002820490506001821680620001b057607f821691505b602082108103620001c657620001c562000168565b5b50919050565b61350580620001dc6000396000f3fe608060405234801561001057600080fd5b50600436106101215760003560e01c80634f6ccce7116100ad578063b47cc55611610071578063b47cc55614610344578063b88d4fde14610360578063c87b56dd1461037c578063d85d3d27146103ac578063e985e9c5146103dc57610121565b80634f6ccce71461027a5780636352211e146102aa57806370a08231146102da57806395d89b411461030a578063a22cb4651461032857610121565b806317b47cc4116100f457806317b47cc4146101c057806318160ddd146101f457806323b872dd146102125780632f745c591461022e57806342842e0e1461025e57610121565b806301ffc9a71461012657806306fdde0314610156578063081812fc14610174578063095ea7b3146101a4575b600080fd5b610140600480360381019061013b91906121e5565b61040c565b60405161014d919061222d565b60405180910390f35b61015e610486565b60405161016b91906122e1565b60405180910390f35b61018e60048036038101906101899190612339565b610518565b60405161019b91906123a7565b60405180910390f35b6101be60048036038101906101b991906123ee565b61059d565b005b6101da60048036038101906101d59190612339565b6106b4565b6040516101eb95949392919061243d565b60405180910390f35b6101fc6108a2565b60405161020991906124a5565b60405180910390f35b61022c600480360381019061022791906124c0565b6108af565b005b610248600480360381019061024391906123ee565b61090f565b60405161025591906124a5565b60405180910390f35b610278600480360381019061027391906124c0565b6109b4565b005b610294600480360381019061028f9190612339565b6109d4565b6040516102a191906124a5565b60405180910390f35b6102c460048036038101906102bf9190612339565b610a45565b6040516102d191906123a7565b60405180910390f35b6102f460048036038101906102ef9190612513565b610af6565b60405161030191906124a5565b60405180910390f35b610312610bad565b60405161031f91906122e1565b60405180910390f35b610342600480360381019061033d919061256c565b610c3f565b005b61035e60048036038101906103599190612513565b610c55565b005b61037a600480360381019061037591906126e1565b610c99565b005b61039660048036038101906103919190612339565b610cfb565b6040516103a391906122e1565b60405180910390f35b6103c660048036038101906103c19190612805565b610da2565b6040516103d391906124a5565b60405180910390f35b6103f660048036038101906103f1919061284e565b610f04565b604051610403919061222d565b60405180910390f35b60007f780e9d63000000000000000000000000000000000000000000000000000000007bffffffffffffffffffffffffffffffffffffffffffffffffffffffff1916827bffffffffffffffffffffffffffffffffffffffffffffffffffffffff1916148061047f575061047e82610f98565b5b9050919050565b606060008054610495906128bd565b80601f01602080910402602001604051908101604052809291908181526020018280546104c1906128bd565b801561050e5780601f106104e35761010080835404028352916020019161050e565b820191906000526020600020905b8154815290600101906020018083116104f157829003601f168201915b5050505050905090565b60006105238261107a565b610562576040517f08c379a000000000000000000000000000000000000000000000000000000000815260040161055990612960565b60405180910390fd5b6004600083815260200190815260200160002060009054906101000a900473ffffffffffffffffffffffffffffffffffffffff169050919050565b60006105a882610a45565b90508073ffffffffffffffffffffffffffffffffffffffff168373ffffffffffffffffffffffffffffffffffffffff1603610618576040517f08c379a000000000000000000000000000000000000000000000000000000000815260040161060f906129f2565b60405180910390fd5b8073ffffffffffffffffffffffffffffffffffffffff166106376110e6565b73ffffffffffffffffffffffffffffffffffffffff1614806106665750610665816106606110e6565b610f04565b5b6106a5576040517f08c379a000000000000000000000000000000000000000000000000000000000815260040161069c90612a84565b60405180910390fd5b6106af83836110ee565b505050565b600c6020528060005260406000206000915090508060000154908060010160009054906101000a900473ffffffffffffffffffffffffffffffffffffffff1690806002018054610703906128bd565b80601f016020809104026020016040519081016040528092919081815260200182805461072f906128bd565b801561077c5780601f106107515761010080835404028352916020019161077c565b820191906000526020600020905b81548152906001019060200180831161075f57829003601f168201915b505050505090806003018054610791906128bd565b80601f01602080910402602001604051908101604052809291908181526020018280546107bd906128bd565b801561080a5780601f106107df5761010080835404028352916020019161080a565b820191906000526020600020905b8154815290600101906020018083116107ed57829003601f168201915b50505050509080600401805461081f906128bd565b80601f016020809104026020016040519081016040528092919081815260200182805461084b906128bd565b80156108985780601f1061086d57610100808354040283529160200191610898565b820191906000526020600020905b81548152906001019060200180831161087b57829003601f168201915b5050505050905085565b6000600880549050905090565b6108c06108ba6110e6565b826111a7565b6108ff576040517f08c379a00000000000000000000000000000000000000000000000000000000081526004016108f690612b16565b60405180910390fd5b61090a838383611285565b505050565b600061091a83610af6565b821061095b576040517f08c379a000000000000000000000000000000000000000000000000000000000815260040161095290612ba8565b60405180910390fd5b600660008473ffffffffffffffffffffffffffffffffffffffff1673ffffffffffffffffffffffffffffffffffffffff168152602001908152602001600020600083815260200190815260200160002054905092915050565b6109cf83838360405180602001604052806000815250610c99565b505050565b60006109de6108a2565b8210610a1f576040517f08c379a0000000000000000000000000000000000000000000000000000000008152600401610a1690612c3a565b60405180910390fd5b60088281548110610a3357610a32612c5a565b5b90600052602060002001549050919050565b6000806002600084815260200190815260200160002060009054906101000a900473ffffffffffffffffffffffffffffffffffffffff169050600073ffffffffffffffffffffffffffffffffffffffff168173ffffffffffffffffffffffffffffffffffffffff1603610aed576040517f08c379a0000000000000000000000000000000000000000000000000000000008152600401610ae490612cfb565b60405180910390fd5b80915050919050565b60008073ffffffffffffffffffffffffffffffffffffffff168273ffffffffffffffffffffffffffffffffffffffff1603610b66576040517f08c379a0000000000000000000000000000000000000000000000000000000008152600401610b5d90612d8d565b60405180910390fd5b600360008373ffffffffffffffffffffffffffffffffffffffff1673ffffffffffffffffffffffffffffffffffffffff168152602001908152602001600020549050919050565b606060018054610bbc906128bd565b80601f0160208091040260200160405190810160405280929190818152602001828054610be8906128bd565b8015610c355780601f10610c0a57610100808354040283529160200191610c35565b820191906000526020600020905b815481529060010190602001808311610c1857829003601f168201915b5050505050905090565b610c51610c4a6110e6565b83836114eb565b5050565b80600b60006101000a81548173ffffffffffffffffffffffffffffffffffffffff021916908373ffffffffffffffffffffffffffffffffffffffff16021790555050565b610caa610ca46110e6565b836111a7565b610ce9576040517f08c379a0000000000000000000000000000000000000000000000000000000008152600401610ce090612b16565b60405180910390fd5b610cf584848484611657565b50505050565b6060610d068261107a565b610d45576040517f08c379a0000000000000000000000000000000000000000000000000000000008152600401610d3c90612e1f565b60405180910390fd5b6000610d4f6116b3565b90506000815111610d6f5760405180602001604052806000815250610d9a565b80610d79846116ca565b604051602001610d8a929190612e7b565b6040516020818303038152906040525b915050919050565b6000610dae600a61182a565b6000610dba600a611840565b9050610dc6338261184e565b610df2600b60009054906101000a900473ffffffffffffffffffffffffffffffffffffffff168261059d565b6040518060a001604052808281526020013373ffffffffffffffffffffffffffffffffffffffff168152602001610e27610486565b8152602001610e34610bad565b815260200184815250600c60008381526020019081526020016000206000820151816000015560208201518160010160006101000a81548173ffffffffffffffffffffffffffffffffffffffff021916908373ffffffffffffffffffffffffffffffffffffffff1602179055506040820151816002019080519060200190610ebd9291906120d6565b506060820151816003019080519060200190610eda9291906120d6565b506080820151816004019080519060200190610ef79291906120d6565b5090505080915050919050565b6000600560008473ffffffffffffffffffffffffffffffffffffffff1673ffffffffffffffffffffffffffffffffffffffff16815260200190815260200160002060008373ffffffffffffffffffffffffffffffffffffffff1673ffffffffffffffffffffffffffffffffffffffff16815260200190815260200160002060009054906101000a900460ff16905092915050565b60007f80ac58cd000000000000000000000000000000000000000000000000000000007bffffffffffffffffffffffffffffffffffffffffffffffffffffffff1916827bffffffffffffffffffffffffffffffffffffffffffffffffffffffff1916148061106357507f5b5e139f000000000000000000000000000000000000000000000000000000007bffffffffffffffffffffffffffffffffffffffffffffffffffffffff1916827bffffffffffffffffffffffffffffffffffffffffffffffffffffffff1916145b8061107357506110728261186c565b5b9050919050565b60008073ffffffffffffffffffffffffffffffffffffffff166002600084815260200190815260200160002060009054906101000a900473ffffffffffffffffffffffffffffffffffffffff1673ffffffffffffffffffffffffffffffffffffffff1614159050919050565b600033905090565b816004600083815260200190815260200160002060006101000a81548173ffffffffffffffffffffffffffffffffffffffff021916908373ffffffffffffffffffffffffffffffffffffffff160217905550808273ffffffffffffffffffffffffffffffffffffffff1661116183610a45565b73ffffffffffffffffffffffffffffffffffffffff167f8c5be1e5ebec7d5bd14f71427d1e84f3dd0314c0f7b2291e5b200ac8c7c3b92560405160405180910390a45050565b60006111b28261107a565b6111f1576040517f08c379a00000000000000000000000000000000000000000000000000000000081526004016111e890612f11565b60405180910390fd5b60006111fc83610a45565b90508073ffffffffffffffffffffffffffffffffffffffff168473ffffffffffffffffffffffffffffffffffffffff16148061123e575061123d8185610f04565b5b8061127c57508373ffffffffffffffffffffffffffffffffffffffff1661126484610518565b73ffffffffffffffffffffffffffffffffffffffff16145b91505092915050565b8273ffffffffffffffffffffffffffffffffffffffff166112a582610a45565b73ffffffffffffffffffffffffffffffffffffffff16146112fb576040517f08c379a00000000000000000000000000000000000000000000000000000000081526004016112f290612fa3565b60405180910390fd5b600073ffffffffffffffffffffffffffffffffffffffff168273ffffffffffffffffffffffffffffffffffffffff160361136a576040517f08c379a000000000000000000000000000000000000000000000000000000000815260040161136190613035565b60405180910390fd5b6113758383836118d6565b6113806000826110ee565b6001600360008573ffffffffffffffffffffffffffffffffffffffff1673ffffffffffffffffffffffffffffffffffffffff16815260200190815260200160002060008282546113d09190613084565b925050819055506001600360008473ffffffffffffffffffffffffffffffffffffffff1673ffffffffffffffffffffffffffffffffffffffff168152602001908152602001600020600082825461142791906130b8565b92505081905550816002600083815260200190815260200160002060006101000a81548173ffffffffffffffffffffffffffffffffffffffff021916908373ffffffffffffffffffffffffffffffffffffffff160217905550808273ffffffffffffffffffffffffffffffffffffffff168473ffffffffffffffffffffffffffffffffffffffff167fddf252ad1be2c89b69c2b068fc378daa952ba7f163c4a11628f55a4df523b3ef60405160405180910390a46114e68383836119e8565b505050565b8173ffffffffffffffffffffffffffffffffffffffff168373ffffffffffffffffffffffffffffffffffffffff1603611559576040517f08c379a00000000000000000000000000000000000000000000000000000000081526004016115509061315a565b60405180910390fd5b80600560008573ffffffffffffffffffffffffffffffffffffffff1673ffffffffffffffffffffffffffffffffffffffff16815260200190815260200160002060008473ffffffffffffffffffffffffffffffffffffffff1673ffffffffffffffffffffffffffffffffffffffff16815260200190815260200160002060006101000a81548160ff0219169083151502179055508173ffffffffffffffffffffffffffffffffffffffff168373ffffffffffffffffffffffffffffffffffffffff167f17307eab39ab6107e8899845ad3d59bd9653f200f220920489ca2b5937696c318360405161164a919061222d565b60405180910390a3505050565b611662848484611285565b61166e848484846119ed565b6116ad576040517f08c379a00000000000000000000000000000000000000000000000000000000081526004016116a4906131ec565b60405180910390fd5b50505050565b606060405180602001604052806000815250905090565b606060008203611711576040518060400160405280600181526020017f30000000000000000000000000000000000000000000000000000000000000008152509050611825565b600082905060005b6000821461174357808061172c9061320c565b915050600a8261173c9190613283565b9150611719565b60008167ffffffffffffffff81111561175f5761175e6125b6565b5b6040519080825280601f01601f1916602001820160405280156117915781602001600182028036833780820191505090505b5090505b6000851461181e576001826117aa9190613084565b9150600a856117b991906132b4565b60306117c591906130b8565b60f81b8183815181106117db576117da612c5a565b5b60200101907effffffffffffffffffffffffffffffffffffffffffffffffffffffffffffff1916908160001a905350600a856118179190613283565b9450611795565b8093505050505b919050565b6001816000016000828254019250508190555050565b600081600001549050919050565b611868828260405180602001604052806000815250611b74565b5050565b60007f01ffc9a7000000000000000000000000000000000000000000000000000000007bffffffffffffffffffffffffffffffffffffffffffffffffffffffff1916827bffffffffffffffffffffffffffffffffffffffffffffffffffffffff1916149050919050565b6118e1838383611bcf565b600073ffffffffffffffffffffffffffffffffffffffff168373ffffffffffffffffffffffffffffffffffffffff16036119235761191e81611bd4565b611962565b8173ffffffffffffffffffffffffffffffffffffffff168373ffffffffffffffffffffffffffffffffffffffff1614611961576119608382611c1d565b5b5b600073ffffffffffffffffffffffffffffffffffffffff168273ffffffffffffffffffffffffffffffffffffffff16036119a45761199f81611d8a565b6119e3565b8273ffffffffffffffffffffffffffffffffffffffff168273ffffffffffffffffffffffffffffffffffffffff16146119e2576119e18282611e5b565b5b5b505050565b505050565b6000611a0e8473ffffffffffffffffffffffffffffffffffffffff16611eda565b15611b67578373ffffffffffffffffffffffffffffffffffffffff1663150b7a02611a376110e6565b8786866040518563ffffffff1660e01b8152600401611a59949392919061333a565b6020604051808303816000875af1925050508015611a9557506040513d601f19601f82011682018060405250810190611a92919061339b565b60015b611b17573d8060008114611ac5576040519150601f19603f3d011682016040523d82523d6000602084013e611aca565b606091505b506000815103611b0f576040517f08c379a0000000000000000000000000000000000000000000000000000000008152600401611b06906131ec565b60405180910390fd5b805181602001fd5b63150b7a0260e01b7bffffffffffffffffffffffffffffffffffffffffffffffffffffffff1916817bffffffffffffffffffffffffffffffffffffffffffffffffffffffff191614915050611b6c565b600190505b949350505050565b611b7e8383611efd565b611b8b60008484846119ed565b611bca576040517f08c379a0000000000000000000000000000000000000000000000000000000008152600401611bc1906131ec565b60405180910390fd5b505050565b505050565b6008805490506009600083815260200190815260200160002081905550600881908060018154018082558091505060019003906000526020600020016000909190919091505550565b60006001611c2a84610af6565b611c349190613084565b9050600060076000848152602001908152602001600020549050818114611d19576000600660008673ffffffffffffffffffffffffffffffffffffffff1673ffffffffffffffffffffffffffffffffffffffff168152602001908152602001600020600084815260200190815260200160002054905080600660008773ffffffffffffffffffffffffffffffffffffffff1673ffffffffffffffffffffffffffffffffffffffff168152602001908152602001600020600084815260200190815260200160002081905550816007600083815260200190815260200160002081905550505b6007600084815260200190815260200160002060009055600660008573ffffffffffffffffffffffffffffffffffffffff1673ffffffffffffffffffffffffffffffffffffffff16815260200190815260200160002060008381526020019081526020016000206000905550505050565b60006001600880549050611d9e9190613084565b9050600060096000848152602001908152602001600020549050600060088381548110611dce57611dcd612c5a565b5b906000526020600020015490508060088381548110611df057611def612c5a565b5b906000526020600020018190555081600960008381526020019081526020016000208190555060096000858152602001908152602001600020600090556008805480611e3f57611e3e6133c8565b5b6001900381819060005260206000200160009055905550505050565b6000611e6683610af6565b905081600660008573ffffffffffffffffffffffffffffffffffffffff1673ffffffffffffffffffffffffffffffffffffffff168152602001908152602001600020600083815260200190815260200160002081905550806007600084815260200190815260200160002081905550505050565b6000808273ffffffffffffffffffffffffffffffffffffffff163b119050919050565b600073ffffffffffffffffffffffffffffffffffffffff168273ffffffffffffffffffffffffffffffffffffffff1603611f6c576040517f08c379a0000000000000000000000000000000000000000000000000000000008152600401611f6390613443565b60405180910390fd5b611f758161107a565b15611fb5576040517f08c379a0000000000000000000000000000000000000000000000000000000008152600401611fac906134af565b60405180910390fd5b611fc1600083836118d6565b6001600360008473ffffffffffffffffffffffffffffffffffffffff1673ffffffffffffffffffffffffffffffffffffffff168152602001908152602001600020600082825461201191906130b8565b92505081905550816002600083815260200190815260200160002060006101000a81548173ffffffffffffffffffffffffffffffffffffffff021916908373ffffffffffffffffffffffffffffffffffffffff160217905550808273ffffffffffffffffffffffffffffffffffffffff16600073ffffffffffffffffffffffffffffffffffffffff167fddf252ad1be2c89b69c2b068fc378daa952ba7f163c4a11628f55a4df523b3ef60405160405180910390a46120d2600083836119e8565b5050565b8280546120e2906128bd565b90600052602060002090601f016020900481019282612104576000855561214b565b82601f1061211d57805160ff191683800117855561214b565b8280016001018555821561214b579182015b8281111561214a57825182559160200191906001019061212f565b5b509050612158919061215c565b5090565b5b8082111561217557600081600090555060010161215d565b5090565b6000604051905090565b600080fd5b600080fd5b60007fffffffff0000000000000000000000000000000000000000000000000000000082169050919050565b6121c28161218d565b81146121cd57600080fd5b50565b6000813590506121df816121b9565b92915050565b6000602082840312156121fb576121fa612183565b5b6000612209848285016121d0565b91505092915050565b60008115159050919050565b61222781612212565b82525050565b6000602082019050612242600083018461221e565b92915050565b600081519050919050565b600082825260208201905092915050565b60005b83811015612282578082015181840152602081019050612267565b83811115612291576000848401525b50505050565b6000601f19601f8301169050919050565b60006122b382612248565b6122bd8185612253565b93506122cd818560208601612264565b6122d681612297565b840191505092915050565b600060208201905081810360008301526122fb81846122a8565b905092915050565b6000819050919050565b61231681612303565b811461232157600080fd5b50565b6000813590506123338161230d565b92915050565b60006020828403121561234f5761234e612183565b5b600061235d84828501612324565b91505092915050565b600073ffffffffffffffffffffffffffffffffffffffff82169050919050565b600061239182612366565b9050919050565b6123a181612386565b82525050565b60006020820190506123bc6000830184612398565b92915050565b6123cb81612386565b81146123d657600080fd5b50565b6000813590506123e8816123c2565b92915050565b6000806040838503121561240557612404612183565b5b6000612413858286016123d9565b925050602061242485828601612324565b9150509250929050565b61243781612303565b82525050565b600060a082019050612452600083018861242e565b61245f6020830187612398565b818103604083015261247181866122a8565b9050818103606083015261248581856122a8565b9050818103608083015261249981846122a8565b90509695505050505050565b60006020820190506124ba600083018461242e565b92915050565b6000806000606084860312156124d9576124d8612183565b5b60006124e7868287016123d9565b93505060206124f8868287016123d9565b925050604061250986828701612324565b9150509250925092565b60006020828403121561252957612528612183565b5b6000612537848285016123d9565b91505092915050565b61254981612212565b811461255457600080fd5b50565b60008135905061256681612540565b92915050565b6000806040838503121561258357612582612183565b5b6000612591858286016123d9565b92505060206125a285828601612557565b9150509250929050565b600080fd5b600080fd5b7f4e487b7100000000000000000000000000000000000000000000000000000000600052604160045260246000fd5b6125ee82612297565b810181811067ffffffffffffffff8211171561260d5761260c6125b6565b5b80604052505050565b6000612620612179565b905061262c82826125e5565b919050565b600067ffffffffffffffff82111561264c5761264b6125b6565b5b61265582612297565b9050602081019050919050565b82818337600083830152505050565b600061268461267f84612631565b612616565b9050828152602081018484840111156126a05761269f6125b1565b5b6126ab848285612662565b509392505050565b600082601f8301126126c8576126c76125ac565b5b81356126d8848260208601612671565b91505092915050565b600080600080608085870312156126fb576126fa612183565b5b6000612709878288016123d9565b945050602061271a878288016123d9565b935050604061272b87828801612324565b925050606085013567ffffffffffffffff81111561274c5761274b612188565b5b612758878288016126b3565b91505092959194509250565b600067ffffffffffffffff82111561277f5761277e6125b6565b5b61278882612297565b9050602081019050919050565b60006127a86127a384612764565b612616565b9050828152602081018484840111156127c4576127c36125b1565b5b6127cf848285612662565b509392505050565b600082601f8301126127ec576127eb6125ac565b5b81356127fc848260208601612795565b91505092915050565b60006020828403121561281b5761281a612183565b5b600082013567ffffffffffffffff81111561283957612838612188565b5b612845848285016127d7565b91505092915050565b6000806040838503121561286557612864612183565b5b6000612873858286016123d9565b9250506020612884858286016123d9565b9150509250929050565b7f4e487b7100000000000000000000000000000000000000000000000000000000600052602260045260246000fd5b600060028204905060018216806128d557607f821691505b6020821081036128e8576128e761288e565b5b50919050565b7f4552433732313a20617070726f76656420717565727920666f72206e6f6e657860008201527f697374656e7420746f6b656e0000000000000000000000000000000000000000602082015250565b600061294a602c83612253565b9150612955826128ee565b604082019050919050565b600060208201905081810360008301526129798161293d565b9050919050565b7f4552433732313a20617070726f76616c20746f2063757272656e74206f776e6560008201527f7200000000000000000000000000000000000000000000000000000000000000602082015250565b60006129dc602183612253565b91506129e782612980565b604082019050919050565b60006020820190508181036000830152612a0b816129cf565b9050919050565b7f4552433732313a20617070726f76652063616c6c6572206973206e6f74206f7760008201527f6e6572206e6f7220617070726f76656420666f7220616c6c0000000000000000602082015250565b6000612a6e603883612253565b9150612a7982612a12565b604082019050919050565b60006020820190508181036000830152612a9d81612a61565b9050919050565b7f4552433732313a207472616e736665722063616c6c6572206973206e6f74206f60008201527f776e6572206e6f7220617070726f766564000000000000000000000000000000602082015250565b6000612b00603183612253565b9150612b0b82612aa4565b604082019050919050565b60006020820190508181036000830152612b2f81612af3565b9050919050565b7f455243373231456e756d657261626c653a206f776e657220696e646578206f7560008201527f74206f6620626f756e6473000000000000000000000000000000000000000000602082015250565b6000612b92602b83612253565b9150612b9d82612b36565b604082019050919050565b60006020820190508181036000830152612bc181612b85565b9050919050565b7f455243373231456e756d657261626c653a20676c6f62616c20696e646578206f60008201527f7574206f6620626f756e64730000000000000000000000000000000000000000602082015250565b6000612c24602c83612253565b9150612c2f82612bc8565b604082019050919050565b60006020820190508181036000830152612c5381612c17565b9050919050565b7f4e487b7100000000000000000000000000000000000000000000000000000000600052603260045260246000fd5b7f4552433732313a206f776e657220717565727920666f72206e6f6e657869737460008201527f656e7420746f6b656e0000000000000000000000000000000000000000000000602082015250565b6000612ce5602983612253565b9150612cf082612c89565b604082019050919050565b60006020820190508181036000830152612d1481612cd8565b9050919050565b7f4552433732313a2062616c616e636520717565727920666f7220746865207a6560008201527f726f206164647265737300000000000000000000000000000000000000000000602082015250565b6000612d77602a83612253565b9150612d8282612d1b565b604082019050919050565b60006020820190508181036000830152612da681612d6a565b9050919050565b7f4552433732314d657461646174613a2055524920717565727920666f72206e6f60008201527f6e6578697374656e7420746f6b656e0000000000000000000000000000000000602082015250565b6000612e09602f83612253565b9150612e1482612dad565b604082019050919050565b60006020820190508181036000830152612e3881612dfc565b9050919050565b600081905092915050565b6000612e5582612248565b612e5f8185612e3f565b9350612e6f818560208601612264565b80840191505092915050565b6000612e878285612e4a565b9150612e938284612e4a565b91508190509392505050565b7f4552433732313a206f70657261746f7220717565727920666f72206e6f6e657860008201527f697374656e7420746f6b656e0000000000000000000000000000000000000000602082015250565b6000612efb602c83612253565b9150612f0682612e9f565b604082019050919050565b60006020820190508181036000830152612f2a81612eee565b9050919050565b7f4552433732313a207472616e736665722066726f6d20696e636f72726563742060008201527f6f776e6572000000000000000000000000000000000000000000000000000000602082015250565b6000612f8d602583612253565b9150612f9882612f31565b604082019050919050565b60006020820190508181036000830152612fbc81612f80565b9050919050565b7f4552433732313a207472616e7366657220746f20746865207a65726f2061646460008201527f7265737300000000000000000000000000000000000000000000000000000000602082015250565b600061301f602483612253565b915061302a82612fc3565b604082019050919050565b6000602082019050818103600083015261304e81613012565b9050919050565b7f4e487b7100000000000000000000000000000000000000000000000000000000600052601160045260246000fd5b600061308f82612303565b915061309a83612303565b9250828210156130ad576130ac613055565b5b828203905092915050565b60006130c382612303565b91506130ce83612303565b9250827fffffffffffffffffffffffffffffffffffffffffffffffffffffffffffffffff0382111561310357613102613055565b5b828201905092915050565b7f4552433732313a20617070726f766520746f2063616c6c657200000000000000600082015250565b6000613144601983612253565b915061314f8261310e565b602082019050919050565b6000602082019050818103600083015261317381613137565b9050919050565b7f4552433732313a207472616e7366657220746f206e6f6e20455243373231526560008201527f63656976657220696d706c656d656e7465720000000000000000000000000000602082015250565b60006131d6603283612253565b91506131e18261317a565b604082019050919050565b60006020820190508181036000830152613205816131c9565b9050919050565b600061321782612303565b91507fffffffffffffffffffffffffffffffffffffffffffffffffffffffffffffffff820361324957613248613055565b5b600182019050919050565b7f4e487b7100000000000000000000000000000000000000000000000000000000600052601260045260246000fd5b600061328e82612303565b915061329983612303565b9250826132a9576132a8613254565b5b828204905092915050565b60006132bf82612303565b91506132ca83612303565b9250826132da576132d9613254565b5b828206905092915050565b600081519050919050565b600082825260208201905092915050565b600061330c826132e5565b61331681856132f0565b9350613326818560208601612264565b61332f81612297565b840191505092915050565b600060808201905061334f6000830187612398565b61335c6020830186612398565b613369604083018561242e565b818103606083015261337b8184613301565b905095945050505050565b600081519050613395816121b9565b92915050565b6000602082840312156133b1576133b0612183565b5b60006133bf84828501613386565b91505092915050565b7f4e487b7100000000000000000000000000000000000000000000000000000000600052603160045260246000fd5b7f4552433732313a206d696e7420746f20746865207a65726f2061646472657373600082015250565b600061342d602083612253565b9150613438826133f7565b602082019050919050565b6000602082019050818103600083015261345c81613420565b9050919050565b7f4552433732313a20746f6b656e20616c7265616479206d696e74656400000000600082015250565b6000613499601c83612253565b91506134a482613463565b602082019050919050565b600060208201905081810360008301526134c88161348c565b905091905056fea2646970667358221220ec55aaba3fd456b739d4c606d9e03a9015d11d919f6a9cfc954c27d79911732a64736f6c634300080d0033",
  "immutableReferences": {},
  "source": "// SPDX-License-Identifier: MIT\r\npragma solidity ^0.8.4;\r\n\r\nimport \"@openzeppelin/contracts/token/ERC721/ERC721.sol\";\r\nimport \"@openzeppelin/contracts/token/ERC721/extensions/ERC721Enumerable.sol\";\r\nimport \"@openzeppelin/contracts/token/ERC721/extensions/ERC721URIStorage.sol\";\r\nimport \"@openzeppelin/contracts/utils/Counters.sol\";\r\n\r\n//import './ERC721Connector.sol';\r\n\r\ncontract Token is ERC721Enumerable{\r\n    using Counters for Counters.Counter;\r\n\r\n    Counters.Counter private _tokenIds;\r\n    address private contractAddress;\r\n\r\n    struct Item {\r\n        uint256 id;\r\n        address creator;\r\n        string name;\r\n        string symbol;\r\n        string uri;\r\n    }\r\n\r\n    mapping(uint256 => Item) public Items;\r\n\r\n    constructor() ERC721(\"mintybay Token\", \"MBT\"){}\r\n\r\n    function mint(string memory _tokenUri) public returns (uint256){\r\n\r\n        _tokenIds.increment();\r\n        uint256 newItemId = _tokenIds.current();\r\n        _safeMint(msg.sender, newItemId);\r\n        approve(contractAddress, newItemId);\r\n        \r\n        Items[newItemId] = Item({\r\n            id: newItemId,\r\n            creator: msg.sender,\r\n            name: name(),\r\n            symbol: symbol(),\r\n            uri: _tokenUri\r\n        });\r\n\r\n        return newItemId;\r\n    }\r\n\r\n    // TODO override tokenURI?\r\n\r\n    function setMarketplaceAddress(address marketplaceAddress) public {\r\n        contractAddress = marketplaceAddress;\r\n    }\r\n\r\n}",
  "sourcePath": "C:\\dev\\mintybay\\mintybay\\webapp\\src\\contracts\\Token.sol",
  "compiler": {
    "name": "solc",
    "version": "0.8.13+commit.abaa5c0e.Emscripten.clang"
  },
  "schemaVersion": "3.4.7",
  "updatedAt": "2022-05-06T09:07:06.204Z",
  "devdoc": {
    "kind": "dev",
    "methods": {
      "approve(address,uint256)": {
        "details": "See {IERC721-approve}."
      },
      "balanceOf(address)": {
        "details": "See {IERC721-balanceOf}."
      },
      "getApproved(uint256)": {
        "details": "See {IERC721-getApproved}."
      },
      "isApprovedForAll(address,address)": {
        "details": "See {IERC721-isApprovedForAll}."
      },
      "name()": {
        "details": "See {IERC721Metadata-name}."
      },
      "ownerOf(uint256)": {
        "details": "See {IERC721-ownerOf}."
      },
      "safeTransferFrom(address,address,uint256)": {
        "details": "See {IERC721-safeTransferFrom}."
      },
      "safeTransferFrom(address,address,uint256,bytes)": {
        "details": "See {IERC721-safeTransferFrom}."
      },
      "setApprovalForAll(address,bool)": {
        "details": "See {IERC721-setApprovalForAll}."
      },
      "supportsInterface(bytes4)": {
        "details": "See {IERC165-supportsInterface}."
      },
      "symbol()": {
        "details": "See {IERC721Metadata-symbol}."
      },
      "tokenByIndex(uint256)": {
        "details": "See {IERC721Enumerable-tokenByIndex}."
      },
      "tokenOfOwnerByIndex(address,uint256)": {
        "details": "See {IERC721Enumerable-tokenOfOwnerByIndex}."
      },
      "tokenURI(uint256)": {
        "details": "See {IERC721Metadata-tokenURI}."
      },
      "totalSupply()": {
        "details": "See {IERC721Enumerable-totalSupply}."
      },
      "transferFrom(address,address,uint256)": {
        "details": "See {IERC721-transferFrom}."
      }
    },
    "version": 1
  },
  "userdoc": {
    "kind": "user",
    "methods": {},
    "version": 1
  }
}