{
  "_format": "hh-sol-artifact-1",
  "contractName": "Marketplace",
  "sourceName": "src/contracts/Marketplace.sol",
  "abi": [
    {
      "inputs": [
        {
          "internalType": "uint256",
          "name": "transactionFeePermillage",
          "type": "uint256"
        },
        {
          "internalType": "address",
          "name": "transactionFeeReceiverAddress",
          "type": "address"
        }
      ],
      "stateMutability": "nonpayable",
      "type": "constructor"
    },
    {
      "anonymous": false,
      "inputs": [
        {
          "indexed": true,
          "internalType": "uint256",
          "name": "id",
          "type": "uint256"
        },
        {
          "indexed": true,
          "internalType": "uint256",
          "name": "tokenId",
          "type": "uint256"
        },
        {
          "indexed": true,
          "internalType": "address",
          "name": "tokenAddress",
          "type": "address"
        },
        {
          "indexed": false,
          "internalType": "address",
          "name": "from",
          "type": "address"
        },
        {
          "indexed": false,
          "internalType": "address",
          "name": "to",
          "type": "address"
        },
        {
          "indexed": false,
          "internalType": "uint256",
          "name": "price",
          "type": "uint256"
        }
      ],
      "name": "OfferAccepted",
      "type": "event"
    },
    {
      "anonymous": false,
      "inputs": [
        {
          "indexed": true,
          "internalType": "uint256",
          "name": "id",
          "type": "uint256"
        },
        {
          "indexed": true,
          "internalType": "uint256",
          "name": "tokenId",
          "type": "uint256"
        },
        {
          "indexed": true,
          "internalType": "address",
          "name": "tokenAddress",
          "type": "address"
        },
        {
          "indexed": false,
          "internalType": "address",
          "name": "offerer",
          "type": "address"
        },
        {
          "indexed": false,
          "internalType": "uint256",
          "name": "price",
          "type": "uint256"
        }
      ],
      "name": "OfferSubmitted",
      "type": "event"
    },
    {
      "anonymous": false,
      "inputs": [
        {
          "indexed": true,
          "internalType": "uint256",
          "name": "id",
          "type": "uint256"
        },
        {
          "indexed": true,
          "internalType": "uint256",
          "name": "tokenId",
          "type": "uint256"
        },
        {
          "indexed": true,
          "internalType": "address",
          "name": "tokenAddress",
          "type": "address"
        },
        {
          "indexed": false,
          "internalType": "address",
          "name": "offerer",
          "type": "address"
        },
        {
          "indexed": false,
          "internalType": "uint256",
          "name": "price",
          "type": "uint256"
        }
      ],
      "name": "OfferWithdrawn",
      "type": "event"
    },
    {
      "anonymous": false,
      "inputs": [
        {
          "indexed": true,
          "internalType": "uint256",
          "name": "id",
          "type": "uint256"
        },
        {
          "indexed": true,
          "internalType": "uint256",
          "name": "tokenId",
          "type": "uint256"
        },
        {
          "indexed": true,
          "internalType": "address",
          "name": "tokenAddress",
          "type": "address"
        },
        {
          "indexed": false,
          "internalType": "address",
          "name": "seller",
          "type": "address"
        },
        {
          "indexed": false,
          "internalType": "address",
          "name": "owner",
          "type": "address"
        },
        {
          "indexed": false,
          "internalType": "address",
          "name": "creator",
          "type": "address"
        },
        {
          "indexed": false,
          "internalType": "uint256",
          "name": "price",
          "type": "uint256"
        },
        {
          "indexed": false,
          "internalType": "uint256",
          "name": "royaltyFeePermillage",
          "type": "uint256"
        }
      ],
      "name": "marketItemCreated",
      "type": "event"
    },
    {
      "anonymous": false,
      "inputs": [
        {
          "indexed": true,
          "internalType": "uint256",
          "name": "id",
          "type": "uint256"
        },
        {
          "indexed": true,
          "internalType": "uint256",
          "name": "tokenId",
          "type": "uint256"
        },
        {
          "indexed": true,
          "internalType": "address",
          "name": "tokenAddress",
          "type": "address"
        },
        {
          "indexed": false,
          "internalType": "address",
          "name": "seller",
          "type": "address"
        },
        {
          "indexed": false,
          "internalType": "address",
          "name": "buyer",
          "type": "address"
        },
        {
          "indexed": false,
          "internalType": "address",
          "name": "creator",
          "type": "address"
        },
        {
          "indexed": false,
          "internalType": "uint256",
          "name": "price",
          "type": "uint256"
        },
        {
          "indexed": false,
          "internalType": "uint256",
          "name": "royaltyFeePermillage",
          "type": "uint256"
        }
      ],
      "name": "marketItemSold",
      "type": "event"
    },
    {
      "inputs": [
        {
          "internalType": "uint256",
          "name": "id",
          "type": "uint256"
        },
        {
          "internalType": "bytes",
          "name": "offerer",
          "type": "bytes"
        }
      ],
      "name": "acceptOffer",
      "outputs": [],
      "stateMutability": "payable",
      "type": "function"
    },
    {
      "inputs": [
        {
          "internalType": "uint256",
          "name": "id",
          "type": "uint256"
        },
        {
          "internalType": "address",
          "name": "offerer",
          "type": "address"
        }
      ],
      "name": "addToOfferers",
      "outputs": [],
      "stateMutability": "nonpayable",
      "type": "function"
    },
    {
      "inputs": [
        {
          "internalType": "uint256",
          "name": "id",
          "type": "uint256"
        }
      ],
      "name": "buyMarketItem",
      "outputs": [],
      "stateMutability": "payable",
      "type": "function"
    },
    {
      "inputs": [
        {
          "internalType": "contract IERC721",
          "name": "token",
          "type": "address"
        },
        {
          "internalType": "uint256",
          "name": "tokenId",
          "type": "uint256"
        },
        {
          "internalType": "uint256",
          "name": "price",
          "type": "uint256"
        },
        {
          "internalType": "uint256",
          "name": "royaltyFeePermillage",
          "type": "uint256"
        }
      ],
      "name": "createMarketItem",
      "outputs": [],
      "stateMutability": "nonpayable",
      "type": "function"
    },
    {
      "inputs": [
        {
          "internalType": "address",
          "name": "accountAddress",
          "type": "address"
        }
      ],
      "name": "getAccountName",
      "outputs": [
        {
          "internalType": "string",
          "name": "",
          "type": "string"
        }
      ],
      "stateMutability": "view",
      "type": "function"
    },
    {
      "inputs": [
        {
          "internalType": "uint256",
          "name": "id",
          "type": "uint256"
        },
        {
          "internalType": "uint256",
          "name": "feePermillage",
          "type": "uint256"
        }
      ],
      "name": "getCalculatedFeeOnFixedPrice",
      "outputs": [
        {
          "internalType": "uint256",
          "name": "",
          "type": "uint256"
        }
      ],
      "stateMutability": "view",
      "type": "function"
    },
    {
      "inputs": [
        {
          "internalType": "uint256",
          "name": "id",
          "type": "uint256"
        },
        {
          "internalType": "uint256",
          "name": "price",
          "type": "uint256"
        },
        {
          "internalType": "uint256",
          "name": "feePermillage",
          "type": "uint256"
        }
      ],
      "name": "getCalculatedFeeOnOfferPrice",
      "outputs": [
        {
          "internalType": "uint256",
          "name": "",
          "type": "uint256"
        }
      ],
      "stateMutability": "view",
      "type": "function"
    },
    {
      "inputs": [
        {
          "internalType": "uint256",
          "name": "id",
          "type": "uint256"
        }
      ],
      "name": "getCalculatedTotalPrice",
      "outputs": [
        {
          "internalType": "uint256",
          "name": "",
          "type": "uint256"
        }
      ],
      "stateMutability": "view",
      "type": "function"
    },
    {
      "inputs": [
        {
          "internalType": "uint256",
          "name": "id",
          "type": "uint256"
        }
      ],
      "name": "getHighestOffer",
      "outputs": [
        {
          "components": [
            {
              "internalType": "address",
              "name": "offerer",
              "type": "address"
            },
            {
              "internalType": "uint256",
              "name": "price",
              "type": "uint256"
            }
          ],
          "internalType": "struct Marketplace.Offer",
          "name": "",
          "type": "tuple"
        }
      ],
      "stateMutability": "view",
      "type": "function"
    },
    {
      "inputs": [
        {
          "internalType": "uint256",
          "name": "id",
          "type": "uint256"
        },
        {
          "internalType": "uint256",
          "name": "index",
          "type": "uint256"
        }
      ],
      "name": "getOfferers",
      "outputs": [
        {
          "internalType": "address",
          "name": "",
          "type": "address"
        }
      ],
      "stateMutability": "view",
      "type": "function"
    },
    {
      "inputs": [
        {
          "internalType": "uint256",
          "name": "id",
          "type": "uint256"
        },
        {
          "internalType": "address",
          "name": "offerer",
          "type": "address"
        }
      ],
      "name": "getOffers",
      "outputs": [
        {
          "components": [
            {
              "internalType": "address",
              "name": "offerer",
              "type": "address"
            },
            {
              "internalType": "uint256",
              "name": "price",
              "type": "uint256"
            }
          ],
          "internalType": "struct Marketplace.Offer",
          "name": "",
          "type": "tuple"
        }
      ],
      "stateMutability": "view",
      "type": "function"
    },
    {
      "inputs": [
        {
          "internalType": "uint256",
          "name": "id",
          "type": "uint256"
        }
      ],
      "name": "makeOffer",
      "outputs": [],
      "stateMutability": "payable",
      "type": "function"
    },
    {
      "inputs": [],
      "name": "marketItemCount",
      "outputs": [
        {
          "internalType": "uint256",
          "name": "",
          "type": "uint256"
        }
      ],
      "stateMutability": "view",
      "type": "function"
    },
    {
      "inputs": [
        {
          "internalType": "uint256",
          "name": "",
          "type": "uint256"
        }
      ],
      "name": "marketItems",
      "outputs": [
        {
          "internalType": "uint256",
          "name": "id",
          "type": "uint256"
        },
        {
          "internalType": "uint256",
          "name": "tokenId",
          "type": "uint256"
        },
        {
          "internalType": "contract IERC721",
          "name": "token",
          "type": "address"
        },
        {
          "internalType": "address payable",
          "name": "seller",
          "type": "address"
        },
        {
          "internalType": "address payable",
          "name": "owner",
          "type": "address"
        },
        {
          "internalType": "address payable",
          "name": "creator",
          "type": "address"
        },
        {
          "internalType": "uint256",
          "name": "price",
          "type": "uint256"
        },
        {
          "internalType": "uint256",
          "name": "royaltyFeePermillage",
          "type": "uint256"
        },
        {
          "internalType": "bool",
          "name": "sold",
          "type": "bool"
        }
      ],
      "stateMutability": "view",
      "type": "function"
    },
    {
      "inputs": [],
      "name": "marketItemsSoldCount",
      "outputs": [
        {
          "internalType": "uint256",
          "name": "",
          "type": "uint256"
        }
      ],
      "stateMutability": "view",
      "type": "function"
    },
    {
      "inputs": [
        {
          "internalType": "address",
          "name": "",
          "type": "address"
        },
        {
          "internalType": "address",
          "name": "from",
          "type": "address"
        },
        {
          "internalType": "uint256",
          "name": "id",
          "type": "uint256"
        },
        {
          "internalType": "bytes",
          "name": "data",
          "type": "bytes"
        }
      ],
      "name": "onERC721Received",
      "outputs": [
        {
          "internalType": "bytes4",
          "name": "",
          "type": "bytes4"
        }
      ],
      "stateMutability": "payable",
      "type": "function"
    },
    {
      "inputs": [
        {
          "internalType": "string",
          "name": "accountName",
          "type": "string"
        }
      ],
      "name": "setAccountName",
      "outputs": [],
      "stateMutability": "nonpayable",
      "type": "function"
    },
    {
      "inputs": [
        {
          "internalType": "uint256",
          "name": "id",
          "type": "uint256"
        }
      ],
      "name": "withdrawOffer",
      "outputs": [],
      "stateMutability": "payable",
      "type": "function"
    }
  ],
  "bytecode": "0x60c06040523480156200001157600080fd5b5060405162003de038038062003de08339818101604052810190620000379190620000b4565b60016000819055508073ffffffffffffffffffffffffffffffffffffffff1660808173ffffffffffffffffffffffffffffffffffffffff1660601b815250508160a08181525050505062000167565b600081519050620000978162000133565b92915050565b600081519050620000ae816200014d565b92915050565b60008060408385031215620000c857600080fd5b6000620000d8858286016200009d565b9250506020620000eb8582860162000086565b9150509250929050565b6000620001028262000109565b9050919050565b600073ffffffffffffffffffffffffffffffffffffffff82169050919050565b6000819050919050565b6200013e81620000f5565b81146200014a57600080fd5b50565b620001588162000129565b81146200016457600080fd5b50565b60805160601c60a051613c34620001ac6000396000818161065b01528181610e470152818161208b0152612776015260008181610a9f015261124a0152613c346000f3fe6080604052600436106101095760003560e01c80638c0a63a7116100955780639a2f6474116100645780639a2f647414610373578063b3f4fe661461038f578063c304ebe4146103cc578063d989c8db14610409578063e5e6cf191461044657610109565b80638c0a63a7146102a05780638f7150d0146102dd57806392212baf146102f9578063963eeae51461033657610109565b8063351901c3116100dc578063351901c3146101cf57806351f28e14146101eb578063599ba234146102305780635c80ca10146102595780638610f0451461028457610109565b806305da644a1461010e57806311d1adeb1461014b578063150b7a02146101765780632e95adad146101a6575b600080fd5b34801561011a57600080fd5b5061013560048036038101906101309190612d7b565b61046f565b6040516101429190613406565b60405180910390f35b34801561015757600080fd5b5061016061053a565b60405161016d9190613421565b60405180910390f35b610190600480360381019061018b9190612c05565b610540565b60405161019d9190613289565b60405180910390f35b3480156101b257600080fd5b506101cd60048036038101906101c89190612d11565b610d69565b005b6101e960048036038101906101e49190612d52565b610dc0565b005b3480156101f757600080fd5b50610212600480360381019061020d9190612d52565b6115a6565b6040516102279998979695949392919061343c565b60405180910390f35b34801561023c57600080fd5b5061025760048036038101906102529190612cae565b611681565b005b34801561026557600080fd5b5061026e611b18565b60405161027b9190613421565b60405180910390f35b61029e60048036038101906102999190612d52565b611b1e565b005b3480156102ac57600080fd5b506102c760048036038101906102c29190612e0b565b611e8e565b6040516102d4919061311c565b60405180910390f35b6102f760048036038101906102f29190612db7565b611f0e565b005b34801561030557600080fd5b50610320600480360381019061031b9190612e47565b612085565b60405161032d9190613421565b60405180910390f35b34801561034257600080fd5b5061035d60048036038101906103589190612d52565b6120fa565b60405161036a9190613406565b60405180910390f35b61038d60048036038101906103889190612d52565b6123c3565b005b34801561039b57600080fd5b506103b660048036038101906103b19190612e0b565b612730565b6040516103c39190613421565b60405180910390f35b3480156103d857600080fd5b506103f360048036038101906103ee9190612d52565b61276e565b6040516104009190613421565b60405180910390f35b34801561041557600080fd5b50610430600480360381019061042b9190612bdc565b6127f9565b60405161043d91906132a4565b60405180910390f35b34801561045257600080fd5b5061046d60048036038101906104689190612d7b565b6128ca565b005b61047761299b565b6004600084815260200190815260200160002060008373ffffffffffffffffffffffffffffffffffffffff1673ffffffffffffffffffffffffffffffffffffffff1681526020019081526020016000206040518060400160405290816000820160009054906101000a900473ffffffffffffffffffffffffffffffffffffffff1673ffffffffffffffffffffffffffffffffffffffff1673ffffffffffffffffffffffffffffffffffffffff168152602001600182015481525050905092915050565b60025481565b60008061059084848080601f016020809104026020016040519081016040528093929190818152602001838380828437600081840152601f19601f82011690508083019250505050505050612942565b905060006004600087815260200190815260200160002060008373ffffffffffffffffffffffffffffffffffffffff1673ffffffffffffffffffffffffffffffffffffffff1681526020019081526020016000206001015490506000811161062d576040517f08c379a000000000000000000000000000000000000000000000000000000000815260040161062490613346565b60405180910390fd5b60006106508783600360008b815260200190815260200160002060070154612085565b9050600061067f88847f0000000000000000000000000000000000000000000000000000000000000000612085565b905060008183856106909190613669565b61069a9190613669565b9050600460008a815260200190815260200160002060008673ffffffffffffffffffffffffffffffffffffffff1673ffffffffffffffffffffffffffffffffffffffff168152602001908152602001600020600080820160006101000a81549073ffffffffffffffffffffffffffffffffffffffff02191690556001820160009055505060005b600560008b815260200190815260200160002080549050811015610874578573ffffffffffffffffffffffffffffffffffffffff16600560008c815260200190815260200160002082815481106107a1577f4e487b7100000000000000000000000000000000000000000000000000000000600052603260045260246000fd5b9060005260206000200160009054906101000a900473ffffffffffffffffffffffffffffffffffffffff1673ffffffffffffffffffffffffffffffffffffffff16141561086157600560008b81526020019081526020016000208181548110610833577f4e487b7100000000000000000000000000000000000000000000000000000000600052603260045260246000fd5b9060005260206000200160006101000a81549073ffffffffffffffffffffffffffffffffffffffff02191690555b808061086c90613834565b915050610721565b50600360008a815260200190815260200160002060050160009054906101000a900473ffffffffffffffffffffffffffffffffffffffff1673ffffffffffffffffffffffffffffffffffffffff16600360008b815260200190815260200160002060030160009054906101000a900473ffffffffffffffffffffffffffffffffffffffff1673ffffffffffffffffffffffffffffffffffffffff1614156109a257600360008a815260200190815260200160002060030160009054906101000a900473ffffffffffffffffffffffffffffffffffffffff1673ffffffffffffffffffffffffffffffffffffffff166108fc83866109719190613669565b9081150290604051600060405180830381858888f1935050505015801561099c573d6000803e3d6000fd5b50610a9d565b600360008a815260200190815260200160002060030160009054906101000a900473ffffffffffffffffffffffffffffffffffffffff1673ffffffffffffffffffffffffffffffffffffffff166108fc829081150290604051600060405180830381858888f19350505050158015610a1e573d6000803e3d6000fd5b50600360008a815260200190815260200160002060050160009054906101000a900473ffffffffffffffffffffffffffffffffffffffff1673ffffffffffffffffffffffffffffffffffffffff166108fc849081150290604051600060405180830381858888f19350505050158015610a9b573d6000803e3d6000fd5b505b7f000000000000000000000000000000000000000000000000000000000000000073ffffffffffffffffffffffffffffffffffffffff166108fc839081150290604051600060405180830381858888f19350505050158015610b03573d6000803e3d6000fd5b5084600360008b815260200190815260200160002060040160006101000a81548173ffffffffffffffffffffffffffffffffffffffff021916908373ffffffffffffffffffffffffffffffffffffffff1602179055506001600360008b815260200190815260200160002060080160006101000a81548160ff02191690831515021790555060026000815480929190610b9b90613834565b9190505550600360008a815260200190815260200160002060020160009054906101000a900473ffffffffffffffffffffffffffffffffffffffff1673ffffffffffffffffffffffffffffffffffffffff166323b872dd3087600360008e8152602001908152602001600020600101546040518463ffffffff1660e01b8152600401610c29939291906131dd565b600060405180830381600087803b158015610c4357600080fd5b505af1158015610c57573d6000803e3d6000fd5b50505050600360008a815260200190815260200160002060020160009054906101000a900473ffffffffffffffffffffffffffffffffffffffff1673ffffffffffffffffffffffffffffffffffffffff16600360008b8152602001908152602001600020600101548a7f7f793a503035bdb743bfd2eb8a6033f2a163e2df4ff59593081e227561870fe58d8989604051610cf3939291906131dd565b60405180910390a46000600360008b815260200190815260200160002060030160006101000a81548173ffffffffffffffffffffffffffffffffffffffff021916908373ffffffffffffffffffffffffffffffffffffffff16021790555063150b7a0260e01b9550505050505095945050505050565b80600660003373ffffffffffffffffffffffffffffffffffffffff1673ffffffffffffffffffffffffffffffffffffffff1681526020019081526020016000209080519060200190610dbc9291906129cb565b5050565b60026000541415610e06576040517f08c379a0000000000000000000000000000000000000000000000000000000008152600401610dfd906133c6565b60405180910390fd5b60026000819055506000610e198261276e565b90506000610e3d836003600086815260200190815260200160002060070154612730565b90506000610e6b847f0000000000000000000000000000000000000000000000000000000000000000612730565b9050600084118015610e7f57506001548411155b610ebe576040517f08c379a0000000000000000000000000000000000000000000000000000000008152600401610eb5906133a6565b60405180910390fd5b6003600085815260200190815260200160002060080160009054906101000a900460ff1615610f22576040517f08c379a0000000000000000000000000000000000000000000000000000000008152600401610f1990613386565b60405180910390fd5b82341015610f65576040517f08c379a0000000000000000000000000000000000000000000000000000000008152600401610f5c90613366565b60405180910390fd5b6003600085815260200190815260200160002060030160009054906101000a900473ffffffffffffffffffffffffffffffffffffffff1673ffffffffffffffffffffffffffffffffffffffff163373ffffffffffffffffffffffffffffffffffffffff16141561100a576040517f08c379a0000000000000000000000000000000000000000000000000000000008152600401611001906133e6565b60405180910390fd5b6003600085815260200190815260200160002060050160009054906101000a900473ffffffffffffffffffffffffffffffffffffffff1673ffffffffffffffffffffffffffffffffffffffff166003600086815260200190815260200160002060030160009054906101000a900473ffffffffffffffffffffffffffffffffffffffff1673ffffffffffffffffffffffffffffffffffffffff161415611137576003600085815260200190815260200160002060030160009054906101000a900473ffffffffffffffffffffffffffffffffffffffff1673ffffffffffffffffffffffffffffffffffffffff166108fc82856111069190613669565b9081150290604051600060405180830381858888f19350505050158015611131573d6000803e3d6000fd5b50611248565b6003600085815260200190815260200160002060030160009054906101000a900473ffffffffffffffffffffffffffffffffffffffff1673ffffffffffffffffffffffffffffffffffffffff166108fc60036000878152602001908152602001600020600601549081150290604051600060405180830381858888f193505050501580156111c9573d6000803e3d6000fd5b506003600085815260200190815260200160002060050160009054906101000a900473ffffffffffffffffffffffffffffffffffffffff1673ffffffffffffffffffffffffffffffffffffffff166108fc839081150290604051600060405180830381858888f19350505050158015611246573d6000803e3d6000fd5b505b7f000000000000000000000000000000000000000000000000000000000000000073ffffffffffffffffffffffffffffffffffffffff166108fc829081150290604051600060405180830381858888f193505050501580156112ae573d6000803e3d6000fd5b506003600085815260200190815260200160002060020160009054906101000a900473ffffffffffffffffffffffffffffffffffffffff1673ffffffffffffffffffffffffffffffffffffffff166323b872dd303360036000898152602001908152602001600020600101546040518463ffffffff1660e01b8152600401611338939291906131dd565b600060405180830381600087803b15801561135257600080fd5b505af1158015611366573d6000803e3d6000fd5b50505050336003600086815260200190815260200160002060040160006101000a81548173ffffffffffffffffffffffffffffffffffffffff021916908373ffffffffffffffffffffffffffffffffffffffff16021790555060016003600086815260200190815260200160002060080160006101000a81548160ff0219169083151502179055506002600081548092919061140190613834565b91905055506003600085815260200190815260200160002060020160009054906101000a900473ffffffffffffffffffffffffffffffffffffffff1673ffffffffffffffffffffffffffffffffffffffff166003600086815260200190815260200160002060010154857fe99857a026e5c5ccbfdaf5ba02883099a153a11f3c1fe306b89fc81241ce83246003600089815260200190815260200160002060030160009054906101000a900473ffffffffffffffffffffffffffffffffffffffff1633600360008b815260200190815260200160002060050160009054906101000a900473ffffffffffffffffffffffffffffffffffffffff16600360008c815260200190815260200160002060060154600360008d81526020019081526020016000206007015460405161153a959493929190613137565b60405180910390a460006003600086815260200190815260200160002060030160006101000a81548173ffffffffffffffffffffffffffffffffffffffff021916908373ffffffffffffffffffffffffffffffffffffffff160217905550505050600160008190555050565b60036020528060005260406000206000915090508060000154908060010154908060020160009054906101000a900473ffffffffffffffffffffffffffffffffffffffff16908060030160009054906101000a900473ffffffffffffffffffffffffffffffffffffffff16908060040160009054906101000a900473ffffffffffffffffffffffffffffffffffffffff16908060050160009054906101000a900473ffffffffffffffffffffffffffffffffffffffff16908060060154908060070154908060080160009054906101000a900460ff16905089565b600260005414156116c7576040517f08c379a00000000000000000000000000000000000000000000000000000000081526004016116be906133c6565b60405180910390fd5b600260008190555060008211611712576040517f08c379a0000000000000000000000000000000000000000000000000000000008152600401611709906132e6565b60405180910390fd5b6001600081548092919061172590613834565b919050555060006001549050600033905060005b6001548110156118285785600360006001846117559190613588565b8152602001908152602001600020600101541415611815576000600360006001846117809190613588565b815260200190815260200160002060040160006101000a81548173ffffffffffffffffffffffffffffffffffffffff021916908373ffffffffffffffffffffffffffffffffffffffff160217905550600360006001836117e09190613588565b815260200190815260200160002060050160009054906101000a900473ffffffffffffffffffffffffffffffffffffffff1691505b808061182090613834565b915050611739565b506040518061012001604052808381526020018681526020018773ffffffffffffffffffffffffffffffffffffffff1681526020013373ffffffffffffffffffffffffffffffffffffffff168152602001600073ffffffffffffffffffffffffffffffffffffffff1681526020018273ffffffffffffffffffffffffffffffffffffffff1681526020018581526020018481526020016000151581525060036000848152602001908152602001600020600082015181600001556020820151816001015560408201518160020160006101000a81548173ffffffffffffffffffffffffffffffffffffffff021916908373ffffffffffffffffffffffffffffffffffffffff16021790555060608201518160030160006101000a81548173ffffffffffffffffffffffffffffffffffffffff021916908373ffffffffffffffffffffffffffffffffffffffff16021790555060808201518160040160006101000a81548173ffffffffffffffffffffffffffffffffffffffff021916908373ffffffffffffffffffffffffffffffffffffffff16021790555060a08201518160050160006101000a81548173ffffffffffffffffffffffffffffffffffffffff021916908373ffffffffffffffffffffffffffffffffffffffff16021790555060c0820151816006015560e082015181600701556101008201518160080160006101000a81548160ff0219169083151502179055509050508573ffffffffffffffffffffffffffffffffffffffff166323b872dd3330886040518463ffffffff1660e01b8152600401611a7d939291906131dd565b600060405180830381600087803b158015611a9757600080fd5b505af1158015611aab573d6000803e3d6000fd5b505050508573ffffffffffffffffffffffffffffffffffffffff1685837fe7d9f298f45a30b9f82251173ac573d557b5b59bdb10d57697d5e7d7841256ff336000868a8a604051611b0095949392919061318a565b60405180910390a45050600160008190555050505050565b60015481565b60026000541415611b64576040517f08c379a0000000000000000000000000000000000000000000000000000000008152600401611b5b906133c6565b60405180910390fd5b600260008190555060006004600083815260200190815260200160002060003373ffffffffffffffffffffffffffffffffffffffff1673ffffffffffffffffffffffffffffffffffffffff1681526020019081526020016000206001015490506004600083815260200190815260200160002060003373ffffffffffffffffffffffffffffffffffffffff1673ffffffffffffffffffffffffffffffffffffffff168152602001908152602001600020600080820160006101000a81549073ffffffffffffffffffffffffffffffffffffffff02191690556001820160009055505060005b6005600084815260200190815260200160002080549050811015611d9c573373ffffffffffffffffffffffffffffffffffffffff16600560008581526020019081526020016000208281548110611cc9577f4e487b7100000000000000000000000000000000000000000000000000000000600052603260045260246000fd5b9060005260206000200160009054906101000a900473ffffffffffffffffffffffffffffffffffffffff1673ffffffffffffffffffffffffffffffffffffffff161415611d8957600560008481526020019081526020016000208181548110611d5b577f4e487b7100000000000000000000000000000000000000000000000000000000600052603260045260246000fd5b9060005260206000200160006101000a81549073ffffffffffffffffffffffffffffffffffffffff02191690555b8080611d9490613834565b915050611c49565b503373ffffffffffffffffffffffffffffffffffffffff166108fc829081150290604051600060405180830381858888f19350505050158015611de3573d6000803e3d6000fd5b506003600083815260200190815260200160002060020160009054906101000a900473ffffffffffffffffffffffffffffffffffffffff1673ffffffffffffffffffffffffffffffffffffffff166003600084815260200190815260200160002060010154837fe2e9a6903e65417bc0ff3f86dda997517885aae38917a3ef1a36e7e5d5fc20263385604051611e7a929190613260565b60405180910390a450600160008190555050565b6000600560008481526020019081526020016000208281548110611edb577f4e487b7100000000000000000000000000000000000000000000000000000000600052603260045260246000fd5b9060005260206000200160009054906101000a900473ffffffffffffffffffffffffffffffffffffffff16905092915050565b60026000541415611f54576040517f08c379a0000000000000000000000000000000000000000000000000000000008152600401611f4b906133c6565b60405180910390fd5b600260008190555060003073ffffffffffffffffffffffffffffffffffffffff1663150b7a02333086866040518563ffffffff1660e01b8152600401611f9d9493929190613214565b602060405180830381600087803b158015611fb757600080fd5b505af1158015611fcb573d6000803e3d6000fd5b505050506040513d601f19601f82011682018060405250810190611fef9190612c85565b905063150b7a0260e01b7bffffffffffffffffffffffffffffffffffffffffffffffffffffffff1916817bffffffffffffffffffffffffffffffffffffffffffffffffffffffff191614612078576040517f08c379a000000000000000000000000000000000000000000000000000000000815260040161206f90613306565b60405180910390fd5b5060016000819055505050565b600080827f000000000000000000000000000000000000000000000000000000000000000060036000888152602001908152602001600020600701546103e86120ce9190613588565b6120d89190613588565b856120e391906135de565b6120ed919061360f565b9050809150509392505050565b61210261299b565b60008060005b60056000868152602001908152602001600020805490508110156122fe576000600460008781526020019081526020016000206000600560008981526020019081526020016000208481548110612188577f4e487b7100000000000000000000000000000000000000000000000000000000600052603260045260246000fd5b9060005260206000200160009054906101000a900473ffffffffffffffffffffffffffffffffffffffff1673ffffffffffffffffffffffffffffffffffffffff1673ffffffffffffffffffffffffffffffffffffffff168152602001908152602001600020600101549050838111156122ea5780935060046000878152602001908152602001600020600060056000898152602001908152602001600020848154811061225e577f4e487b7100000000000000000000000000000000000000000000000000000000600052603260045260246000fd5b9060005260206000200160009054906101000a900473ffffffffffffffffffffffffffffffffffffffff1673ffffffffffffffffffffffffffffffffffffffff1673ffffffffffffffffffffffffffffffffffffffff16815260200190815260200160002060000160009054906101000a900473ffffffffffffffffffffffffffffffffffffffff1692505b5080806122f690613834565b915050612108565b506004600085815260200190815260200160002060008273ffffffffffffffffffffffffffffffffffffffff1673ffffffffffffffffffffffffffffffffffffffff1681526020019081526020016000206040518060400160405290816000820160009054906101000a900473ffffffffffffffffffffffffffffffffffffffff1673ffffffffffffffffffffffffffffffffffffffff1673ffffffffffffffffffffffffffffffffffffffff16815260200160018201548152505092505050919050565b60026000541415612409576040517f08c379a0000000000000000000000000000000000000000000000000000000008152600401612400906133c6565b60405180910390fd5b600260008190555060008111801561242357506001548111155b612462576040517f08c379a0000000000000000000000000000000000000000000000000000000008152600401612459906133a6565b60405180910390fd5b6003600082815260200190815260200160002060080160009054906101000a900460ff16156124c6576040517f08c379a00000000000000000000000000000000000000000000000000000000081526004016124bd90613386565b60405180910390fd5b6003600082815260200190815260200160002060030160009054906101000a900473ffffffffffffffffffffffffffffffffffffffff1673ffffffffffffffffffffffffffffffffffffffff163373ffffffffffffffffffffffffffffffffffffffff16141561256b576040517f08c379a0000000000000000000000000000000000000000000000000000000008152600401612562906132c6565b60405180910390fd5b600034116125ae576040517f08c379a00000000000000000000000000000000000000000000000000000000081526004016125a590613346565b60405180910390fd5b60405180604001604052803373ffffffffffffffffffffffffffffffffffffffff168152602001348152506004600083815260200190815260200160002060003373ffffffffffffffffffffffffffffffffffffffff1673ffffffffffffffffffffffffffffffffffffffff16815260200190815260200160002060008201518160000160006101000a81548173ffffffffffffffffffffffffffffffffffffffff021916908373ffffffffffffffffffffffffffffffffffffffff1602179055506020820151816001015590505061268781336128ca565b6003600082815260200190815260200160002060020160009054906101000a900473ffffffffffffffffffffffffffffffffffffffff1673ffffffffffffffffffffffffffffffffffffffff166003600083815260200190815260200160002060010154827fe2dd28397a48f4aaa10e52efda998bd7264438c9c483088ef29bb74498bd2aeb333460405161271d929190613260565b60405180910390a4600160008190555050565b600080826103e8600360008781526020019081526020016000206006015461275891906135de565b612762919061360f565b90508091505092915050565b6000806103e87f000000000000000000000000000000000000000000000000000000000000000060036000868152602001908152602001600020600701546103e86127b99190613588565b6127c39190613588565b60036000868152602001908152602001600020600601546127e4919061360f565b6127ee91906135de565b905080915050919050565b6060600660008373ffffffffffffffffffffffffffffffffffffffff1673ffffffffffffffffffffffffffffffffffffffff1681526020019081526020016000208054612845906137d1565b80601f0160208091040260200160405190810160405280929190818152602001828054612871906137d1565b80156128be5780601f10612893576101008083540402835291602001916128be565b820191906000526020600020905b8154815290600101906020018083116128a157829003601f168201915b50505050509050919050565b60056000838152602001908152602001600020819080600181540180825580915050600190039060005260206000200160009091909190916101000a81548173ffffffffffffffffffffffffffffffffffffffff021916908373ffffffffffffffffffffffffffffffffffffffff1602179055505050565b6000601482511015612989576040517f08c379a000000000000000000000000000000000000000000000000000000000815260040161298090613326565b60405180910390fd5b60006014830151905080915050919050565b6040518060400160405280600073ffffffffffffffffffffffffffffffffffffffff168152602001600081525090565b8280546129d7906137d1565b90600052602060002090601f0160209004810192826129f95760008555612a40565b82601f10612a1257805160ff1916838001178555612a40565b82800160010185558215612a40579182015b82811115612a3f578251825591602001919060010190612a24565b5b509050612a4d9190612a51565b5090565b5b80821115612a6a576000816000905550600101612a52565b5090565b6000612a81612a7c846134ee565b6134c9565b905082815260208101848484011115612a9957600080fd5b612aa484828561378f565b509392505050565b6000612abf612aba8461351f565b6134c9565b905082815260208101848484011115612ad757600080fd5b612ae284828561378f565b509392505050565b600081359050612af981613ba2565b92915050565b600081519050612b0e81613bb9565b92915050565b60008083601f840112612b2657600080fd5b8235905067ffffffffffffffff811115612b3f57600080fd5b602083019150836001820283011115612b5757600080fd5b9250929050565b600082601f830112612b6f57600080fd5b8135612b7f848260208601612a6e565b91505092915050565b600081359050612b9781613bd0565b92915050565b600082601f830112612bae57600080fd5b8135612bbe848260208601612aac565b91505092915050565b600081359050612bd681613be7565b92915050565b600060208284031215612bee57600080fd5b6000612bfc84828501612aea565b91505092915050565b600080600080600060808688031215612c1d57600080fd5b6000612c2b88828901612aea565b9550506020612c3c88828901612aea565b9450506040612c4d88828901612bc7565b935050606086013567ffffffffffffffff811115612c6a57600080fd5b612c7688828901612b14565b92509250509295509295909350565b600060208284031215612c9757600080fd5b6000612ca584828501612aff565b91505092915050565b60008060008060808587031215612cc457600080fd5b6000612cd287828801612b88565b9450506020612ce387828801612bc7565b9350506040612cf487828801612bc7565b9250506060612d0587828801612bc7565b91505092959194509250565b600060208284031215612d2357600080fd5b600082013567ffffffffffffffff811115612d3d57600080fd5b612d4984828501612b9d565b91505092915050565b600060208284031215612d6457600080fd5b6000612d7284828501612bc7565b91505092915050565b60008060408385031215612d8e57600080fd5b6000612d9c85828601612bc7565b9250506020612dad85828601612aea565b9150509250929050565b60008060408385031215612dca57600080fd5b6000612dd885828601612bc7565b925050602083013567ffffffffffffffff811115612df557600080fd5b612e0185828601612b5e565b9150509250929050565b60008060408385031215612e1e57600080fd5b6000612e2c85828601612bc7565b9250506020612e3d85828601612bc7565b9150509250929050565b600080600060608486031215612e5c57600080fd5b6000612e6a86828701612bc7565b9350506020612e7b86828701612bc7565b9250506040612e8c86828701612bc7565b9150509250925092565b612e9f81613735565b82525050565b612eae816136af565b82525050565b612ebd8161369d565b82525050565b612ecc8161369d565b82525050565b612edb816136c1565b82525050565b612eea816136cd565b82525050565b6000612efb82613550565b612f058185613566565b9350612f1581856020860161379e565b612f1e81613939565b840191505092915050565b612f3281613747565b82525050565b6000612f438261355b565b612f4d8185613577565b9350612f5d81856020860161379e565b612f6681613939565b840191505092915050565b6000612f7e603083613577565b9150612f898261394a565b604082019050919050565b6000612fa1601f83613577565b9150612fac82613999565b602082019050919050565b6000612fc4603283613577565b9150612fcf826139c2565b604082019050919050565b6000612fe7601483613577565b9150612ff282613a11565b602082019050919050565b600061300a602183613577565b915061301582613a3a565b604082019050919050565b600061302d604083613577565b915061303882613a89565b604082019050919050565b6000613050601483613577565b915061305b82613ad8565b602082019050919050565b6000613073601383613577565b915061307e82613b01565b602082019050919050565b6000613096601f83613577565b91506130a182613b2a565b602082019050919050565b60006130b9602e83613577565b91506130c482613b53565b604082019050919050565b6040820160008201516130e56000850182612eb4565b5060208201516130f860208501826130fe565b50505050565b6131078161372b565b82525050565b6131168161372b565b82525050565b60006020820190506131316000830184612ec3565b92915050565b600060a08201905061314c6000830188612e96565b6131596020830187612ec3565b6131666040830186612e96565b613173606083018561310d565b613180608083018461310d565b9695505050505050565b600060a08201905061319f6000830188612ec3565b6131ac6020830187612ec3565b6131b96040830186612e96565b6131c6606083018561310d565b6131d3608083018461310d565b9695505050505050565b60006060820190506131f26000830186612ec3565b6131ff6020830185612ec3565b61320c604083018461310d565b949350505050565b60006080820190506132296000830187612ec3565b6132366020830186612ec3565b613243604083018561310d565b81810360608301526132558184612ef0565b905095945050505050565b60006040820190506132756000830185612ec3565b613282602083018461310d565b9392505050565b600060208201905061329e6000830184612ee1565b92915050565b600060208201905081810360008301526132be8184612f38565b905092915050565b600060208201905081810360008301526132df81612f71565b9050919050565b600060208201905081810360008301526132ff81612f94565b9050919050565b6000602082019050818103600083015261331f81612fb7565b9050919050565b6000602082019050818103600083015261333f81612fda565b9050919050565b6000602082019050818103600083015261335f81612ffd565b9050919050565b6000602082019050818103600083015261337f81613020565b9050919050565b6000602082019050818103600083015261339f81613043565b9050919050565b600060208201905081810360008301526133bf81613066565b9050919050565b600060208201905081810360008301526133df81613089565b9050919050565b600060208201905081810360008301526133ff816130ac565b9050919050565b600060408201905061341b60008301846130cf565b92915050565b6000602082019050613436600083018461310d565b92915050565b600061012082019050613452600083018c61310d565b61345f602083018b61310d565b61346c604083018a612f29565b6134796060830189612ea5565b6134866080830188612ea5565b61349360a0830187612ea5565b6134a060c083018661310d565b6134ad60e083018561310d565b6134bb610100830184612ed2565b9a9950505050505050505050565b60006134d36134e4565b90506134df8282613803565b919050565b6000604051905090565b600067ffffffffffffffff8211156135095761350861390a565b5b61351282613939565b9050602081019050919050565b600067ffffffffffffffff82111561353a5761353961390a565b5b61354382613939565b9050602081019050919050565b600081519050919050565b600081519050919050565b600082825260208201905092915050565b600082825260208201905092915050565b60006135938261372b565b915061359e8361372b565b9250827fffffffffffffffffffffffffffffffffffffffffffffffffffffffffffffffff038211156135d3576135d261387d565b5b828201905092915050565b60006135e98261372b565b91506135f48361372b565b925082613604576136036138ac565b5b828204905092915050565b600061361a8261372b565b91506136258361372b565b9250817fffffffffffffffffffffffffffffffffffffffffffffffffffffffffffffffff048311821515161561365e5761365d61387d565b5b828202905092915050565b60006136748261372b565b915061367f8361372b565b9250828210156136925761369161387d565b5b828203905092915050565b60006136a88261370b565b9050919050565b60006136ba8261370b565b9050919050565b60008115159050919050565b60007fffffffff0000000000000000000000000000000000000000000000000000000082169050919050565b60006137048261369d565b9050919050565b600073ffffffffffffffffffffffffffffffffffffffff82169050919050565b6000819050919050565b60006137408261376b565b9050919050565b600061375282613759565b9050919050565b60006137648261370b565b9050919050565b60006137768261377d565b9050919050565b60006137888261370b565b9050919050565b82818337600083830152505050565b60005b838110156137bc5780820151818401526020810190506137a1565b838111156137cb576000848401525b50505050565b600060028204905060018216806137e957607f821691505b602082108114156137fd576137fc6138db565b5b50919050565b61380c82613939565b810181811067ffffffffffffffff8211171561382b5761382a61390a565b5b80604052505050565b600061383f8261372b565b91507fffffffffffffffffffffffffffffffffffffffffffffffffffffffffffffffff8214156138725761387161387d565b5b600182019050919050565b7f4e487b7100000000000000000000000000000000000000000000000000000000600052601160045260246000fd5b7f4e487b7100000000000000000000000000000000000000000000000000000000600052601260045260246000fd5b7f4e487b7100000000000000000000000000000000000000000000000000000000600052602260045260246000fd5b7f4e487b7100000000000000000000000000000000000000000000000000000000600052604160045260246000fd5b6000601f19601f8301169050919050565b7f53656c6c65722063616e6e6f74206265207468652073616d652061646472657360008201527f7320617320746865206f66666572657200000000000000000000000000000000602082015250565b7f5072696365206d7573742062652067726561746572207468616e207a65726f00600082015250565b7f4552433732313a207472616e7366657220746f206e6f6e20455243373231526560008201527f63656976657220696d706c656d656e7465720000000000000000000000000000602082015250565b7f736c6963696e67206f7574206f662072616e6765000000000000000000000000600082015250565b7f4f6666657220696e76616c69642c206d7573742062652061626f7665207a657260008201527f6f00000000000000000000000000000000000000000000000000000000000000602082015250565b7f496e73756666696369656e742066756e647320746f20636f766572207072696360008201527f652c20726f79616c747920666565202b207472616e73616374696f6e20666565602082015250565b7f4974656d20697320616c726561647920736f6c64000000000000000000000000600082015250565b7f4974656d20646f6573206e6f7420657869737400000000000000000000000000600082015250565b7f5265656e7472616e637947756172643a207265656e7472616e742063616c6c00600082015250565b7f53656c6c65722063616e6e6f74206265207468652073616d652061646472657360008201527f7320617320746865206275796572000000000000000000000000000000000000602082015250565b613bab8161369d565b8114613bb657600080fd5b50565b613bc2816136cd565b8114613bcd57600080fd5b50565b613bd9816136f9565b8114613be457600080fd5b50565b613bf08161372b565b8114613bfb57600080fd5b5056fea26469706673582212209896dacc30e1e57ec73d1cf9c52f271da8acc1393cf61909bceb5a072ed5507e64736f6c63430008010033",
  "linkReferences": {},
  "deployedLinkReferences": {}
}