{
  "_format": "hh-sol-artifact-1",
  "contractName": "Marketplace",
  "sourceName": "src/contracts/Marketplace.sol",
  "abi": [
    {
      "anonymous": false,
      "inputs": [
        {
          "indexed": true,
          "internalType": "uint256",
          "name": "id",
          "type": "uint256"
        },
        {
          "indexed": true,
          "internalType": "uint256",
          "name": "tokenId",
          "type": "uint256"
        },
        {
          "indexed": true,
          "internalType": "address",
          "name": "tokenAddress",
          "type": "address"
        },
        {
          "indexed": false,
          "internalType": "address",
          "name": "seller",
          "type": "address"
        },
        {
          "indexed": false,
          "internalType": "address",
          "name": "owner",
          "type": "address"
        },
        {
          "indexed": false,
          "internalType": "uint256",
          "name": "price",
          "type": "uint256"
        }
      ],
      "name": "marketItemCreated",
      "type": "event"
    },
    {
      "anonymous": false,
      "inputs": [
        {
          "indexed": true,
          "internalType": "uint256",
          "name": "id",
          "type": "uint256"
        },
        {
          "indexed": true,
          "internalType": "uint256",
          "name": "tokenId",
          "type": "uint256"
        },
        {
          "indexed": true,
          "internalType": "address",
          "name": "tokenAddress",
          "type": "address"
        },
        {
          "indexed": false,
          "internalType": "address",
          "name": "seller",
          "type": "address"
        },
        {
          "indexed": false,
          "internalType": "address",
          "name": "buyer",
          "type": "address"
        },
        {
          "indexed": false,
          "internalType": "uint256",
          "name": "price",
          "type": "uint256"
        }
      ],
      "name": "marketItemSold",
      "type": "event"
    },
    {
      "inputs": [
        {
          "internalType": "uint256",
          "name": "id",
          "type": "uint256"
        }
      ],
      "name": "buyMarketItem",
      "outputs": [],
      "stateMutability": "payable",
      "type": "function"
    },
    {
      "inputs": [
        {
          "internalType": "contract IERC721",
          "name": "token",
          "type": "address"
        },
        {
          "internalType": "uint256",
          "name": "tokenId",
          "type": "uint256"
        },
        {
          "internalType": "uint256",
          "name": "price",
          "type": "uint256"
        }
      ],
      "name": "createMarketItem",
      "outputs": [],
      "stateMutability": "nonpayable",
      "type": "function"
    },
    {
      "inputs": [],
      "name": "getMsgSender",
      "outputs": [
        {
          "internalType": "address",
          "name": "",
          "type": "address"
        }
      ],
      "stateMutability": "nonpayable",
      "type": "function"
    },
    {
      "inputs": [],
      "name": "getMsgValue",
      "outputs": [
        {
          "internalType": "uint256",
          "name": "",
          "type": "uint256"
        }
      ],
      "stateMutability": "payable",
      "type": "function"
    },
    {
      "inputs": [],
      "name": "getMyOwnedNFTs",
      "outputs": [
        {
          "components": [
            {
              "internalType": "uint256",
              "name": "id",
              "type": "uint256"
            },
            {
              "internalType": "uint256",
              "name": "tokenId",
              "type": "uint256"
            },
            {
              "internalType": "contract IERC721",
              "name": "token",
              "type": "address"
            },
            {
              "internalType": "address payable",
              "name": "seller",
              "type": "address"
            },
            {
              "internalType": "address payable",
              "name": "owner",
              "type": "address"
            },
            {
              "internalType": "uint256",
              "name": "price",
              "type": "uint256"
            },
            {
              "internalType": "bool",
              "name": "sold",
              "type": "bool"
            }
          ],
          "internalType": "struct Marketplace.MarketItem[]",
          "name": "",
          "type": "tuple[]"
        }
      ],
      "stateMutability": "view",
      "type": "function"
    },
    {
      "inputs": [],
      "name": "getUnsoldMarketItems",
      "outputs": [
        {
          "components": [
            {
              "internalType": "uint256",
              "name": "id",
              "type": "uint256"
            },
            {
              "internalType": "uint256",
              "name": "tokenId",
              "type": "uint256"
            },
            {
              "internalType": "contract IERC721",
              "name": "token",
              "type": "address"
            },
            {
              "internalType": "address payable",
              "name": "seller",
              "type": "address"
            },
            {
              "internalType": "address payable",
              "name": "owner",
              "type": "address"
            },
            {
              "internalType": "uint256",
              "name": "price",
              "type": "uint256"
            },
            {
              "internalType": "bool",
              "name": "sold",
              "type": "bool"
            }
          ],
          "internalType": "struct Marketplace.MarketItem[]",
          "name": "",
          "type": "tuple[]"
        }
      ],
      "stateMutability": "view",
      "type": "function"
    },
    {
      "inputs": [
        {
          "internalType": "uint256",
          "name": "",
          "type": "uint256"
        }
      ],
      "name": "marketItems",
      "outputs": [
        {
          "internalType": "uint256",
          "name": "id",
          "type": "uint256"
        },
        {
          "internalType": "uint256",
          "name": "tokenId",
          "type": "uint256"
        },
        {
          "internalType": "contract IERC721",
          "name": "token",
          "type": "address"
        },
        {
          "internalType": "address payable",
          "name": "seller",
          "type": "address"
        },
        {
          "internalType": "address payable",
          "name": "owner",
          "type": "address"
        },
        {
          "internalType": "uint256",
          "name": "price",
          "type": "uint256"
        },
        {
          "internalType": "bool",
          "name": "sold",
          "type": "bool"
        }
      ],
      "stateMutability": "view",
      "type": "function"
    }
  ],
  "bytecode": "0x608060405234801561001057600080fd5b5060016000819055506118cb806100286000396000f3fe6080604052600436106100705760003560e01c80635ce5c46c1161004e5780635ce5c46c146100fd5780636e09dc51146101285780637a6ce2e114610153578063a17042cc1461017e57610070565b8063351901c31461007557806351f28e141461009157806358eb2df5146100d4575b600080fd5b61008f600480360381019061008a9190611141565b61019c565b005b34801561009d57600080fd5b506100b860048036038101906100b39190611141565b6105d2565b6040516100cb9796959493929190611519565b60405180910390f35b3480156100e057600080fd5b506100fb60048036038101906100f691906110f2565b610681565b005b34801561010957600080fd5b5061011261099e565b60405161011f919061143c565b60405180910390f35b34801561013457600080fd5b5061013d610d38565b60405161014a919061143c565b60405180910390f35b34801561015f57600080fd5b50610168611013565b60405161017591906113b3565b60405180910390f35b61018661101b565b60405161019391906114fe565b60405180910390f35b600260005414156101e2576040517f08c379a00000000000000000000000000000000000000000000000000000000081526004016101d9906114de565b60405180910390fd5b600260008190555060008111801561020357506101ff6001611023565b8111155b610242576040517f08c379a0000000000000000000000000000000000000000000000000000000008152600401610239906114be565b60405180910390fd5b6003600082815260200190815260200160002060060160009054906101000a900460ff16156102a6576040517f08c379a000000000000000000000000000000000000000000000000000000000815260040161029d9061149e565b60405180910390fd5b60036000828152602001908152602001600020600501543410156102ff576040517f08c379a00000000000000000000000000000000000000000000000000000000081526004016102f69061147e565b60405180910390fd5b6003600082815260200190815260200160002060030160009054906101000a900473ffffffffffffffffffffffffffffffffffffffff1673ffffffffffffffffffffffffffffffffffffffff166108fc60036000848152602001908152602001600020600501549081150290604051600060405180830381858888f19350505050158015610391573d6000803e3d6000fd5b506003600082815260200190815260200160002060020160009054906101000a900473ffffffffffffffffffffffffffffffffffffffff1673ffffffffffffffffffffffffffffffffffffffff166323b872dd303360036000868152602001908152602001600020600101546040518463ffffffff1660e01b815260040161041b93929190611405565b600060405180830381600087803b15801561043557600080fd5b505af1158015610449573d6000803e3d6000fd5b50505050336003600083815260200190815260200160002060040160006101000a81548173ffffffffffffffffffffffffffffffffffffffff021916908373ffffffffffffffffffffffffffffffffffffffff16021790555060016003600083815260200190815260200160002060060160006101000a81548160ff0219169083151502179055506104db6002611031565b6003600082815260200190815260200160002060020160009054906101000a900473ffffffffffffffffffffffffffffffffffffffff1673ffffffffffffffffffffffffffffffffffffffff166003600083815260200190815260200160002060010154827f86ae3f17f0aa372e0a2e07ac3218eba9d060b36077e75e847ba965a04151e5576003600086815260200190815260200160002060030160009054906101000a900473ffffffffffffffffffffffffffffffffffffffff163360036000888152602001908152602001600020600501546040516105bf939291906113ce565b60405180910390a4600160008190555050565b60036020528060005260406000206000915090508060000154908060010154908060020160009054906101000a900473ffffffffffffffffffffffffffffffffffffffff16908060030160009054906101000a900473ffffffffffffffffffffffffffffffffffffffff16908060040160009054906101000a900473ffffffffffffffffffffffffffffffffffffffff16908060050154908060060160009054906101000a900460ff16905087565b600260005414156106c7576040517f08c379a00000000000000000000000000000000000000000000000000000000081526004016106be906114de565b60405180910390fd5b600260008190555060008111610712576040517f08c379a00000000000000000000000000000000000000000000000000000000081526004016107099061145e565b60405180910390fd5b61071c6001611031565b60006107286001611023565b90506040518060e001604052808281526020018481526020018573ffffffffffffffffffffffffffffffffffffffff1681526020013373ffffffffffffffffffffffffffffffffffffffff168152602001600073ffffffffffffffffffffffffffffffffffffffff1681526020018381526020016000151581525060036000838152602001908152602001600020600082015181600001556020820151816001015560408201518160020160006101000a81548173ffffffffffffffffffffffffffffffffffffffff021916908373ffffffffffffffffffffffffffffffffffffffff16021790555060608201518160030160006101000a81548173ffffffffffffffffffffffffffffffffffffffff021916908373ffffffffffffffffffffffffffffffffffffffff16021790555060808201518160040160006101000a81548173ffffffffffffffffffffffffffffffffffffffff021916908373ffffffffffffffffffffffffffffffffffffffff16021790555060a0820151816005015560c08201518160060160006101000a81548160ff0219169083151502179055509050508373ffffffffffffffffffffffffffffffffffffffff166323b872dd3330866040518463ffffffff1660e01b815260040161090993929190611405565b600060405180830381600087803b15801561092357600080fd5b505af1158015610937573d6000803e3d6000fd5b505050508373ffffffffffffffffffffffffffffffffffffffff1683827f356f4076415e81453227033bb613c1c0b596735e099c4b9a24c6a249a353590c3360008760405161098893929190611405565b60405180910390a4506001600081905550505050565b606060006109ac6001611023565b905060008060005b83811015610a55573373ffffffffffffffffffffffffffffffffffffffff16600360006001846109e491906115d2565b815260200190815260200160002060040160009054906101000a900473ffffffffffffffffffffffffffffffffffffffff1673ffffffffffffffffffffffffffffffffffffffff161415610a4257600183610a3f91906115d2565b92505b8080610a4d90611722565b9150506109b4565b5060008267ffffffffffffffff811115610a98577f4e487b7100000000000000000000000000000000000000000000000000000000600052604160045260246000fd5b604051908082528060200260200182016040528015610ad157816020015b610abe611047565b815260200190600190039081610ab65790505b50905060005b84811015610d2d573373ffffffffffffffffffffffffffffffffffffffff1660036000600184610b0791906115d2565b815260200190815260200160002060040160009054906101000a900473ffffffffffffffffffffffffffffffffffffffff1673ffffffffffffffffffffffffffffffffffffffff161415610d1a576000600182610b6491906115d2565b90506000600360008381526020019081526020016000209050806040518060e001604052908160008201548152602001600182015481526020016002820160009054906101000a900473ffffffffffffffffffffffffffffffffffffffff1673ffffffffffffffffffffffffffffffffffffffff1673ffffffffffffffffffffffffffffffffffffffff1681526020016003820160009054906101000a900473ffffffffffffffffffffffffffffffffffffffff1673ffffffffffffffffffffffffffffffffffffffff1673ffffffffffffffffffffffffffffffffffffffff1681526020016004820160009054906101000a900473ffffffffffffffffffffffffffffffffffffffff1673ffffffffffffffffffffffffffffffffffffffff1673ffffffffffffffffffffffffffffffffffffffff168152602001600582015481526020016006820160009054906101000a900460ff161515151581525050848681518110610cfd577f4e487b7100000000000000000000000000000000000000000000000000000000600052603260045260246000fd5b6020026020010181905250600185610d1591906115d2565b945050505b8080610d2590611722565b915050610ad7565b508094505050505090565b60606000610d466001611023565b90506000610d546002611023565b610d5e6001611023565b610d689190611628565b90506000808267ffffffffffffffff811115610dad577f4e487b7100000000000000000000000000000000000000000000000000000000600052604160045260246000fd5b604051908082528060200260200182016040528015610de657816020015b610dd3611047565b815260200190600190039081610dcb5790505b50905060005b84811015611008576000151560036000600184610e0991906115d2565b815260200190815260200160002060060160009054906101000a900460ff1615151415610ff5576000600182610e3f91906115d2565b90506000600360008381526020019081526020016000209050806040518060e001604052908160008201548152602001600182015481526020016002820160009054906101000a900473ffffffffffffffffffffffffffffffffffffffff1673ffffffffffffffffffffffffffffffffffffffff1673ffffffffffffffffffffffffffffffffffffffff1681526020016003820160009054906101000a900473ffffffffffffffffffffffffffffffffffffffff1673ffffffffffffffffffffffffffffffffffffffff1673ffffffffffffffffffffffffffffffffffffffff1681526020016004820160009054906101000a900473ffffffffffffffffffffffffffffffffffffffff1673ffffffffffffffffffffffffffffffffffffffff1673ffffffffffffffffffffffffffffffffffffffff168152602001600582015481526020016006820160009054906101000a900460ff161515151581525050848681518110610fd8577f4e487b7100000000000000000000000000000000000000000000000000000000600052603260045260246000fd5b6020026020010181905250600185610ff091906115d2565b945050505b808061100090611722565b915050610dec565b508094505050505090565b600033905090565b600034905090565b600081600001549050919050565b6001816000016000828254019250508190555050565b6040518060e001604052806000815260200160008152602001600073ffffffffffffffffffffffffffffffffffffffff168152602001600073ffffffffffffffffffffffffffffffffffffffff168152602001600073ffffffffffffffffffffffffffffffffffffffff168152602001600081526020016000151581525090565b6000813590506110d781611867565b92915050565b6000813590506110ec8161187e565b92915050565b60008060006060848603121561110757600080fd5b6000611115868287016110c8565b9350506020611126868287016110dd565b9250506040611137868287016110dd565b9150509250925092565b60006020828403121561115357600080fd5b6000611161848285016110dd565b91505092915050565b60006111768383611307565b60e08301905092915050565b61118b816116c8565b82525050565b61119a8161166e565b82525050565b6111a98161166e565b82525050565b6111b88161165c565b82525050565b60006111c982611598565b6111d381856115b0565b93506111de83611588565b8060005b8381101561120f5781516111f6888261116a565b9750611201836115a3565b9250506001810190506111e2565b5085935050505092915050565b61122581611680565b82525050565b61123481611680565b82525050565b611243816116da565b82525050565b611252816116da565b82525050565b6000611265601f836115c1565b91506112708261179a565b602082019050919050565b60006112886012836115c1565b9150611293826117c3565b602082019050919050565b60006112ab6014836115c1565b91506112b6826117ec565b602082019050919050565b60006112ce6013836115c1565b91506112d982611815565b602082019050919050565b60006112f1601f836115c1565b91506112fc8261183e565b602082019050919050565b60e08201600082015161131d6000850182611395565b5060208201516113306020850182611395565b506040820151611343604085018261123a565b5060608201516113566060850182611191565b5060808201516113696080850182611191565b5060a082015161137c60a0850182611395565b5060c082015161138f60c085018261121c565b50505050565b61139e816116be565b82525050565b6113ad816116be565b82525050565b60006020820190506113c860008301846111af565b92915050565b60006060820190506113e36000830186611182565b6113f060208301856111af565b6113fd60408301846113a4565b949350505050565b600060608201905061141a60008301866111af565b61142760208301856111af565b61143460408301846113a4565b949350505050565b6000602082019050818103600083015261145681846111be565b905092915050565b6000602082019050818103600083015261147781611258565b9050919050565b600060208201905081810360008301526114978161127b565b9050919050565b600060208201905081810360008301526114b78161129e565b9050919050565b600060208201905081810360008301526114d7816112c1565b9050919050565b600060208201905081810360008301526114f7816112e4565b9050919050565b600060208201905061151360008301846113a4565b92915050565b600060e08201905061152e600083018a6113a4565b61153b60208301896113a4565b6115486040830188611249565b61155560608301876111a0565b61156260808301866111a0565b61156f60a08301856113a4565b61157c60c083018461122b565b98975050505050505050565b6000819050602082019050919050565b600081519050919050565b6000602082019050919050565b600082825260208201905092915050565b600082825260208201905092915050565b60006115dd826116be565b91506115e8836116be565b9250827fffffffffffffffffffffffffffffffffffffffffffffffffffffffffffffffff0382111561161d5761161c61176b565b5b828201905092915050565b6000611633826116be565b915061163e836116be565b9250828210156116515761165061176b565b5b828203905092915050565b60006116678261169e565b9050919050565b60006116798261169e565b9050919050565b60008115159050919050565b60006116978261165c565b9050919050565b600073ffffffffffffffffffffffffffffffffffffffff82169050919050565b6000819050919050565b60006116d3826116fe565b9050919050565b60006116e5826116ec565b9050919050565b60006116f78261169e565b9050919050565b600061170982611710565b9050919050565b600061171b8261169e565b9050919050565b600061172d826116be565b91507fffffffffffffffffffffffffffffffffffffffffffffffffffffffffffffffff8214156117605761175f61176b565b5b600182019050919050565b7f4e487b7100000000000000000000000000000000000000000000000000000000600052601160045260246000fd5b7f5072696365206d7573742062652067726561746572207468616e207a65726f00600082015250565b7f496e73756666696369656e742066756e64730000000000000000000000000000600082015250565b7f4974656d20697320616c726561647920736f6c64000000000000000000000000600082015250565b7f4974656d20646f6573206e6f7420657869737400000000000000000000000000600082015250565b7f5265656e7472616e637947756172643a207265656e7472616e742063616c6c00600082015250565b6118708161168c565b811461187b57600080fd5b50565b611887816116be565b811461189257600080fd5b5056fea264697066735822122072d69b86442298f5cbcb25e28414fa774749fb6b210592ff477a544a7e50144d64736f6c63430008010033",
  "linkReferences": {},
  "deployedLinkReferences": {}
}