{
  "_format": "hh-sol-artifact-1",
  "contractName": "Marketplace",
  "sourceName": "src/contracts/Marketplace.sol",
  "abi": [
    {
      "anonymous": false,
      "inputs": [
        {
          "indexed": true,
          "internalType": "uint256",
          "name": "id",
          "type": "uint256"
        },
        {
          "indexed": true,
          "internalType": "uint256",
          "name": "tokenId",
          "type": "uint256"
        },
        {
          "indexed": true,
          "internalType": "address",
          "name": "tokenAddress",
          "type": "address"
        },
        {
          "indexed": false,
          "internalType": "address",
          "name": "seller",
          "type": "address"
        },
        {
          "indexed": false,
          "internalType": "address",
          "name": "owner",
          "type": "address"
        },
        {
          "indexed": false,
          "internalType": "uint256",
          "name": "price",
          "type": "uint256"
        }
      ],
      "name": "marketItemCreated",
      "type": "event"
    },
    {
      "anonymous": false,
      "inputs": [
        {
          "indexed": true,
          "internalType": "uint256",
          "name": "id",
          "type": "uint256"
        },
        {
          "indexed": true,
          "internalType": "uint256",
          "name": "tokenId",
          "type": "uint256"
        },
        {
          "indexed": true,
          "internalType": "address",
          "name": "tokenAddress",
          "type": "address"
        },
        {
          "indexed": false,
          "internalType": "address",
          "name": "seller",
          "type": "address"
        },
        {
          "indexed": false,
          "internalType": "address",
          "name": "buyer",
          "type": "address"
        },
        {
          "indexed": false,
          "internalType": "uint256",
          "name": "price",
          "type": "uint256"
        }
      ],
      "name": "marketItemSold",
      "type": "event"
    },
    {
      "inputs": [
        {
          "internalType": "uint256",
          "name": "id",
          "type": "uint256"
        }
      ],
      "name": "buyMarketItem",
      "outputs": [],
      "stateMutability": "payable",
      "type": "function"
    },
    {
      "inputs": [
        {
          "internalType": "contract IERC721",
          "name": "token",
          "type": "address"
        },
        {
          "internalType": "uint256",
          "name": "tokenId",
          "type": "uint256"
        },
        {
          "internalType": "uint256",
          "name": "price",
          "type": "uint256"
        }
      ],
      "name": "createMarketItem",
      "outputs": [],
      "stateMutability": "nonpayable",
      "type": "function"
    },
    {
      "inputs": [],
      "name": "getMyOwnedNFTs",
      "outputs": [
        {
          "components": [
            {
              "internalType": "uint256",
              "name": "id",
              "type": "uint256"
            },
            {
              "internalType": "uint256",
              "name": "tokenId",
              "type": "uint256"
            },
            {
              "internalType": "contract IERC721",
              "name": "token",
              "type": "address"
            },
            {
              "internalType": "address payable",
              "name": "seller",
              "type": "address"
            },
            {
              "internalType": "address payable",
              "name": "owner",
              "type": "address"
            },
            {
              "internalType": "uint256",
              "name": "price",
              "type": "uint256"
            },
            {
              "internalType": "bool",
              "name": "sold",
              "type": "bool"
            }
          ],
          "internalType": "struct Marketplace.MarketItem[]",
          "name": "",
          "type": "tuple[]"
        }
      ],
      "stateMutability": "view",
      "type": "function"
    },
    {
      "inputs": [],
      "name": "getUnsoldMarketItems",
      "outputs": [
        {
          "components": [
            {
              "internalType": "uint256",
              "name": "id",
              "type": "uint256"
            },
            {
              "internalType": "uint256",
              "name": "tokenId",
              "type": "uint256"
            },
            {
              "internalType": "contract IERC721",
              "name": "token",
              "type": "address"
            },
            {
              "internalType": "address payable",
              "name": "seller",
              "type": "address"
            },
            {
              "internalType": "address payable",
              "name": "owner",
              "type": "address"
            },
            {
              "internalType": "uint256",
              "name": "price",
              "type": "uint256"
            },
            {
              "internalType": "bool",
              "name": "sold",
              "type": "bool"
            }
          ],
          "internalType": "struct Marketplace.MarketItem[]",
          "name": "",
          "type": "tuple[]"
        }
      ],
      "stateMutability": "view",
      "type": "function"
    },
    {
      "inputs": [],
      "name": "marketItemCount",
      "outputs": [
        {
          "internalType": "uint256",
          "name": "",
          "type": "uint256"
        }
      ],
      "stateMutability": "view",
      "type": "function"
    },
    {
      "inputs": [
        {
          "internalType": "uint256",
          "name": "",
          "type": "uint256"
        }
      ],
      "name": "marketItems",
      "outputs": [
        {
          "internalType": "uint256",
          "name": "id",
          "type": "uint256"
        },
        {
          "internalType": "uint256",
          "name": "tokenId",
          "type": "uint256"
        },
        {
          "internalType": "contract IERC721",
          "name": "token",
          "type": "address"
        },
        {
          "internalType": "address payable",
          "name": "seller",
          "type": "address"
        },
        {
          "internalType": "address payable",
          "name": "owner",
          "type": "address"
        },
        {
          "internalType": "uint256",
          "name": "price",
          "type": "uint256"
        },
        {
          "internalType": "bool",
          "name": "sold",
          "type": "bool"
        }
      ],
      "stateMutability": "view",
      "type": "function"
    },
    {
      "inputs": [],
      "name": "marketItemsSoldCount",
      "outputs": [
        {
          "internalType": "uint256",
          "name": "",
          "type": "uint256"
        }
      ],
      "stateMutability": "view",
      "type": "function"
    }
  ],
  "bytecode": "0x608060405234801561001057600080fd5b5060016000819055506119bc806100286000396000f3fe6080604052600436106100705760003560e01c806358eb2df51161004e57806358eb2df5146100ff5780635c80ca10146101285780635ce5c46c146101535780636e09dc511461017e57610070565b806311d1adeb14610075578063351901c3146100a057806351f28e14146100bc575b600080fd5b34801561008157600080fd5b5061008a6101a9565b60405161009791906115a0565b60405180910390f35b6100ba60048036038101906100b591906111bb565b6101af565b005b3480156100c857600080fd5b506100e360048036038101906100de91906111bb565b610691565b6040516100f697969594939291906115bb565b60405180910390f35b34801561010b57600080fd5b506101266004803603810190610121919061116c565b610740565b005b34801561013457600080fd5b5061013d610a62565b60405161014a91906115a0565b60405180910390f35b34801561015f57600080fd5b50610168610a68565b60405161017591906114be565b60405180910390f35b34801561018a57600080fd5b50610193610dfb565b6040516101a091906114be565b60405180910390f35b60025481565b600260005414156101f5576040517f08c379a00000000000000000000000000000000000000000000000000000000081526004016101ec90611560565b60405180910390fd5b600260008190555060008111801561020f57506001548111155b61024e576040517f08c379a000000000000000000000000000000000000000000000000000000000815260040161024590611540565b60405180910390fd5b6003600082815260200190815260200160002060060160009054906101000a900460ff16156102b2576040517f08c379a00000000000000000000000000000000000000000000000000000000081526004016102a990611520565b60405180910390fd5b600360008281526020019081526020016000206005015434101561030b576040517f08c379a000000000000000000000000000000000000000000000000000000000815260040161030290611500565b60405180910390fd5b6003600082815260200190815260200160002060030160009054906101000a900473ffffffffffffffffffffffffffffffffffffffff1673ffffffffffffffffffffffffffffffffffffffff163373ffffffffffffffffffffffffffffffffffffffff1614156103b0576040517f08c379a00000000000000000000000000000000000000000000000000000000081526004016103a790611580565b60405180910390fd5b6003600082815260200190815260200160002060030160009054906101000a900473ffffffffffffffffffffffffffffffffffffffff1673ffffffffffffffffffffffffffffffffffffffff166108fc60036000848152602001908152602001600020600501549081150290604051600060405180830381858888f19350505050158015610442573d6000803e3d6000fd5b506003600082815260200190815260200160002060020160009054906101000a900473ffffffffffffffffffffffffffffffffffffffff1673ffffffffffffffffffffffffffffffffffffffff166323b872dd303360036000868152602001908152602001600020600101546040518463ffffffff1660e01b81526004016104cc93929190611487565b600060405180830381600087803b1580156104e657600080fd5b505af11580156104fa573d6000803e3d6000fd5b50505050336003600083815260200190815260200160002060040160006101000a81548173ffffffffffffffffffffffffffffffffffffffff021916908373ffffffffffffffffffffffffffffffffffffffff16021790555060016003600083815260200190815260200160002060060160006101000a81548160ff02191690831515021790555060026000815480929190610595906117c4565b91905055506003600082815260200190815260200160002060020160009054906101000a900473ffffffffffffffffffffffffffffffffffffffff1673ffffffffffffffffffffffffffffffffffffffff166003600083815260200190815260200160002060010154827f86ae3f17f0aa372e0a2e07ac3218eba9d060b36077e75e847ba965a04151e5576003600086815260200190815260200160002060030160009054906101000a900473ffffffffffffffffffffffffffffffffffffffff1633600360008881526020019081526020016000206005015460405161067e93929190611450565b60405180910390a4600160008190555050565b60036020528060005260406000206000915090508060000154908060010154908060020160009054906101000a900473ffffffffffffffffffffffffffffffffffffffff16908060030160009054906101000a900473ffffffffffffffffffffffffffffffffffffffff16908060040160009054906101000a900473ffffffffffffffffffffffffffffffffffffffff16908060050154908060060160009054906101000a900460ff16905087565b60026000541415610786576040517f08c379a000000000000000000000000000000000000000000000000000000000815260040161077d90611560565b60405180910390fd5b6002600081905550600081116107d1576040517f08c379a00000000000000000000000000000000000000000000000000000000081526004016107c8906114e0565b60405180910390fd5b600160008154809291906107e4906117c4565b9190505550600060015490506040518060e001604052808281526020018481526020018573ffffffffffffffffffffffffffffffffffffffff1681526020013373ffffffffffffffffffffffffffffffffffffffff1681526020013373ffffffffffffffffffffffffffffffffffffffff1681526020018381526020016000151581525060036000838152602001908152602001600020600082015181600001556020820151816001015560408201518160020160006101000a81548173ffffffffffffffffffffffffffffffffffffffff021916908373ffffffffffffffffffffffffffffffffffffffff16021790555060608201518160030160006101000a81548173ffffffffffffffffffffffffffffffffffffffff021916908373ffffffffffffffffffffffffffffffffffffffff16021790555060808201518160040160006101000a81548173ffffffffffffffffffffffffffffffffffffffff021916908373ffffffffffffffffffffffffffffffffffffffff16021790555060a0820151816005015560c08201518160060160006101000a81548160ff0219169083151502179055509050508373ffffffffffffffffffffffffffffffffffffffff166323b872dd3330866040518463ffffffff1660e01b81526004016109ce93929190611487565b600060405180830381600087803b1580156109e857600080fd5b505af11580156109fc573d6000803e3d6000fd5b505050508373ffffffffffffffffffffffffffffffffffffffff1683827f356f4076415e81453227033bb613c1c0b596735e099c4b9a24c6a249a353590c333387604051610a4c93929190611487565b60405180910390a4506001600081905550505050565b60015481565b60606000600154905060008060005b83811015610b18573373ffffffffffffffffffffffffffffffffffffffff1660036000600184610aa79190611674565b815260200190815260200160002060040160009054906101000a900473ffffffffffffffffffffffffffffffffffffffff1673ffffffffffffffffffffffffffffffffffffffff161415610b0557600183610b029190611674565b92505b8080610b10906117c4565b915050610a77565b5060008267ffffffffffffffff811115610b5b577f4e487b7100000000000000000000000000000000000000000000000000000000600052604160045260246000fd5b604051908082528060200260200182016040528015610b9457816020015b610b816110c1565b815260200190600190039081610b795790505b50905060005b84811015610df0573373ffffffffffffffffffffffffffffffffffffffff1660036000600184610bca9190611674565b815260200190815260200160002060040160009054906101000a900473ffffffffffffffffffffffffffffffffffffffff1673ffffffffffffffffffffffffffffffffffffffff161415610ddd576000600182610c279190611674565b90506000600360008381526020019081526020016000209050806040518060e001604052908160008201548152602001600182015481526020016002820160009054906101000a900473ffffffffffffffffffffffffffffffffffffffff1673ffffffffffffffffffffffffffffffffffffffff1673ffffffffffffffffffffffffffffffffffffffff1681526020016003820160009054906101000a900473ffffffffffffffffffffffffffffffffffffffff1673ffffffffffffffffffffffffffffffffffffffff1673ffffffffffffffffffffffffffffffffffffffff1681526020016004820160009054906101000a900473ffffffffffffffffffffffffffffffffffffffff1673ffffffffffffffffffffffffffffffffffffffff1673ffffffffffffffffffffffffffffffffffffffff168152602001600582015481526020016006820160009054906101000a900460ff161515151581525050848681518110610dc0577f4e487b7100000000000000000000000000000000000000000000000000000000600052603260045260246000fd5b6020026020010181905250600185610dd89190611674565b945050505b8080610de8906117c4565b915050610b9a565b508094505050505090565b6060600060015490506000600254600154610e1691906116ca565b90506000808267ffffffffffffffff811115610e5b577f4e487b7100000000000000000000000000000000000000000000000000000000600052604160045260246000fd5b604051908082528060200260200182016040528015610e9457816020015b610e816110c1565b815260200190600190039081610e795790505b50905060005b848110156110b6576000151560036000600184610eb79190611674565b815260200190815260200160002060060160009054906101000a900460ff16151514156110a3576000600182610eed9190611674565b90506000600360008381526020019081526020016000209050806040518060e001604052908160008201548152602001600182015481526020016002820160009054906101000a900473ffffffffffffffffffffffffffffffffffffffff1673ffffffffffffffffffffffffffffffffffffffff1673ffffffffffffffffffffffffffffffffffffffff1681526020016003820160009054906101000a900473ffffffffffffffffffffffffffffffffffffffff1673ffffffffffffffffffffffffffffffffffffffff1673ffffffffffffffffffffffffffffffffffffffff1681526020016004820160009054906101000a900473ffffffffffffffffffffffffffffffffffffffff1673ffffffffffffffffffffffffffffffffffffffff1673ffffffffffffffffffffffffffffffffffffffff168152602001600582015481526020016006820160009054906101000a900460ff161515151581525050848681518110611086577f4e487b7100000000000000000000000000000000000000000000000000000000600052603260045260246000fd5b602002602001018190525060018561109e9190611674565b945050505b80806110ae906117c4565b915050610e9a565b508094505050505090565b6040518060e001604052806000815260200160008152602001600073ffffffffffffffffffffffffffffffffffffffff168152602001600073ffffffffffffffffffffffffffffffffffffffff168152602001600073ffffffffffffffffffffffffffffffffffffffff168152602001600081526020016000151581525090565b60008135905061115181611958565b92915050565b6000813590506111668161196f565b92915050565b60008060006060848603121561118157600080fd5b600061118f86828701611142565b93505060206111a086828701611157565b92505060406111b186828701611157565b9150509250925092565b6000602082840312156111cd57600080fd5b60006111db84828501611157565b91505092915050565b60006111f083836113a4565b60e08301905092915050565b6112058161176a565b82525050565b61121481611710565b82525050565b61122381611710565b82525050565b611232816116fe565b82525050565b60006112438261163a565b61124d8185611652565b93506112588361162a565b8060005b8381101561128957815161127088826111e4565b975061127b83611645565b92505060018101905061125c565b5085935050505092915050565b61129f81611722565b82525050565b6112ae81611722565b82525050565b6112bd8161177c565b82525050565b6112cc8161177c565b82525050565b60006112df601f83611663565b91506112ea8261183c565b602082019050919050565b6000611302601283611663565b915061130d82611865565b602082019050919050565b6000611325601483611663565b91506113308261188e565b602082019050919050565b6000611348601383611663565b9150611353826118b7565b602082019050919050565b600061136b601f83611663565b9150611376826118e0565b602082019050919050565b600061138e602e83611663565b915061139982611909565b604082019050919050565b60e0820160008201516113ba6000850182611432565b5060208201516113cd6020850182611432565b5060408201516113e060408501826112b4565b5060608201516113f3606085018261120b565b506080820151611406608085018261120b565b5060a082015161141960a0850182611432565b5060c082015161142c60c0850182611296565b50505050565b61143b81611760565b82525050565b61144a81611760565b82525050565b600060608201905061146560008301866111fc565b6114726020830185611229565b61147f6040830184611441565b949350505050565b600060608201905061149c6000830186611229565b6114a96020830185611229565b6114b66040830184611441565b949350505050565b600060208201905081810360008301526114d88184611238565b905092915050565b600060208201905081810360008301526114f9816112d2565b9050919050565b60006020820190508181036000830152611519816112f5565b9050919050565b6000602082019050818103600083015261153981611318565b9050919050565b600060208201905081810360008301526115598161133b565b9050919050565b600060208201905081810360008301526115798161135e565b9050919050565b6000602082019050818103600083015261159981611381565b9050919050565b60006020820190506115b56000830184611441565b92915050565b600060e0820190506115d0600083018a611441565b6115dd6020830189611441565b6115ea60408301886112c3565b6115f7606083018761121a565b611604608083018661121a565b61161160a0830185611441565b61161e60c08301846112a5565b98975050505050505050565b6000819050602082019050919050565b600081519050919050565b6000602082019050919050565b600082825260208201905092915050565b600082825260208201905092915050565b600061167f82611760565b915061168a83611760565b9250827fffffffffffffffffffffffffffffffffffffffffffffffffffffffffffffffff038211156116bf576116be61180d565b5b828201905092915050565b60006116d582611760565b91506116e083611760565b9250828210156116f3576116f261180d565b5b828203905092915050565b600061170982611740565b9050919050565b600061171b82611740565b9050919050565b60008115159050919050565b6000611739826116fe565b9050919050565b600073ffffffffffffffffffffffffffffffffffffffff82169050919050565b6000819050919050565b6000611775826117a0565b9050919050565b60006117878261178e565b9050919050565b600061179982611740565b9050919050565b60006117ab826117b2565b9050919050565b60006117bd82611740565b9050919050565b60006117cf82611760565b91507fffffffffffffffffffffffffffffffffffffffffffffffffffffffffffffffff8214156118025761180161180d565b5b600182019050919050565b7f4e487b7100000000000000000000000000000000000000000000000000000000600052601160045260246000fd5b7f5072696365206d7573742062652067726561746572207468616e207a65726f00600082015250565b7f496e73756666696369656e742066756e64730000000000000000000000000000600082015250565b7f4974656d20697320616c726561647920736f6c64000000000000000000000000600082015250565b7f4974656d20646f6573206e6f7420657869737400000000000000000000000000600082015250565b7f5265656e7472616e637947756172643a207265656e7472616e742063616c6c00600082015250565b7f53656c6c65722063616e6e6f74206265207468652073616d652061646472657360008201527f7320617320746865206275796572000000000000000000000000000000000000602082015250565b6119618161172e565b811461196c57600080fd5b50565b61197881611760565b811461198357600080fd5b5056fea26469706673582212201f3590166370014a90a7cc4569011582e7b9ee7e5928d747b76d82f8ef18f00a64736f6c63430008010033",
  "linkReferences": {},
  "deployedLinkReferences": {}
}