{
  "_format": "hh-sol-artifact-1",
  "contractName": "Marketplace",
  "sourceName": "src/contracts/Marketplace.sol",
  "abi": [
    {
      "anonymous": false,
      "inputs": [
        {
          "indexed": true,
          "internalType": "uint256",
          "name": "id",
          "type": "uint256"
        },
        {
          "indexed": true,
          "internalType": "uint256",
          "name": "tokenId",
          "type": "uint256"
        },
        {
          "indexed": true,
          "internalType": "address",
          "name": "tokenAddress",
          "type": "address"
        },
        {
          "indexed": false,
          "internalType": "address",
          "name": "seller",
          "type": "address"
        },
        {
          "indexed": false,
          "internalType": "address",
          "name": "owner",
          "type": "address"
        },
        {
          "indexed": false,
          "internalType": "uint256",
          "name": "price",
          "type": "uint256"
        }
      ],
      "name": "marketItemCreated",
      "type": "event"
    },
    {
      "anonymous": false,
      "inputs": [
        {
          "indexed": true,
          "internalType": "uint256",
          "name": "id",
          "type": "uint256"
        },
        {
          "indexed": true,
          "internalType": "uint256",
          "name": "tokenId",
          "type": "uint256"
        },
        {
          "indexed": true,
          "internalType": "address",
          "name": "tokenAddress",
          "type": "address"
        },
        {
          "indexed": false,
          "internalType": "address",
          "name": "seller",
          "type": "address"
        },
        {
          "indexed": false,
          "internalType": "address",
          "name": "buyer",
          "type": "address"
        },
        {
          "indexed": false,
          "internalType": "uint256",
          "name": "price",
          "type": "uint256"
        }
      ],
      "name": "marketItemSold",
      "type": "event"
    },
    {
      "inputs": [
        {
          "internalType": "uint256",
          "name": "id",
          "type": "uint256"
        }
      ],
      "name": "buyMarketItem",
      "outputs": [],
      "stateMutability": "payable",
      "type": "function"
    },
    {
      "inputs": [
        {
          "internalType": "contract IERC721",
          "name": "token",
          "type": "address"
        },
        {
          "internalType": "uint256",
          "name": "tokenId",
          "type": "uint256"
        },
        {
          "internalType": "uint256",
          "name": "price",
          "type": "uint256"
        }
      ],
      "name": "createMarketItem",
      "outputs": [],
      "stateMutability": "nonpayable",
      "type": "function"
    },
    {
      "inputs": [],
      "name": "getMyOwnedNFTs",
      "outputs": [
        {
          "components": [
            {
              "internalType": "uint256",
              "name": "id",
              "type": "uint256"
            },
            {
              "internalType": "uint256",
              "name": "tokenId",
              "type": "uint256"
            },
            {
              "internalType": "contract IERC721",
              "name": "token",
              "type": "address"
            },
            {
              "internalType": "address payable",
              "name": "seller",
              "type": "address"
            },
            {
              "internalType": "address payable",
              "name": "owner",
              "type": "address"
            },
            {
              "internalType": "uint256",
              "name": "price",
              "type": "uint256"
            },
            {
              "internalType": "bool",
              "name": "sold",
              "type": "bool"
            }
          ],
          "internalType": "struct Marketplace.MarketItem[]",
          "name": "",
          "type": "tuple[]"
        }
      ],
      "stateMutability": "view",
      "type": "function"
    },
    {
      "inputs": [],
      "name": "getUnsoldMarketItems",
      "outputs": [
        {
          "components": [
            {
              "internalType": "uint256",
              "name": "id",
              "type": "uint256"
            },
            {
              "internalType": "uint256",
              "name": "tokenId",
              "type": "uint256"
            },
            {
              "internalType": "contract IERC721",
              "name": "token",
              "type": "address"
            },
            {
              "internalType": "address payable",
              "name": "seller",
              "type": "address"
            },
            {
              "internalType": "address payable",
              "name": "owner",
              "type": "address"
            },
            {
              "internalType": "uint256",
              "name": "price",
              "type": "uint256"
            },
            {
              "internalType": "bool",
              "name": "sold",
              "type": "bool"
            }
          ],
          "internalType": "struct Marketplace.MarketItem[]",
          "name": "",
          "type": "tuple[]"
        }
      ],
      "stateMutability": "view",
      "type": "function"
    },
    {
      "inputs": [],
      "name": "marketItemCount",
      "outputs": [
        {
          "internalType": "uint256",
          "name": "",
          "type": "uint256"
        }
      ],
      "stateMutability": "view",
      "type": "function"
    },
    {
      "inputs": [
        {
          "internalType": "uint256",
          "name": "",
          "type": "uint256"
        }
      ],
      "name": "marketItems",
      "outputs": [
        {
          "internalType": "uint256",
          "name": "id",
          "type": "uint256"
        },
        {
          "internalType": "uint256",
          "name": "tokenId",
          "type": "uint256"
        },
        {
          "internalType": "contract IERC721",
          "name": "token",
          "type": "address"
        },
        {
          "internalType": "address payable",
          "name": "seller",
          "type": "address"
        },
        {
          "internalType": "address payable",
          "name": "owner",
          "type": "address"
        },
        {
          "internalType": "uint256",
          "name": "price",
          "type": "uint256"
        },
        {
          "internalType": "bool",
          "name": "sold",
          "type": "bool"
        }
      ],
      "stateMutability": "view",
      "type": "function"
    },
    {
      "inputs": [],
      "name": "marketItemsSoldCount",
      "outputs": [
        {
          "internalType": "uint256",
          "name": "",
          "type": "uint256"
        }
      ],
      "stateMutability": "view",
      "type": "function"
    }
  ],
  "bytecode": "0x608060405234801561001057600080fd5b506001600081905550611ac2806100286000396000f3fe6080604052600436106100705760003560e01c806358eb2df51161004e57806358eb2df5146100ff5780635c80ca10146101285780635ce5c46c146101535780636e09dc511461017e57610070565b806311d1adeb14610075578063351901c3146100a057806351f28e14146100bc575b600080fd5b34801561008157600080fd5b5061008a6101a9565b60405161009791906116a6565b60405180910390f35b6100ba60048036038101906100b591906112c1565b6101af565b005b3480156100c857600080fd5b506100e360048036038101906100de91906112c1565b6106e7565b6040516100f697969594939291906116c1565b60405180910390f35b34801561010b57600080fd5b5061012660048036038101906101219190611272565b610796565b005b34801561013457600080fd5b5061013d610b68565b60405161014a91906116a6565b60405180910390f35b34801561015f57600080fd5b50610168610b6e565b60405161017591906115c4565b60405180910390f35b34801561018a57600080fd5b50610193610f01565b6040516101a091906115c4565b60405180910390f35b60025481565b600260005414156101f5576040517f08c379a00000000000000000000000000000000000000000000000000000000081526004016101ec90611666565b60405180910390fd5b600260008190555060008111801561020f57506001548111155b61024e576040517f08c379a000000000000000000000000000000000000000000000000000000000815260040161024590611646565b60405180910390fd5b6003600082815260200190815260200160002060060160009054906101000a900460ff16156102b2576040517f08c379a00000000000000000000000000000000000000000000000000000000081526004016102a990611626565b60405180910390fd5b600360008281526020019081526020016000206005015434101561030b576040517f08c379a000000000000000000000000000000000000000000000000000000000815260040161030290611606565b60405180910390fd5b6003600082815260200190815260200160002060030160009054906101000a900473ffffffffffffffffffffffffffffffffffffffff1673ffffffffffffffffffffffffffffffffffffffff163373ffffffffffffffffffffffffffffffffffffffff1614156103b0576040517f08c379a00000000000000000000000000000000000000000000000000000000081526004016103a790611686565b60405180910390fd5b6003600082815260200190815260200160002060030160009054906101000a900473ffffffffffffffffffffffffffffffffffffffff1673ffffffffffffffffffffffffffffffffffffffff166108fc60036000848152602001908152602001600020600501549081150290604051600060405180830381858888f19350505050158015610442573d6000803e3d6000fd5b506003600082815260200190815260200160002060020160009054906101000a900473ffffffffffffffffffffffffffffffffffffffff1673ffffffffffffffffffffffffffffffffffffffff166323b872dd303360036000868152602001908152602001600020600101546040518463ffffffff1660e01b81526004016104cc9392919061158d565b600060405180830381600087803b1580156104e657600080fd5b505af11580156104fa573d6000803e3d6000fd5b50505050336003600083815260200190815260200160002060040160006101000a81548173ffffffffffffffffffffffffffffffffffffffff021916908373ffffffffffffffffffffffffffffffffffffffff16021790555060016003600083815260200190815260200160002060060160006101000a81548160ff02191690831515021790555060026000815480929190610595906118ca565b91905055506003600082815260200190815260200160002060020160009054906101000a900473ffffffffffffffffffffffffffffffffffffffff1673ffffffffffffffffffffffffffffffffffffffff166003600083815260200190815260200160002060010154827f86ae3f17f0aa372e0a2e07ac3218eba9d060b36077e75e847ba965a04151e5576003600086815260200190815260200160002060030160009054906101000a900473ffffffffffffffffffffffffffffffffffffffff1633600360008881526020019081526020016000206005015460405161067e93929190611556565b60405180910390a460006003600083815260200190815260200160002060030160006101000a81548173ffffffffffffffffffffffffffffffffffffffff021916908373ffffffffffffffffffffffffffffffffffffffff160217905550600160008190555050565b60036020528060005260406000206000915090508060000154908060010154908060020160009054906101000a900473ffffffffffffffffffffffffffffffffffffffff16908060030160009054906101000a900473ffffffffffffffffffffffffffffffffffffffff16908060040160009054906101000a900473ffffffffffffffffffffffffffffffffffffffff16908060050154908060060160009054906101000a900460ff16905087565b600260005414156107dc576040517f08c379a00000000000000000000000000000000000000000000000000000000081526004016107d390611666565b60405180910390fd5b600260008190555060008111610827576040517f08c379a000000000000000000000000000000000000000000000000000000000815260040161081e906115e6565b60405180910390fd5b6001600081548092919061083a906118ca565b91905055506000600154905060005b6001548110156108f3578360036000600184610865919061177a565b81526020019081526020016000206001015414156108e057600060036000600184610890919061177a565b815260200190815260200160002060040160006101000a81548173ffffffffffffffffffffffffffffffffffffffff021916908373ffffffffffffffffffffffffffffffffffffffff1602179055505b80806108eb906118ca565b915050610849565b506040518060e001604052808281526020018481526020018573ffffffffffffffffffffffffffffffffffffffff1681526020013373ffffffffffffffffffffffffffffffffffffffff168152602001600073ffffffffffffffffffffffffffffffffffffffff1681526020018381526020016000151581525060036000838152602001908152602001600020600082015181600001556020820151816001015560408201518160020160006101000a81548173ffffffffffffffffffffffffffffffffffffffff021916908373ffffffffffffffffffffffffffffffffffffffff16021790555060608201518160030160006101000a81548173ffffffffffffffffffffffffffffffffffffffff021916908373ffffffffffffffffffffffffffffffffffffffff16021790555060808201518160040160006101000a81548173ffffffffffffffffffffffffffffffffffffffff021916908373ffffffffffffffffffffffffffffffffffffffff16021790555060a0820151816005015560c08201518160060160006101000a81548160ff0219169083151502179055509050508373ffffffffffffffffffffffffffffffffffffffff166323b872dd3330866040518463ffffffff1660e01b8152600401610ad39392919061158d565b600060405180830381600087803b158015610aed57600080fd5b505af1158015610b01573d6000803e3d6000fd5b505050508373ffffffffffffffffffffffffffffffffffffffff1683827f356f4076415e81453227033bb613c1c0b596735e099c4b9a24c6a249a353590c33600087604051610b529392919061158d565b60405180910390a4506001600081905550505050565b60015481565b60606000600154905060008060005b83811015610c1e573373ffffffffffffffffffffffffffffffffffffffff1660036000600184610bad919061177a565b815260200190815260200160002060040160009054906101000a900473ffffffffffffffffffffffffffffffffffffffff1673ffffffffffffffffffffffffffffffffffffffff161415610c0b57600183610c08919061177a565b92505b8080610c16906118ca565b915050610b7d565b5060008267ffffffffffffffff811115610c61577f4e487b7100000000000000000000000000000000000000000000000000000000600052604160045260246000fd5b604051908082528060200260200182016040528015610c9a57816020015b610c876111c7565b815260200190600190039081610c7f5790505b50905060005b84811015610ef6573373ffffffffffffffffffffffffffffffffffffffff1660036000600184610cd0919061177a565b815260200190815260200160002060040160009054906101000a900473ffffffffffffffffffffffffffffffffffffffff1673ffffffffffffffffffffffffffffffffffffffff161415610ee3576000600182610d2d919061177a565b90506000600360008381526020019081526020016000209050806040518060e001604052908160008201548152602001600182015481526020016002820160009054906101000a900473ffffffffffffffffffffffffffffffffffffffff1673ffffffffffffffffffffffffffffffffffffffff1673ffffffffffffffffffffffffffffffffffffffff1681526020016003820160009054906101000a900473ffffffffffffffffffffffffffffffffffffffff1673ffffffffffffffffffffffffffffffffffffffff1673ffffffffffffffffffffffffffffffffffffffff1681526020016004820160009054906101000a900473ffffffffffffffffffffffffffffffffffffffff1673ffffffffffffffffffffffffffffffffffffffff1673ffffffffffffffffffffffffffffffffffffffff168152602001600582015481526020016006820160009054906101000a900460ff161515151581525050848681518110610ec6577f4e487b7100000000000000000000000000000000000000000000000000000000600052603260045260246000fd5b6020026020010181905250600185610ede919061177a565b945050505b8080610eee906118ca565b915050610ca0565b508094505050505090565b6060600060015490506000600254600154610f1c91906117d0565b90506000808267ffffffffffffffff811115610f61577f4e487b7100000000000000000000000000000000000000000000000000000000600052604160045260246000fd5b604051908082528060200260200182016040528015610f9a57816020015b610f876111c7565b815260200190600190039081610f7f5790505b50905060005b848110156111bc576000151560036000600184610fbd919061177a565b815260200190815260200160002060060160009054906101000a900460ff16151514156111a9576000600182610ff3919061177a565b90506000600360008381526020019081526020016000209050806040518060e001604052908160008201548152602001600182015481526020016002820160009054906101000a900473ffffffffffffffffffffffffffffffffffffffff1673ffffffffffffffffffffffffffffffffffffffff1673ffffffffffffffffffffffffffffffffffffffff1681526020016003820160009054906101000a900473ffffffffffffffffffffffffffffffffffffffff1673ffffffffffffffffffffffffffffffffffffffff1673ffffffffffffffffffffffffffffffffffffffff1681526020016004820160009054906101000a900473ffffffffffffffffffffffffffffffffffffffff1673ffffffffffffffffffffffffffffffffffffffff1673ffffffffffffffffffffffffffffffffffffffff168152602001600582015481526020016006820160009054906101000a900460ff16151515158152505084868151811061118c577f4e487b7100000000000000000000000000000000000000000000000000000000600052603260045260246000fd5b60200260200101819052506001856111a4919061177a565b945050505b80806111b4906118ca565b915050610fa0565b508094505050505090565b6040518060e001604052806000815260200160008152602001600073ffffffffffffffffffffffffffffffffffffffff168152602001600073ffffffffffffffffffffffffffffffffffffffff168152602001600073ffffffffffffffffffffffffffffffffffffffff168152602001600081526020016000151581525090565b60008135905061125781611a5e565b92915050565b60008135905061126c81611a75565b92915050565b60008060006060848603121561128757600080fd5b600061129586828701611248565b93505060206112a68682870161125d565b92505060406112b78682870161125d565b9150509250925092565b6000602082840312156112d357600080fd5b60006112e18482850161125d565b91505092915050565b60006112f683836114aa565b60e08301905092915050565b61130b81611870565b82525050565b61131a81611816565b82525050565b61132981611816565b82525050565b61133881611804565b82525050565b600061134982611740565b6113538185611758565b935061135e83611730565b8060005b8381101561138f57815161137688826112ea565b97506113818361174b565b925050600181019050611362565b5085935050505092915050565b6113a581611828565b82525050565b6113b481611828565b82525050565b6113c381611882565b82525050565b6113d281611882565b82525050565b60006113e5601f83611769565b91506113f082611942565b602082019050919050565b6000611408601283611769565b91506114138261196b565b602082019050919050565b600061142b601483611769565b915061143682611994565b602082019050919050565b600061144e601383611769565b9150611459826119bd565b602082019050919050565b6000611471601f83611769565b915061147c826119e6565b602082019050919050565b6000611494602e83611769565b915061149f82611a0f565b604082019050919050565b60e0820160008201516114c06000850182611538565b5060208201516114d36020850182611538565b5060408201516114e660408501826113ba565b5060608201516114f96060850182611311565b50608082015161150c6080850182611311565b5060a082015161151f60a0850182611538565b5060c082015161153260c085018261139c565b50505050565b61154181611866565b82525050565b61155081611866565b82525050565b600060608201905061156b6000830186611302565b611578602083018561132f565b6115856040830184611547565b949350505050565b60006060820190506115a2600083018661132f565b6115af602083018561132f565b6115bc6040830184611547565b949350505050565b600060208201905081810360008301526115de818461133e565b905092915050565b600060208201905081810360008301526115ff816113d8565b9050919050565b6000602082019050818103600083015261161f816113fb565b9050919050565b6000602082019050818103600083015261163f8161141e565b9050919050565b6000602082019050818103600083015261165f81611441565b9050919050565b6000602082019050818103600083015261167f81611464565b9050919050565b6000602082019050818103600083015261169f81611487565b9050919050565b60006020820190506116bb6000830184611547565b92915050565b600060e0820190506116d6600083018a611547565b6116e36020830189611547565b6116f060408301886113c9565b6116fd6060830187611320565b61170a6080830186611320565b61171760a0830185611547565b61172460c08301846113ab565b98975050505050505050565b6000819050602082019050919050565b600081519050919050565b6000602082019050919050565b600082825260208201905092915050565b600082825260208201905092915050565b600061178582611866565b915061179083611866565b9250827fffffffffffffffffffffffffffffffffffffffffffffffffffffffffffffffff038211156117c5576117c4611913565b5b828201905092915050565b60006117db82611866565b91506117e683611866565b9250828210156117f9576117f8611913565b5b828203905092915050565b600061180f82611846565b9050919050565b600061182182611846565b9050919050565b60008115159050919050565b600061183f82611804565b9050919050565b600073ffffffffffffffffffffffffffffffffffffffff82169050919050565b6000819050919050565b600061187b826118a6565b9050919050565b600061188d82611894565b9050919050565b600061189f82611846565b9050919050565b60006118b1826118b8565b9050919050565b60006118c382611846565b9050919050565b60006118d582611866565b91507fffffffffffffffffffffffffffffffffffffffffffffffffffffffffffffffff82141561190857611907611913565b5b600182019050919050565b7f4e487b7100000000000000000000000000000000000000000000000000000000600052601160045260246000fd5b7f5072696365206d7573742062652067726561746572207468616e207a65726f00600082015250565b7f496e73756666696369656e742066756e64730000000000000000000000000000600082015250565b7f4974656d20697320616c726561647920736f6c64000000000000000000000000600082015250565b7f4974656d20646f6573206e6f7420657869737400000000000000000000000000600082015250565b7f5265656e7472616e637947756172643a207265656e7472616e742063616c6c00600082015250565b7f53656c6c65722063616e6e6f74206265207468652073616d652061646472657360008201527f7320617320746865206275796572000000000000000000000000000000000000602082015250565b611a6781611834565b8114611a7257600080fd5b50565b611a7e81611866565b8114611a8957600080fd5b5056fea26469706673582212206ce555153d9e35b322caa3f60e79a9132949fa4a0940fc270ebcda617706fd2d64736f6c63430008010033",
  "linkReferences": {},
  "deployedLinkReferences": {}
}