{
  "_format": "hh-sol-artifact-1",
  "contractName": "Marketplace",
  "sourceName": "src/contracts/Marketplace.sol",
  "abi": [
    {
      "inputs": [
        {
          "internalType": "uint256",
          "name": "transactionFeePermillage",
          "type": "uint256"
        },
        {
          "internalType": "address",
          "name": "transactionFeeReceiverAddress",
          "type": "address"
        }
      ],
      "stateMutability": "nonpayable",
      "type": "constructor"
    },
    {
      "anonymous": false,
      "inputs": [
        {
          "indexed": true,
          "internalType": "uint256",
          "name": "id",
          "type": "uint256"
        },
        {
          "indexed": true,
          "internalType": "uint256",
          "name": "tokenId",
          "type": "uint256"
        },
        {
          "indexed": true,
          "internalType": "address",
          "name": "tokenAddress",
          "type": "address"
        },
        {
          "indexed": false,
          "internalType": "address",
          "name": "from",
          "type": "address"
        },
        {
          "indexed": false,
          "internalType": "address",
          "name": "to",
          "type": "address"
        },
        {
          "indexed": false,
          "internalType": "uint256",
          "name": "price",
          "type": "uint256"
        }
      ],
      "name": "OfferAccepted",
      "type": "event"
    },
    {
      "anonymous": false,
      "inputs": [
        {
          "indexed": true,
          "internalType": "uint256",
          "name": "id",
          "type": "uint256"
        },
        {
          "indexed": true,
          "internalType": "uint256",
          "name": "tokenId",
          "type": "uint256"
        },
        {
          "indexed": true,
          "internalType": "address",
          "name": "tokenAddress",
          "type": "address"
        },
        {
          "indexed": false,
          "internalType": "address",
          "name": "offerer",
          "type": "address"
        },
        {
          "indexed": false,
          "internalType": "uint256",
          "name": "price",
          "type": "uint256"
        }
      ],
      "name": "OfferSubmitted",
      "type": "event"
    },
    {
      "anonymous": false,
      "inputs": [
        {
          "indexed": true,
          "internalType": "uint256",
          "name": "id",
          "type": "uint256"
        },
        {
          "indexed": true,
          "internalType": "uint256",
          "name": "tokenId",
          "type": "uint256"
        },
        {
          "indexed": true,
          "internalType": "address",
          "name": "tokenAddress",
          "type": "address"
        },
        {
          "indexed": false,
          "internalType": "address",
          "name": "offerer",
          "type": "address"
        },
        {
          "indexed": false,
          "internalType": "uint256",
          "name": "price",
          "type": "uint256"
        }
      ],
      "name": "OfferWithdrawn",
      "type": "event"
    },
    {
      "anonymous": false,
      "inputs": [
        {
          "indexed": true,
          "internalType": "uint256",
          "name": "id",
          "type": "uint256"
        },
        {
          "indexed": true,
          "internalType": "uint256",
          "name": "tokenId",
          "type": "uint256"
        },
        {
          "indexed": true,
          "internalType": "address",
          "name": "tokenAddress",
          "type": "address"
        },
        {
          "indexed": false,
          "internalType": "address",
          "name": "seller",
          "type": "address"
        },
        {
          "indexed": false,
          "internalType": "address",
          "name": "owner",
          "type": "address"
        },
        {
          "indexed": false,
          "internalType": "address",
          "name": "creator",
          "type": "address"
        },
        {
          "indexed": false,
          "internalType": "uint256",
          "name": "price",
          "type": "uint256"
        },
        {
          "indexed": false,
          "internalType": "uint256",
          "name": "royaltyFeePermillage",
          "type": "uint256"
        }
      ],
      "name": "marketItemCreated",
      "type": "event"
    },
    {
      "anonymous": false,
      "inputs": [
        {
          "indexed": true,
          "internalType": "uint256",
          "name": "id",
          "type": "uint256"
        },
        {
          "indexed": true,
          "internalType": "uint256",
          "name": "tokenId",
          "type": "uint256"
        },
        {
          "indexed": true,
          "internalType": "address",
          "name": "tokenAddress",
          "type": "address"
        },
        {
          "indexed": false,
          "internalType": "address",
          "name": "seller",
          "type": "address"
        },
        {
          "indexed": false,
          "internalType": "address",
          "name": "buyer",
          "type": "address"
        },
        {
          "indexed": false,
          "internalType": "address",
          "name": "creator",
          "type": "address"
        },
        {
          "indexed": false,
          "internalType": "uint256",
          "name": "price",
          "type": "uint256"
        },
        {
          "indexed": false,
          "internalType": "uint256",
          "name": "royaltyFeePermillage",
          "type": "uint256"
        }
      ],
      "name": "marketItemSold",
      "type": "event"
    },
    {
      "inputs": [
        {
          "internalType": "uint256",
          "name": "id",
          "type": "uint256"
        },
        {
          "internalType": "bytes",
          "name": "offerer",
          "type": "bytes"
        }
      ],
      "name": "acceptOffer",
      "outputs": [],
      "stateMutability": "payable",
      "type": "function"
    },
    {
      "inputs": [
        {
          "internalType": "uint256",
          "name": "id",
          "type": "uint256"
        },
        {
          "internalType": "address",
          "name": "offerer",
          "type": "address"
        }
      ],
      "name": "addToOfferers",
      "outputs": [],
      "stateMutability": "nonpayable",
      "type": "function"
    },
    {
      "inputs": [
        {
          "internalType": "uint256",
          "name": "id",
          "type": "uint256"
        }
      ],
      "name": "buyMarketItem",
      "outputs": [],
      "stateMutability": "payable",
      "type": "function"
    },
    {
      "inputs": [
        {
          "internalType": "contract IERC721",
          "name": "token",
          "type": "address"
        },
        {
          "internalType": "uint256",
          "name": "tokenId",
          "type": "uint256"
        },
        {
          "internalType": "uint256",
          "name": "price",
          "type": "uint256"
        },
        {
          "internalType": "uint256",
          "name": "royaltyFeePermillage",
          "type": "uint256"
        }
      ],
      "name": "createMarketItem",
      "outputs": [],
      "stateMutability": "nonpayable",
      "type": "function"
    },
    {
      "inputs": [
        {
          "internalType": "address",
          "name": "accountAddress",
          "type": "address"
        }
      ],
      "name": "getAccountName",
      "outputs": [
        {
          "internalType": "string",
          "name": "",
          "type": "string"
        }
      ],
      "stateMutability": "view",
      "type": "function"
    },
    {
      "inputs": [
        {
          "internalType": "uint256",
          "name": "id",
          "type": "uint256"
        },
        {
          "internalType": "uint256",
          "name": "feePermillage",
          "type": "uint256"
        }
      ],
      "name": "getCalculatedFeeOnFixedPrice",
      "outputs": [
        {
          "internalType": "uint256",
          "name": "",
          "type": "uint256"
        }
      ],
      "stateMutability": "view",
      "type": "function"
    },
    {
      "inputs": [
        {
          "internalType": "uint256",
          "name": "id",
          "type": "uint256"
        },
        {
          "internalType": "uint256",
          "name": "price",
          "type": "uint256"
        },
        {
          "internalType": "uint256",
          "name": "feePermillage",
          "type": "uint256"
        }
      ],
      "name": "getCalculatedFeeOnOfferPrice",
      "outputs": [
        {
          "internalType": "uint256",
          "name": "",
          "type": "uint256"
        }
      ],
      "stateMutability": "view",
      "type": "function"
    },
    {
      "inputs": [
        {
          "internalType": "uint256",
          "name": "id",
          "type": "uint256"
        }
      ],
      "name": "getCalculatedTotalPrice",
      "outputs": [
        {
          "internalType": "uint256",
          "name": "",
          "type": "uint256"
        }
      ],
      "stateMutability": "view",
      "type": "function"
    },
    {
      "inputs": [
        {
          "internalType": "uint256",
          "name": "id",
          "type": "uint256"
        }
      ],
      "name": "getHighestOffer",
      "outputs": [
        {
          "components": [
            {
              "internalType": "address",
              "name": "offerer",
              "type": "address"
            },
            {
              "internalType": "uint256",
              "name": "price",
              "type": "uint256"
            }
          ],
          "internalType": "struct Marketplace.Offer",
          "name": "",
          "type": "tuple"
        }
      ],
      "stateMutability": "view",
      "type": "function"
    },
    {
      "inputs": [
        {
          "internalType": "uint256",
          "name": "id",
          "type": "uint256"
        },
        {
          "internalType": "uint256",
          "name": "index",
          "type": "uint256"
        }
      ],
      "name": "getOfferers",
      "outputs": [
        {
          "components": [
            {
              "internalType": "address",
              "name": "offerer",
              "type": "address"
            }
          ],
          "internalType": "struct Marketplace.Offerer",
          "name": "",
          "type": "tuple"
        }
      ],
      "stateMutability": "view",
      "type": "function"
    },
    {
      "inputs": [
        {
          "internalType": "uint256",
          "name": "id",
          "type": "uint256"
        },
        {
          "internalType": "address",
          "name": "offerer",
          "type": "address"
        }
      ],
      "name": "getOffers",
      "outputs": [
        {
          "components": [
            {
              "internalType": "address",
              "name": "offerer",
              "type": "address"
            },
            {
              "internalType": "uint256",
              "name": "price",
              "type": "uint256"
            }
          ],
          "internalType": "struct Marketplace.Offer",
          "name": "",
          "type": "tuple"
        }
      ],
      "stateMutability": "view",
      "type": "function"
    },
    {
      "inputs": [
        {
          "internalType": "uint256",
          "name": "id",
          "type": "uint256"
        }
      ],
      "name": "makeOffer",
      "outputs": [],
      "stateMutability": "payable",
      "type": "function"
    },
    {
      "inputs": [],
      "name": "marketItemCount",
      "outputs": [
        {
          "internalType": "uint256",
          "name": "",
          "type": "uint256"
        }
      ],
      "stateMutability": "view",
      "type": "function"
    },
    {
      "inputs": [
        {
          "internalType": "uint256",
          "name": "",
          "type": "uint256"
        }
      ],
      "name": "marketItems",
      "outputs": [
        {
          "internalType": "uint256",
          "name": "id",
          "type": "uint256"
        },
        {
          "internalType": "uint256",
          "name": "tokenId",
          "type": "uint256"
        },
        {
          "internalType": "contract IERC721",
          "name": "token",
          "type": "address"
        },
        {
          "internalType": "address payable",
          "name": "seller",
          "type": "address"
        },
        {
          "internalType": "address payable",
          "name": "owner",
          "type": "address"
        },
        {
          "internalType": "address payable",
          "name": "creator",
          "type": "address"
        },
        {
          "internalType": "uint256",
          "name": "price",
          "type": "uint256"
        },
        {
          "internalType": "uint256",
          "name": "royaltyFeePermillage",
          "type": "uint256"
        },
        {
          "internalType": "bool",
          "name": "sold",
          "type": "bool"
        }
      ],
      "stateMutability": "view",
      "type": "function"
    },
    {
      "inputs": [],
      "name": "marketItemsSoldCount",
      "outputs": [
        {
          "internalType": "uint256",
          "name": "",
          "type": "uint256"
        }
      ],
      "stateMutability": "view",
      "type": "function"
    },
    {
      "inputs": [
        {
          "internalType": "address",
          "name": "",
          "type": "address"
        },
        {
          "internalType": "address",
          "name": "from",
          "type": "address"
        },
        {
          "internalType": "uint256",
          "name": "id",
          "type": "uint256"
        },
        {
          "internalType": "bytes",
          "name": "data",
          "type": "bytes"
        }
      ],
      "name": "onERC721Received",
      "outputs": [
        {
          "internalType": "bytes4",
          "name": "",
          "type": "bytes4"
        }
      ],
      "stateMutability": "payable",
      "type": "function"
    },
    {
      "inputs": [
        {
          "internalType": "string",
          "name": "accountName",
          "type": "string"
        }
      ],
      "name": "setAccountName",
      "outputs": [],
      "stateMutability": "nonpayable",
      "type": "function"
    },
    {
      "inputs": [
        {
          "internalType": "uint256",
          "name": "id",
          "type": "uint256"
        }
      ],
      "name": "withdrawOffer",
      "outputs": [],
      "stateMutability": "payable",
      "type": "function"
    }
  ],
  "bytecode": "0x60c06040523480156200001157600080fd5b5060405162003eb738038062003eb78339818101604052810190620000379190620000b4565b60016000819055508073ffffffffffffffffffffffffffffffffffffffff1660808173ffffffffffffffffffffffffffffffffffffffff1660601b815250508160a08181525050505062000167565b600081519050620000978162000133565b92915050565b600081519050620000ae816200014d565b92915050565b60008060408385031215620000c857600080fd5b6000620000d8858286016200009d565b9250506020620000eb8582860162000086565b9150509250929050565b6000620001028262000109565b9050919050565b600073ffffffffffffffffffffffffffffffffffffffff82169050919050565b6000819050919050565b6200013e81620000f5565b81146200014a57600080fd5b50565b620001588162000129565b81146200016457600080fd5b50565b60805160601c60a051613d0b620001ac6000396000818161065b01528181610e51015281816120e501526127d6015260008181610aa901526112540152613d0b6000f3fe6080604052600436106101095760003560e01c80638c0a63a7116100955780639a2f6474116100645780639a2f647414610373578063b3f4fe661461038f578063c304ebe4146103cc578063d989c8db14610409578063e5e6cf191461044657610109565b80638c0a63a7146102a05780638f7150d0146102dd57806392212baf146102f9578063963eeae51461033657610109565b8063351901c3116100dc578063351901c3146101cf57806351f28e14146101eb578063599ba234146102305780635c80ca10146102595780638610f0451461028457610109565b806305da644a1461010e57806311d1adeb1461014b578063150b7a02146101765780632e95adad146101a6575b600080fd5b34801561011a57600080fd5b5061013560048036038101906101309190612e36565b61046f565b60405161014291906134c2565b60405180910390f35b34801561015757600080fd5b5061016061053a565b60405161016d91906134f8565b60405180910390f35b610190600480360381019061018b9190612cc0565b610540565b60405161019d9190613345565b60405180910390f35b3480156101b257600080fd5b506101cd60048036038101906101c89190612dcc565b610d73565b005b6101e960048036038101906101e49190612e0d565b610dca565b005b3480156101f757600080fd5b50610212600480360381019061020d9190612e0d565b6115b0565b60405161022799989796959493929190613513565b60405180910390f35b34801561023c57600080fd5b5061025760048036038101906102529190612d69565b61168b565b005b34801561026557600080fd5b5061026e611b22565b60405161027b91906134f8565b60405180910390f35b61029e60048036038101906102999190612e0d565b611b28565b005b3480156102ac57600080fd5b506102c760048036038101906102c29190612ec6565b611ea2565b6040516102d491906134dd565b60405180910390f35b6102f760048036038101906102f29190612e72565b611f68565b005b34801561030557600080fd5b50610320600480360381019061031b9190612f02565b6120df565b60405161032d91906134f8565b60405180910390f35b34801561034257600080fd5b5061035d60048036038101906103589190612e0d565b612154565b60405161036a91906134c2565b60405180910390f35b61038d60048036038101906103889190612e0d565b612423565b005b34801561039b57600080fd5b506103b660048036038101906103b19190612ec6565b612790565b6040516103c391906134f8565b60405180910390f35b3480156103d857600080fd5b506103f360048036038101906103ee9190612e0d565b6127ce565b60405161040091906134f8565b60405180910390f35b34801561041557600080fd5b50610430600480360381019061042b9190612c97565b612859565b60405161043d9190613360565b60405180910390f35b34801561045257600080fd5b5061046d60048036038101906104689190612e36565b61292a565b005b610477612a2d565b6004600084815260200190815260200160002060008373ffffffffffffffffffffffffffffffffffffffff1673ffffffffffffffffffffffffffffffffffffffff1681526020019081526020016000206040518060400160405290816000820160009054906101000a900473ffffffffffffffffffffffffffffffffffffffff1673ffffffffffffffffffffffffffffffffffffffff1673ffffffffffffffffffffffffffffffffffffffff168152602001600182015481525050905092915050565b60025481565b60008061059084848080601f016020809104026020016040519081016040528093929190818152602001838380828437600081840152601f19601f820116905080830192505050505050506129d4565b905060006004600087815260200190815260200160002060008373ffffffffffffffffffffffffffffffffffffffff1673ffffffffffffffffffffffffffffffffffffffff1681526020019081526020016000206001015490506000811161062d576040517f08c379a000000000000000000000000000000000000000000000000000000000815260040161062490613402565b60405180910390fd5b60006106508783600360008b8152602001908152602001600020600701546120df565b9050600061067f88847f00000000000000000000000000000000000000000000000000000000000000006120df565b905060008183856106909190613740565b61069a9190613740565b9050600460008a815260200190815260200160002060008673ffffffffffffffffffffffffffffffffffffffff1673ffffffffffffffffffffffffffffffffffffffff168152602001908152602001600020600080820160006101000a81549073ffffffffffffffffffffffffffffffffffffffff02191690556001820160009055505060005b600560008b81526020019081526020016000208054905081101561087e578573ffffffffffffffffffffffffffffffffffffffff16600560008c815260200190815260200160002082815481106107a1577f4e487b7100000000000000000000000000000000000000000000000000000000600052603260045260246000fd5b9060005260206000200160000160009054906101000a900473ffffffffffffffffffffffffffffffffffffffff1673ffffffffffffffffffffffffffffffffffffffff16141561086b57600560008b81526020019081526020016000208181548110610836577f4e487b7100000000000000000000000000000000000000000000000000000000600052603260045260246000fd5b90600052602060002001600080820160006101000a81549073ffffffffffffffffffffffffffffffffffffffff021916905550505b80806108769061390b565b915050610721565b50600360008a815260200190815260200160002060050160009054906101000a900473ffffffffffffffffffffffffffffffffffffffff1673ffffffffffffffffffffffffffffffffffffffff16600360008b815260200190815260200160002060030160009054906101000a900473ffffffffffffffffffffffffffffffffffffffff1673ffffffffffffffffffffffffffffffffffffffff1614156109ac57600360008a815260200190815260200160002060030160009054906101000a900473ffffffffffffffffffffffffffffffffffffffff1673ffffffffffffffffffffffffffffffffffffffff166108fc838661097b9190613740565b9081150290604051600060405180830381858888f193505050501580156109a6573d6000803e3d6000fd5b50610aa7565b600360008a815260200190815260200160002060030160009054906101000a900473ffffffffffffffffffffffffffffffffffffffff1673ffffffffffffffffffffffffffffffffffffffff166108fc829081150290604051600060405180830381858888f19350505050158015610a28573d6000803e3d6000fd5b50600360008a815260200190815260200160002060050160009054906101000a900473ffffffffffffffffffffffffffffffffffffffff1673ffffffffffffffffffffffffffffffffffffffff166108fc849081150290604051600060405180830381858888f19350505050158015610aa5573d6000803e3d6000fd5b505b7f000000000000000000000000000000000000000000000000000000000000000073ffffffffffffffffffffffffffffffffffffffff166108fc839081150290604051600060405180830381858888f19350505050158015610b0d573d6000803e3d6000fd5b5084600360008b815260200190815260200160002060040160006101000a81548173ffffffffffffffffffffffffffffffffffffffff021916908373ffffffffffffffffffffffffffffffffffffffff1602179055506001600360008b815260200190815260200160002060080160006101000a81548160ff02191690831515021790555060026000815480929190610ba59061390b565b9190505550600360008a815260200190815260200160002060020160009054906101000a900473ffffffffffffffffffffffffffffffffffffffff1673ffffffffffffffffffffffffffffffffffffffff166323b872dd3087600360008e8152602001908152602001600020600101546040518463ffffffff1660e01b8152600401610c3393929190613299565b600060405180830381600087803b158015610c4d57600080fd5b505af1158015610c61573d6000803e3d6000fd5b50505050600360008a815260200190815260200160002060020160009054906101000a900473ffffffffffffffffffffffffffffffffffffffff1673ffffffffffffffffffffffffffffffffffffffff16600360008b8152602001908152602001600020600101548a7f7f793a503035bdb743bfd2eb8a6033f2a163e2df4ff59593081e227561870fe58d8989604051610cfd93929190613299565b60405180910390a46000600360008b815260200190815260200160002060030160006101000a81548173ffffffffffffffffffffffffffffffffffffffff021916908373ffffffffffffffffffffffffffffffffffffffff16021790555063150b7a0260e01b9550505050505095945050505050565b80600660003373ffffffffffffffffffffffffffffffffffffffff1673ffffffffffffffffffffffffffffffffffffffff1681526020019081526020016000209080519060200190610dc6929190612a5d565b5050565b60026000541415610e10576040517f08c379a0000000000000000000000000000000000000000000000000000000008152600401610e0790613482565b60405180910390fd5b60026000819055506000610e23826127ce565b90506000610e47836003600086815260200190815260200160002060070154612790565b90506000610e75847f0000000000000000000000000000000000000000000000000000000000000000612790565b9050600084118015610e8957506001548411155b610ec8576040517f08c379a0000000000000000000000000000000000000000000000000000000008152600401610ebf90613462565b60405180910390fd5b6003600085815260200190815260200160002060080160009054906101000a900460ff1615610f2c576040517f08c379a0000000000000000000000000000000000000000000000000000000008152600401610f2390613442565b60405180910390fd5b82341015610f6f576040517f08c379a0000000000000000000000000000000000000000000000000000000008152600401610f6690613422565b60405180910390fd5b6003600085815260200190815260200160002060030160009054906101000a900473ffffffffffffffffffffffffffffffffffffffff1673ffffffffffffffffffffffffffffffffffffffff163373ffffffffffffffffffffffffffffffffffffffff161415611014576040517f08c379a000000000000000000000000000000000000000000000000000000000815260040161100b906134a2565b60405180910390fd5b6003600085815260200190815260200160002060050160009054906101000a900473ffffffffffffffffffffffffffffffffffffffff1673ffffffffffffffffffffffffffffffffffffffff166003600086815260200190815260200160002060030160009054906101000a900473ffffffffffffffffffffffffffffffffffffffff1673ffffffffffffffffffffffffffffffffffffffff161415611141576003600085815260200190815260200160002060030160009054906101000a900473ffffffffffffffffffffffffffffffffffffffff1673ffffffffffffffffffffffffffffffffffffffff166108fc82856111109190613740565b9081150290604051600060405180830381858888f1935050505015801561113b573d6000803e3d6000fd5b50611252565b6003600085815260200190815260200160002060030160009054906101000a900473ffffffffffffffffffffffffffffffffffffffff1673ffffffffffffffffffffffffffffffffffffffff166108fc60036000878152602001908152602001600020600601549081150290604051600060405180830381858888f193505050501580156111d3573d6000803e3d6000fd5b506003600085815260200190815260200160002060050160009054906101000a900473ffffffffffffffffffffffffffffffffffffffff1673ffffffffffffffffffffffffffffffffffffffff166108fc839081150290604051600060405180830381858888f19350505050158015611250573d6000803e3d6000fd5b505b7f000000000000000000000000000000000000000000000000000000000000000073ffffffffffffffffffffffffffffffffffffffff166108fc829081150290604051600060405180830381858888f193505050501580156112b8573d6000803e3d6000fd5b506003600085815260200190815260200160002060020160009054906101000a900473ffffffffffffffffffffffffffffffffffffffff1673ffffffffffffffffffffffffffffffffffffffff166323b872dd303360036000898152602001908152602001600020600101546040518463ffffffff1660e01b815260040161134293929190613299565b600060405180830381600087803b15801561135c57600080fd5b505af1158015611370573d6000803e3d6000fd5b50505050336003600086815260200190815260200160002060040160006101000a81548173ffffffffffffffffffffffffffffffffffffffff021916908373ffffffffffffffffffffffffffffffffffffffff16021790555060016003600086815260200190815260200160002060080160006101000a81548160ff0219169083151502179055506002600081548092919061140b9061390b565b91905055506003600085815260200190815260200160002060020160009054906101000a900473ffffffffffffffffffffffffffffffffffffffff1673ffffffffffffffffffffffffffffffffffffffff166003600086815260200190815260200160002060010154857fe99857a026e5c5ccbfdaf5ba02883099a153a11f3c1fe306b89fc81241ce83246003600089815260200190815260200160002060030160009054906101000a900473ffffffffffffffffffffffffffffffffffffffff1633600360008b815260200190815260200160002060050160009054906101000a900473ffffffffffffffffffffffffffffffffffffffff16600360008c815260200190815260200160002060060154600360008d8152602001908152602001600020600701546040516115449594939291906131f3565b60405180910390a460006003600086815260200190815260200160002060030160006101000a81548173ffffffffffffffffffffffffffffffffffffffff021916908373ffffffffffffffffffffffffffffffffffffffff160217905550505050600160008190555050565b60036020528060005260406000206000915090508060000154908060010154908060020160009054906101000a900473ffffffffffffffffffffffffffffffffffffffff16908060030160009054906101000a900473ffffffffffffffffffffffffffffffffffffffff16908060040160009054906101000a900473ffffffffffffffffffffffffffffffffffffffff16908060050160009054906101000a900473ffffffffffffffffffffffffffffffffffffffff16908060060154908060070154908060080160009054906101000a900460ff16905089565b600260005414156116d1576040517f08c379a00000000000000000000000000000000000000000000000000000000081526004016116c890613482565b60405180910390fd5b60026000819055506000821161171c576040517f08c379a0000000000000000000000000000000000000000000000000000000008152600401611713906133a2565b60405180910390fd5b6001600081548092919061172f9061390b565b919050555060006001549050600033905060005b60015481101561183257856003600060018461175f919061365f565b815260200190815260200160002060010154141561181f5760006003600060018461178a919061365f565b815260200190815260200160002060040160006101000a81548173ffffffffffffffffffffffffffffffffffffffff021916908373ffffffffffffffffffffffffffffffffffffffff160217905550600360006001836117ea919061365f565b815260200190815260200160002060050160009054906101000a900473ffffffffffffffffffffffffffffffffffffffff1691505b808061182a9061390b565b915050611743565b506040518061012001604052808381526020018681526020018773ffffffffffffffffffffffffffffffffffffffff1681526020013373ffffffffffffffffffffffffffffffffffffffff168152602001600073ffffffffffffffffffffffffffffffffffffffff1681526020018273ffffffffffffffffffffffffffffffffffffffff1681526020018581526020018481526020016000151581525060036000848152602001908152602001600020600082015181600001556020820151816001015560408201518160020160006101000a81548173ffffffffffffffffffffffffffffffffffffffff021916908373ffffffffffffffffffffffffffffffffffffffff16021790555060608201518160030160006101000a81548173ffffffffffffffffffffffffffffffffffffffff021916908373ffffffffffffffffffffffffffffffffffffffff16021790555060808201518160040160006101000a81548173ffffffffffffffffffffffffffffffffffffffff021916908373ffffffffffffffffffffffffffffffffffffffff16021790555060a08201518160050160006101000a81548173ffffffffffffffffffffffffffffffffffffffff021916908373ffffffffffffffffffffffffffffffffffffffff16021790555060c0820151816006015560e082015181600701556101008201518160080160006101000a81548160ff0219169083151502179055509050508573ffffffffffffffffffffffffffffffffffffffff166323b872dd3330886040518463ffffffff1660e01b8152600401611a8793929190613299565b600060405180830381600087803b158015611aa157600080fd5b505af1158015611ab5573d6000803e3d6000fd5b505050508573ffffffffffffffffffffffffffffffffffffffff1685837fe7d9f298f45a30b9f82251173ac573d557b5b59bdb10d57697d5e7d7841256ff336000868a8a604051611b0a959493929190613246565b60405180910390a45050600160008190555050505050565b60015481565b60026000541415611b6e576040517f08c379a0000000000000000000000000000000000000000000000000000000008152600401611b6590613482565b60405180910390fd5b600260008190555060006004600083815260200190815260200160002060003373ffffffffffffffffffffffffffffffffffffffff1673ffffffffffffffffffffffffffffffffffffffff1681526020019081526020016000206001015490506004600083815260200190815260200160002060003373ffffffffffffffffffffffffffffffffffffffff1673ffffffffffffffffffffffffffffffffffffffff168152602001908152602001600020600080820160006101000a81549073ffffffffffffffffffffffffffffffffffffffff02191690556001820160009055505060005b6005600084815260200190815260200160002080549050811015611db0573373ffffffffffffffffffffffffffffffffffffffff16600560008581526020019081526020016000208281548110611cd3577f4e487b7100000000000000000000000000000000000000000000000000000000600052603260045260246000fd5b9060005260206000200160000160009054906101000a900473ffffffffffffffffffffffffffffffffffffffff1673ffffffffffffffffffffffffffffffffffffffff161415611d9d57600560008481526020019081526020016000208181548110611d68577f4e487b7100000000000000000000000000000000000000000000000000000000600052603260045260246000fd5b90600052602060002001600080820160006101000a81549073ffffffffffffffffffffffffffffffffffffffff021916905550505b8080611da89061390b565b915050611c53565b503373ffffffffffffffffffffffffffffffffffffffff166108fc829081150290604051600060405180830381858888f19350505050158015611df7573d6000803e3d6000fd5b506003600083815260200190815260200160002060020160009054906101000a900473ffffffffffffffffffffffffffffffffffffffff1673ffffffffffffffffffffffffffffffffffffffff166003600084815260200190815260200160002060010154837fe2e9a6903e65417bc0ff3f86dda997517885aae38917a3ef1a36e7e5d5fc20263385604051611e8e92919061331c565b60405180910390a450600160008190555050565b611eaa612ae3565b600560008481526020019081526020016000208281548110611ef5577f4e487b7100000000000000000000000000000000000000000000000000000000600052603260045260246000fd5b906000526020600020016040518060200160405290816000820160009054906101000a900473ffffffffffffffffffffffffffffffffffffffff1673ffffffffffffffffffffffffffffffffffffffff1673ffffffffffffffffffffffffffffffffffffffff1681525050905092915050565b60026000541415611fae576040517f08c379a0000000000000000000000000000000000000000000000000000000008152600401611fa590613482565b60405180910390fd5b600260008190555060003073ffffffffffffffffffffffffffffffffffffffff1663150b7a02333086866040518563ffffffff1660e01b8152600401611ff794939291906132d0565b602060405180830381600087803b15801561201157600080fd5b505af1158015612025573d6000803e3d6000fd5b505050506040513d601f19601f820116820180604052508101906120499190612d40565b905063150b7a0260e01b7bffffffffffffffffffffffffffffffffffffffffffffffffffffffff1916817bffffffffffffffffffffffffffffffffffffffffffffffffffffffff1916146120d2576040517f08c379a00000000000000000000000000000000000000000000000000000000081526004016120c9906133c2565b60405180910390fd5b5060016000819055505050565b600080827f000000000000000000000000000000000000000000000000000000000000000060036000888152602001908152602001600020600701546103e8612128919061365f565b612132919061365f565b8561213d91906136b5565b61214791906136e6565b9050809150509392505050565b61215c612a2d565b60008060005b600560008681526020019081526020016000208054905081101561235e5760006004600087815260200190815260200160002060006005600089815260200190815260200160002084815481106121e2577f4e487b7100000000000000000000000000000000000000000000000000000000600052603260045260246000fd5b9060005260206000200160000160009054906101000a900473ffffffffffffffffffffffffffffffffffffffff1673ffffffffffffffffffffffffffffffffffffffff1673ffffffffffffffffffffffffffffffffffffffff1681526020019081526020016000206001015490508381111561234a578093506004600087815260200190815260200160002060006005600089815260200190815260200160002084815481106122bb577f4e487b7100000000000000000000000000000000000000000000000000000000600052603260045260246000fd5b9060005260206000200160000160009054906101000a900473ffffffffffffffffffffffffffffffffffffffff1673ffffffffffffffffffffffffffffffffffffffff1673ffffffffffffffffffffffffffffffffffffffff16815260200190815260200160002060000160009054906101000a900473ffffffffffffffffffffffffffffffffffffffff1692505b5080806123569061390b565b915050612162565b506004600085815260200190815260200160002060008273ffffffffffffffffffffffffffffffffffffffff1673ffffffffffffffffffffffffffffffffffffffff1681526020019081526020016000206040518060400160405290816000820160009054906101000a900473ffffffffffffffffffffffffffffffffffffffff1673ffffffffffffffffffffffffffffffffffffffff1673ffffffffffffffffffffffffffffffffffffffff16815260200160018201548152505092505050919050565b60026000541415612469576040517f08c379a000000000000000000000000000000000000000000000000000000000815260040161246090613482565b60405180910390fd5b600260008190555060008111801561248357506001548111155b6124c2576040517f08c379a00000000000000000000000000000000000000000000000000000000081526004016124b990613462565b60405180910390fd5b6003600082815260200190815260200160002060080160009054906101000a900460ff1615612526576040517f08c379a000000000000000000000000000000000000000000000000000000000815260040161251d90613442565b60405180910390fd5b6003600082815260200190815260200160002060030160009054906101000a900473ffffffffffffffffffffffffffffffffffffffff1673ffffffffffffffffffffffffffffffffffffffff163373ffffffffffffffffffffffffffffffffffffffff1614156125cb576040517f08c379a00000000000000000000000000000000000000000000000000000000081526004016125c290613382565b60405180910390fd5b6000341161260e576040517f08c379a000000000000000000000000000000000000000000000000000000000815260040161260590613402565b60405180910390fd5b60405180604001604052803373ffffffffffffffffffffffffffffffffffffffff168152602001348152506004600083815260200190815260200160002060003373ffffffffffffffffffffffffffffffffffffffff1673ffffffffffffffffffffffffffffffffffffffff16815260200190815260200160002060008201518160000160006101000a81548173ffffffffffffffffffffffffffffffffffffffff021916908373ffffffffffffffffffffffffffffffffffffffff160217905550602082015181600101559050506126e7813361292a565b6003600082815260200190815260200160002060020160009054906101000a900473ffffffffffffffffffffffffffffffffffffffff1673ffffffffffffffffffffffffffffffffffffffff166003600083815260200190815260200160002060010154827fe2dd28397a48f4aaa10e52efda998bd7264438c9c483088ef29bb74498bd2aeb333460405161277d92919061331c565b60405180910390a4600160008190555050565b600080826103e860036000878152602001908152602001600020600601546127b891906136b5565b6127c291906136e6565b90508091505092915050565b6000806103e87f000000000000000000000000000000000000000000000000000000000000000060036000868152602001908152602001600020600701546103e8612819919061365f565b612823919061365f565b600360008681526020019081526020016000206006015461284491906136e6565b61284e91906136b5565b905080915050919050565b6060600660008373ffffffffffffffffffffffffffffffffffffffff1673ffffffffffffffffffffffffffffffffffffffff16815260200190815260200160002080546128a5906138a8565b80601f01602080910402602001604051908101604052809291908181526020018280546128d1906138a8565b801561291e5780601f106128f35761010080835404028352916020019161291e565b820191906000526020600020905b81548152906001019060200180831161290157829003601f168201915b50505050509050919050565b6005600083815260200190815260200160002060405180602001604052808373ffffffffffffffffffffffffffffffffffffffff168152509080600181540180825580915050600190039060005260206000200160009091909190915060008201518160000160006101000a81548173ffffffffffffffffffffffffffffffffffffffff021916908373ffffffffffffffffffffffffffffffffffffffff16021790555050505050565b6000601482511015612a1b576040517f08c379a0000000000000000000000000000000000000000000000000000000008152600401612a12906133e2565b60405180910390fd5b60006014830151905080915050919050565b6040518060400160405280600073ffffffffffffffffffffffffffffffffffffffff168152602001600081525090565b828054612a69906138a8565b90600052602060002090601f016020900481019282612a8b5760008555612ad2565b82601f10612aa457805160ff1916838001178555612ad2565b82800160010185558215612ad2579182015b82811115612ad1578251825591602001919060010190612ab6565b5b509050612adf9190612b0c565b5090565b6040518060200160405280600073ffffffffffffffffffffffffffffffffffffffff1681525090565b5b80821115612b25576000816000905550600101612b0d565b5090565b6000612b3c612b37846135c5565b6135a0565b905082815260208101848484011115612b5457600080fd5b612b5f848285613866565b509392505050565b6000612b7a612b75846135f6565b6135a0565b905082815260208101848484011115612b9257600080fd5b612b9d848285613866565b509392505050565b600081359050612bb481613c79565b92915050565b600081519050612bc981613c90565b92915050565b60008083601f840112612be157600080fd5b8235905067ffffffffffffffff811115612bfa57600080fd5b602083019150836001820283011115612c1257600080fd5b9250929050565b600082601f830112612c2a57600080fd5b8135612c3a848260208601612b29565b91505092915050565b600081359050612c5281613ca7565b92915050565b600082601f830112612c6957600080fd5b8135612c79848260208601612b67565b91505092915050565b600081359050612c9181613cbe565b92915050565b600060208284031215612ca957600080fd5b6000612cb784828501612ba5565b91505092915050565b600080600080600060808688031215612cd857600080fd5b6000612ce688828901612ba5565b9550506020612cf788828901612ba5565b9450506040612d0888828901612c82565b935050606086013567ffffffffffffffff811115612d2557600080fd5b612d3188828901612bcf565b92509250509295509295909350565b600060208284031215612d5257600080fd5b6000612d6084828501612bba565b91505092915050565b60008060008060808587031215612d7f57600080fd5b6000612d8d87828801612c43565b9450506020612d9e87828801612c82565b9350506040612daf87828801612c82565b9250506060612dc087828801612c82565b91505092959194509250565b600060208284031215612dde57600080fd5b600082013567ffffffffffffffff811115612df857600080fd5b612e0484828501612c58565b91505092915050565b600060208284031215612e1f57600080fd5b6000612e2d84828501612c82565b91505092915050565b60008060408385031215612e4957600080fd5b6000612e5785828601612c82565b9250506020612e6885828601612ba5565b9150509250929050565b60008060408385031215612e8557600080fd5b6000612e9385828601612c82565b925050602083013567ffffffffffffffff811115612eb057600080fd5b612ebc85828601612c19565b9150509250929050565b60008060408385031215612ed957600080fd5b6000612ee785828601612c82565b9250506020612ef885828601612c82565b9150509250929050565b600080600060608486031215612f1757600080fd5b6000612f2586828701612c82565b9350506020612f3686828701612c82565b9250506040612f4786828701612c82565b9150509250925092565b612f5a8161380c565b82525050565b612f6981613786565b82525050565b612f7881613774565b82525050565b612f8781613774565b82525050565b612f9681613798565b82525050565b612fa5816137a4565b82525050565b6000612fb682613627565b612fc0818561363d565b9350612fd0818560208601613875565b612fd981613a10565b840191505092915050565b612fed8161381e565b82525050565b6000612ffe82613632565b613008818561364e565b9350613018818560208601613875565b61302181613a10565b840191505092915050565b600061303960308361364e565b915061304482613a21565b604082019050919050565b600061305c601f8361364e565b915061306782613a70565b602082019050919050565b600061307f60328361364e565b915061308a82613a99565b604082019050919050565b60006130a260148361364e565b91506130ad82613ae8565b602082019050919050565b60006130c560218361364e565b91506130d082613b11565b604082019050919050565b60006130e860408361364e565b91506130f382613b60565b604082019050919050565b600061310b60148361364e565b915061311682613baf565b602082019050919050565b600061312e60138361364e565b915061313982613bd8565b602082019050919050565b6000613151601f8361364e565b915061315c82613c01565b602082019050919050565b6000613174602e8361364e565b915061317f82613c2a565b604082019050919050565b6040820160008201516131a06000850182612f6f565b5060208201516131b360208501826131d5565b50505050565b6020820160008201516131cf6000850182612f6f565b50505050565b6131de81613802565b82525050565b6131ed81613802565b82525050565b600060a0820190506132086000830188612f51565b6132156020830187612f7e565b6132226040830186612f51565b61322f60608301856131e4565b61323c60808301846131e4565b9695505050505050565b600060a08201905061325b6000830188612f7e565b6132686020830187612f7e565b6132756040830186612f51565b61328260608301856131e4565b61328f60808301846131e4565b9695505050505050565b60006060820190506132ae6000830186612f7e565b6132bb6020830185612f7e565b6132c860408301846131e4565b949350505050565b60006080820190506132e56000830187612f7e565b6132f26020830186612f7e565b6132ff60408301856131e4565b81810360608301526133118184612fab565b905095945050505050565b60006040820190506133316000830185612f7e565b61333e60208301846131e4565b9392505050565b600060208201905061335a6000830184612f9c565b92915050565b6000602082019050818103600083015261337a8184612ff3565b905092915050565b6000602082019050818103600083015261339b8161302c565b9050919050565b600060208201905081810360008301526133bb8161304f565b9050919050565b600060208201905081810360008301526133db81613072565b9050919050565b600060208201905081810360008301526133fb81613095565b9050919050565b6000602082019050818103600083015261341b816130b8565b9050919050565b6000602082019050818103600083015261343b816130db565b9050919050565b6000602082019050818103600083015261345b816130fe565b9050919050565b6000602082019050818103600083015261347b81613121565b9050919050565b6000602082019050818103600083015261349b81613144565b9050919050565b600060208201905081810360008301526134bb81613167565b9050919050565b60006040820190506134d7600083018461318a565b92915050565b60006020820190506134f260008301846131b9565b92915050565b600060208201905061350d60008301846131e4565b92915050565b600061012082019050613529600083018c6131e4565b613536602083018b6131e4565b613543604083018a612fe4565b6135506060830189612f60565b61355d6080830188612f60565b61356a60a0830187612f60565b61357760c08301866131e4565b61358460e08301856131e4565b613592610100830184612f8d565b9a9950505050505050505050565b60006135aa6135bb565b90506135b682826138da565b919050565b6000604051905090565b600067ffffffffffffffff8211156135e0576135df6139e1565b5b6135e982613a10565b9050602081019050919050565b600067ffffffffffffffff821115613611576136106139e1565b5b61361a82613a10565b9050602081019050919050565b600081519050919050565b600081519050919050565b600082825260208201905092915050565b600082825260208201905092915050565b600061366a82613802565b915061367583613802565b9250827fffffffffffffffffffffffffffffffffffffffffffffffffffffffffffffffff038211156136aa576136a9613954565b5b828201905092915050565b60006136c082613802565b91506136cb83613802565b9250826136db576136da613983565b5b828204905092915050565b60006136f182613802565b91506136fc83613802565b9250817fffffffffffffffffffffffffffffffffffffffffffffffffffffffffffffffff048311821515161561373557613734613954565b5b828202905092915050565b600061374b82613802565b915061375683613802565b92508282101561376957613768613954565b5b828203905092915050565b600061377f826137e2565b9050919050565b6000613791826137e2565b9050919050565b60008115159050919050565b60007fffffffff0000000000000000000000000000000000000000000000000000000082169050919050565b60006137db82613774565b9050919050565b600073ffffffffffffffffffffffffffffffffffffffff82169050919050565b6000819050919050565b600061381782613842565b9050919050565b600061382982613830565b9050919050565b600061383b826137e2565b9050919050565b600061384d82613854565b9050919050565b600061385f826137e2565b9050919050565b82818337600083830152505050565b60005b83811015613893578082015181840152602081019050613878565b838111156138a2576000848401525b50505050565b600060028204905060018216806138c057607f821691505b602082108114156138d4576138d36139b2565b5b50919050565b6138e382613a10565b810181811067ffffffffffffffff82111715613902576139016139e1565b5b80604052505050565b600061391682613802565b91507fffffffffffffffffffffffffffffffffffffffffffffffffffffffffffffffff82141561394957613948613954565b5b600182019050919050565b7f4e487b7100000000000000000000000000000000000000000000000000000000600052601160045260246000fd5b7f4e487b7100000000000000000000000000000000000000000000000000000000600052601260045260246000fd5b7f4e487b7100000000000000000000000000000000000000000000000000000000600052602260045260246000fd5b7f4e487b7100000000000000000000000000000000000000000000000000000000600052604160045260246000fd5b6000601f19601f8301169050919050565b7f53656c6c65722063616e6e6f74206265207468652073616d652061646472657360008201527f7320617320746865206f66666572657200000000000000000000000000000000602082015250565b7f5072696365206d7573742062652067726561746572207468616e207a65726f00600082015250565b7f4552433732313a207472616e7366657220746f206e6f6e20455243373231526560008201527f63656976657220696d706c656d656e7465720000000000000000000000000000602082015250565b7f736c6963696e67206f7574206f662072616e6765000000000000000000000000600082015250565b7f4f6666657220696e76616c69642c206d7573742062652061626f7665207a657260008201527f6f00000000000000000000000000000000000000000000000000000000000000602082015250565b7f496e73756666696369656e742066756e647320746f20636f766572207072696360008201527f652c20726f79616c747920666565202b207472616e73616374696f6e20666565602082015250565b7f4974656d20697320616c726561647920736f6c64000000000000000000000000600082015250565b7f4974656d20646f6573206e6f7420657869737400000000000000000000000000600082015250565b7f5265656e7472616e637947756172643a207265656e7472616e742063616c6c00600082015250565b7f53656c6c65722063616e6e6f74206265207468652073616d652061646472657360008201527f7320617320746865206275796572000000000000000000000000000000000000602082015250565b613c8281613774565b8114613c8d57600080fd5b50565b613c99816137a4565b8114613ca457600080fd5b50565b613cb0816137d0565b8114613cbb57600080fd5b50565b613cc781613802565b8114613cd257600080fd5b5056fea2646970667358221220ab95887240e35c77d65fdc9bcf756e89a948b9669552437695e88f6b35830e3564736f6c63430008010033",
  "linkReferences": {},
  "deployedLinkReferences": {}
}