{
  "_format": "hh-sol-artifact-1",
  "contractName": "Marketplace",
  "sourceName": "src/contracts/Marketplace.sol",
  "abi": [
    {
      "anonymous": false,
      "inputs": [
        {
          "indexed": true,
          "internalType": "uint256",
          "name": "id",
          "type": "uint256"
        },
        {
          "indexed": true,
          "internalType": "uint256",
          "name": "tokenId",
          "type": "uint256"
        },
        {
          "indexed": true,
          "internalType": "address",
          "name": "tokenAddress",
          "type": "address"
        },
        {
          "indexed": false,
          "internalType": "address",
          "name": "seller",
          "type": "address"
        },
        {
          "indexed": false,
          "internalType": "address",
          "name": "owner",
          "type": "address"
        },
        {
          "indexed": false,
          "internalType": "address",
          "name": "creator",
          "type": "address"
        },
        {
          "indexed": false,
          "internalType": "uint256",
          "name": "price",
          "type": "uint256"
        },
        {
          "indexed": false,
          "internalType": "uint256",
          "name": "royaltyFeePermillage",
          "type": "uint256"
        }
      ],
      "name": "marketItemCreated",
      "type": "event"
    },
    {
      "anonymous": false,
      "inputs": [
        {
          "indexed": true,
          "internalType": "uint256",
          "name": "id",
          "type": "uint256"
        },
        {
          "indexed": true,
          "internalType": "uint256",
          "name": "tokenId",
          "type": "uint256"
        },
        {
          "indexed": true,
          "internalType": "address",
          "name": "tokenAddress",
          "type": "address"
        },
        {
          "indexed": false,
          "internalType": "address",
          "name": "seller",
          "type": "address"
        },
        {
          "indexed": false,
          "internalType": "address",
          "name": "buyer",
          "type": "address"
        },
        {
          "indexed": false,
          "internalType": "address",
          "name": "creator",
          "type": "address"
        },
        {
          "indexed": false,
          "internalType": "uint256",
          "name": "price",
          "type": "uint256"
        },
        {
          "indexed": false,
          "internalType": "uint256",
          "name": "royaltyFeePermillage",
          "type": "uint256"
        }
      ],
      "name": "marketItemSold",
      "type": "event"
    },
    {
      "inputs": [
        {
          "internalType": "uint256",
          "name": "id",
          "type": "uint256"
        }
      ],
      "name": "buyMarketItem",
      "outputs": [],
      "stateMutability": "payable",
      "type": "function"
    },
    {
      "inputs": [
        {
          "internalType": "contract IERC721",
          "name": "token",
          "type": "address"
        },
        {
          "internalType": "uint256",
          "name": "tokenId",
          "type": "uint256"
        },
        {
          "internalType": "uint256",
          "name": "price",
          "type": "uint256"
        },
        {
          "internalType": "uint256",
          "name": "royaltyFeePermillage",
          "type": "uint256"
        }
      ],
      "name": "createMarketItem",
      "outputs": [],
      "stateMutability": "nonpayable",
      "type": "function"
    },
    {
      "inputs": [
        {
          "internalType": "uint256",
          "name": "id",
          "type": "uint256"
        }
      ],
      "name": "getCalculatedPrice",
      "outputs": [
        {
          "internalType": "uint256",
          "name": "",
          "type": "uint256"
        }
      ],
      "stateMutability": "view",
      "type": "function"
    },
    {
      "inputs": [],
      "name": "getMyOwnedNFTs",
      "outputs": [
        {
          "components": [
            {
              "internalType": "uint256",
              "name": "id",
              "type": "uint256"
            },
            {
              "internalType": "uint256",
              "name": "tokenId",
              "type": "uint256"
            },
            {
              "internalType": "contract IERC721",
              "name": "token",
              "type": "address"
            },
            {
              "internalType": "address payable",
              "name": "seller",
              "type": "address"
            },
            {
              "internalType": "address payable",
              "name": "owner",
              "type": "address"
            },
            {
              "internalType": "address payable",
              "name": "creator",
              "type": "address"
            },
            {
              "internalType": "uint256",
              "name": "price",
              "type": "uint256"
            },
            {
              "internalType": "uint256",
              "name": "royaltyFeePermillage",
              "type": "uint256"
            },
            {
              "internalType": "bool",
              "name": "sold",
              "type": "bool"
            }
          ],
          "internalType": "struct Marketplace.MarketItem[]",
          "name": "",
          "type": "tuple[]"
        }
      ],
      "stateMutability": "view",
      "type": "function"
    },
    {
      "inputs": [],
      "name": "getUnsoldMarketItems",
      "outputs": [
        {
          "components": [
            {
              "internalType": "uint256",
              "name": "id",
              "type": "uint256"
            },
            {
              "internalType": "uint256",
              "name": "tokenId",
              "type": "uint256"
            },
            {
              "internalType": "contract IERC721",
              "name": "token",
              "type": "address"
            },
            {
              "internalType": "address payable",
              "name": "seller",
              "type": "address"
            },
            {
              "internalType": "address payable",
              "name": "owner",
              "type": "address"
            },
            {
              "internalType": "address payable",
              "name": "creator",
              "type": "address"
            },
            {
              "internalType": "uint256",
              "name": "price",
              "type": "uint256"
            },
            {
              "internalType": "uint256",
              "name": "royaltyFeePermillage",
              "type": "uint256"
            },
            {
              "internalType": "bool",
              "name": "sold",
              "type": "bool"
            }
          ],
          "internalType": "struct Marketplace.MarketItem[]",
          "name": "",
          "type": "tuple[]"
        }
      ],
      "stateMutability": "view",
      "type": "function"
    },
    {
      "inputs": [],
      "name": "marketItemCount",
      "outputs": [
        {
          "internalType": "uint256",
          "name": "",
          "type": "uint256"
        }
      ],
      "stateMutability": "view",
      "type": "function"
    },
    {
      "inputs": [
        {
          "internalType": "uint256",
          "name": "",
          "type": "uint256"
        }
      ],
      "name": "marketItems",
      "outputs": [
        {
          "internalType": "uint256",
          "name": "id",
          "type": "uint256"
        },
        {
          "internalType": "uint256",
          "name": "tokenId",
          "type": "uint256"
        },
        {
          "internalType": "contract IERC721",
          "name": "token",
          "type": "address"
        },
        {
          "internalType": "address payable",
          "name": "seller",
          "type": "address"
        },
        {
          "internalType": "address payable",
          "name": "owner",
          "type": "address"
        },
        {
          "internalType": "address payable",
          "name": "creator",
          "type": "address"
        },
        {
          "internalType": "uint256",
          "name": "price",
          "type": "uint256"
        },
        {
          "internalType": "uint256",
          "name": "royaltyFeePermillage",
          "type": "uint256"
        },
        {
          "internalType": "bool",
          "name": "sold",
          "type": "bool"
        }
      ],
      "stateMutability": "view",
      "type": "function"
    },
    {
      "inputs": [],
      "name": "marketItemsSoldCount",
      "outputs": [
        {
          "internalType": "uint256",
          "name": "",
          "type": "uint256"
        }
      ],
      "stateMutability": "view",
      "type": "function"
    }
  ],
  "bytecode": "0x608060405234801561001057600080fd5b5060016000819055506120fe806100286000396000f3fe60806040526004361061007b5760003560e01c8063599ba2341161004e578063599ba234146101495780635c80ca10146101725780635ce5c46c1461019d5780636e09dc51146101c85761007b565b806311d1adeb14610080578063254a73e2146100ab578063351901c3146100e857806351f28e1414610104575b600080fd5b34801561008c57600080fd5b506100956101f3565b6040516100a29190611be4565b60405180910390f35b3480156100b757600080fd5b506100d260048036038101906100cd9190611766565b6101f9565b6040516100df9190611be4565b60405180910390f35b61010260048036038101906100fd9190611766565b610259565b005b34801561011057600080fd5b5061012b60048036038101906101269190611766565b6109a0565b60405161014099989796959493929190611bff565b60405180910390f35b34801561015557600080fd5b50610170600480360381019061016b9190611703565b610a7b565b005b34801561017e57600080fd5b50610187610f12565b6040516101949190611be4565b60405180910390f35b3480156101a957600080fd5b506101b2610f18565b6040516101bf9190611b02565b60405180910390f35b3480156101d457600080fd5b506101dd61130c565b6040516101ea9190611b02565b60405180910390f35b60025481565b6000806103e860036000858152602001908152602001600020600701546103e86102239190611cd6565b60036000868152602001908152602001600020600601546102449190611d5d565b61024e9190611d2c565b905080915050919050565b6002600054141561029f576040517f08c379a000000000000000000000000000000000000000000000000000000000815260040161029690611b84565b60405180910390fd5b600260008190555060006102b2826101f9565b905060006003600084815260200190815260200160002060060154826102d89190611db7565b90506000831180156102ec57506001548311155b61032b576040517f08c379a000000000000000000000000000000000000000000000000000000000815260040161032290611b64565b60405180910390fd5b6003600084815260200190815260200160002060080160009054906101000a900460ff161561038f576040517f08c379a000000000000000000000000000000000000000000000000000000000815260040161038690611b44565b60405180910390fd5b813410156103d2576040517f08c379a00000000000000000000000000000000000000000000000000000000081526004016103c990611bc4565b60405180910390fd5b6003600084815260200190815260200160002060030160009054906101000a900473ffffffffffffffffffffffffffffffffffffffff1673ffffffffffffffffffffffffffffffffffffffff163373ffffffffffffffffffffffffffffffffffffffff161415610477576040517f08c379a000000000000000000000000000000000000000000000000000000000815260040161046e90611ba4565b60405180910390fd5b6003600084815260200190815260200160002060050160009054906101000a900473ffffffffffffffffffffffffffffffffffffffff1673ffffffffffffffffffffffffffffffffffffffff166003600085815260200190815260200160002060030160009054906101000a900473ffffffffffffffffffffffffffffffffffffffff1673ffffffffffffffffffffffffffffffffffffffff161415610599576003600084815260200190815260200160002060030160009054906101000a900473ffffffffffffffffffffffffffffffffffffffff1673ffffffffffffffffffffffffffffffffffffffff166108fc839081150290604051600060405180830381858888f19350505050158015610593573d6000803e3d6000fd5b506106aa565b6003600084815260200190815260200160002060030160009054906101000a900473ffffffffffffffffffffffffffffffffffffffff1673ffffffffffffffffffffffffffffffffffffffff166108fc60036000868152602001908152602001600020600601549081150290604051600060405180830381858888f1935050505015801561062b573d6000803e3d6000fd5b506003600084815260200190815260200160002060050160009054906101000a900473ffffffffffffffffffffffffffffffffffffffff1673ffffffffffffffffffffffffffffffffffffffff166108fc829081150290604051600060405180830381858888f193505050501580156106a8573d6000803e3d6000fd5b505b6003600084815260200190815260200160002060020160009054906101000a900473ffffffffffffffffffffffffffffffffffffffff1673ffffffffffffffffffffffffffffffffffffffff166323b872dd303360036000888152602001908152602001600020600101546040518463ffffffff1660e01b815260040161073393929190611acb565b600060405180830381600087803b15801561074d57600080fd5b505af1158015610761573d6000803e3d6000fd5b50505050336003600085815260200190815260200160002060040160006101000a81548173ffffffffffffffffffffffffffffffffffffffff021916908373ffffffffffffffffffffffffffffffffffffffff16021790555060016003600085815260200190815260200160002060080160006101000a81548160ff021916908315150217905550600260008154809291906107fc90611eb1565b91905055506003600084815260200190815260200160002060020160009054906101000a900473ffffffffffffffffffffffffffffffffffffffff1673ffffffffffffffffffffffffffffffffffffffff166003600085815260200190815260200160002060010154847fe99857a026e5c5ccbfdaf5ba02883099a153a11f3c1fe306b89fc81241ce83246003600088815260200190815260200160002060030160009054906101000a900473ffffffffffffffffffffffffffffffffffffffff1633600360008a815260200190815260200160002060050160009054906101000a900473ffffffffffffffffffffffffffffffffffffffff16600360008b815260200190815260200160002060060154600360008c815260200190815260200160002060070154604051610935959493929190611a25565b60405180910390a460006003600085815260200190815260200160002060030160006101000a81548173ffffffffffffffffffffffffffffffffffffffff021916908373ffffffffffffffffffffffffffffffffffffffff1602179055505050600160008190555050565b60036020528060005260406000206000915090508060000154908060010154908060020160009054906101000a900473ffffffffffffffffffffffffffffffffffffffff16908060030160009054906101000a900473ffffffffffffffffffffffffffffffffffffffff16908060040160009054906101000a900473ffffffffffffffffffffffffffffffffffffffff16908060050160009054906101000a900473ffffffffffffffffffffffffffffffffffffffff16908060060154908060070154908060080160009054906101000a900460ff16905089565b60026000541415610ac1576040517f08c379a0000000000000000000000000000000000000000000000000000000008152600401610ab890611b84565b60405180910390fd5b600260008190555060008211610b0c576040517f08c379a0000000000000000000000000000000000000000000000000000000008152600401610b0390611b24565b60405180910390fd5b60016000815480929190610b1f90611eb1565b919050555060006001549050600033905060005b600154811015610c22578560036000600184610b4f9190611cd6565b8152602001908152602001600020600101541415610c0f57600060036000600184610b7a9190611cd6565b815260200190815260200160002060040160006101000a81548173ffffffffffffffffffffffffffffffffffffffff021916908373ffffffffffffffffffffffffffffffffffffffff16021790555060036000600183610bda9190611cd6565b815260200190815260200160002060050160009054906101000a900473ffffffffffffffffffffffffffffffffffffffff1691505b8080610c1a90611eb1565b915050610b33565b506040518061012001604052808381526020018681526020018773ffffffffffffffffffffffffffffffffffffffff1681526020013373ffffffffffffffffffffffffffffffffffffffff168152602001600073ffffffffffffffffffffffffffffffffffffffff1681526020018273ffffffffffffffffffffffffffffffffffffffff1681526020018581526020018481526020016000151581525060036000848152602001908152602001600020600082015181600001556020820151816001015560408201518160020160006101000a81548173ffffffffffffffffffffffffffffffffffffffff021916908373ffffffffffffffffffffffffffffffffffffffff16021790555060608201518160030160006101000a81548173ffffffffffffffffffffffffffffffffffffffff021916908373ffffffffffffffffffffffffffffffffffffffff16021790555060808201518160040160006101000a81548173ffffffffffffffffffffffffffffffffffffffff021916908373ffffffffffffffffffffffffffffffffffffffff16021790555060a08201518160050160006101000a81548173ffffffffffffffffffffffffffffffffffffffff021916908373ffffffffffffffffffffffffffffffffffffffff16021790555060c0820151816006015560e082015181600701556101008201518160080160006101000a81548160ff0219169083151502179055509050508573ffffffffffffffffffffffffffffffffffffffff166323b872dd3330886040518463ffffffff1660e01b8152600401610e7793929190611acb565b600060405180830381600087803b158015610e9157600080fd5b505af1158015610ea5573d6000803e3d6000fd5b505050508573ffffffffffffffffffffffffffffffffffffffff1685837fe7d9f298f45a30b9f82251173ac573d557b5b59bdb10d57697d5e7d7841256ff336000868a8a604051610efa959493929190611a78565b60405180910390a45050600160008190555050505050565b60015481565b60606000600154905060008060005b83811015610fc8573373ffffffffffffffffffffffffffffffffffffffff1660036000600184610f579190611cd6565b815260200190815260200160002060040160009054906101000a900473ffffffffffffffffffffffffffffffffffffffff1673ffffffffffffffffffffffffffffffffffffffff161415610fb557600183610fb29190611cd6565b92505b8080610fc090611eb1565b915050610f27565b5060008267ffffffffffffffff81111561100b577f4e487b7100000000000000000000000000000000000000000000000000000000600052604160045260246000fd5b60405190808252806020026020018201604052801561104457816020015b611031611633565b8152602001906001900390816110295790505b50905060005b84811015611301573373ffffffffffffffffffffffffffffffffffffffff166003600060018461107a9190611cd6565b815260200190815260200160002060040160009054906101000a900473ffffffffffffffffffffffffffffffffffffffff1673ffffffffffffffffffffffffffffffffffffffff1614156112ee5760006001826110d79190611cd6565b90506000600360008381526020019081526020016000209050806040518061012001604052908160008201548152602001600182015481526020016002820160009054906101000a900473ffffffffffffffffffffffffffffffffffffffff1673ffffffffffffffffffffffffffffffffffffffff1673ffffffffffffffffffffffffffffffffffffffff1681526020016003820160009054906101000a900473ffffffffffffffffffffffffffffffffffffffff1673ffffffffffffffffffffffffffffffffffffffff1673ffffffffffffffffffffffffffffffffffffffff1681526020016004820160009054906101000a900473ffffffffffffffffffffffffffffffffffffffff1673ffffffffffffffffffffffffffffffffffffffff1673ffffffffffffffffffffffffffffffffffffffff1681526020016005820160009054906101000a900473ffffffffffffffffffffffffffffffffffffffff1673ffffffffffffffffffffffffffffffffffffffff1673ffffffffffffffffffffffffffffffffffffffff16815260200160068201548152602001600782015481526020016008820160009054906101000a900460ff1615151515815250508486815181106112d1577f4e487b7100000000000000000000000000000000000000000000000000000000600052603260045260246000fd5b60200260200101819052506001856112e99190611cd6565b945050505b80806112f990611eb1565b91505061104a565b508094505050505090565b60606000600154905060006002546001546113279190611db7565b90506000808267ffffffffffffffff81111561136c577f4e487b7100000000000000000000000000000000000000000000000000000000600052604160045260246000fd5b6040519080825280602002602001820160405280156113a557816020015b611392611633565b81526020019060019003908161138a5790505b50905060005b848110156116285760001515600360006001846113c89190611cd6565b815260200190815260200160002060080160009054906101000a900460ff16151514156116155760006001826113fe9190611cd6565b90506000600360008381526020019081526020016000209050806040518061012001604052908160008201548152602001600182015481526020016002820160009054906101000a900473ffffffffffffffffffffffffffffffffffffffff1673ffffffffffffffffffffffffffffffffffffffff1673ffffffffffffffffffffffffffffffffffffffff1681526020016003820160009054906101000a900473ffffffffffffffffffffffffffffffffffffffff1673ffffffffffffffffffffffffffffffffffffffff1673ffffffffffffffffffffffffffffffffffffffff1681526020016004820160009054906101000a900473ffffffffffffffffffffffffffffffffffffffff1673ffffffffffffffffffffffffffffffffffffffff1673ffffffffffffffffffffffffffffffffffffffff1681526020016005820160009054906101000a900473ffffffffffffffffffffffffffffffffffffffff1673ffffffffffffffffffffffffffffffffffffffff1673ffffffffffffffffffffffffffffffffffffffff16815260200160068201548152602001600782015481526020016008820160009054906101000a900460ff1615151515815250508486815181106115f8577f4e487b7100000000000000000000000000000000000000000000000000000000600052603260045260246000fd5b60200260200101819052506001856116109190611cd6565b945050505b808061162090611eb1565b9150506113ab565b508094505050505090565b6040518061012001604052806000815260200160008152602001600073ffffffffffffffffffffffffffffffffffffffff168152602001600073ffffffffffffffffffffffffffffffffffffffff168152602001600073ffffffffffffffffffffffffffffffffffffffff168152602001600073ffffffffffffffffffffffffffffffffffffffff16815260200160008152602001600081526020016000151581525090565b6000813590506116e88161209a565b92915050565b6000813590506116fd816120b1565b92915050565b6000806000806080858703121561171957600080fd5b6000611727878288016116d9565b9450506020611738878288016116ee565b9350506040611749878288016116ee565b925050606061175a878288016116ee565b91505092959194509250565b60006020828403121561177857600080fd5b6000611786848285016116ee565b91505092915050565b600061179b8383611950565b6101208301905092915050565b6117b181611e57565b82525050565b6117c081611dfd565b82525050565b6117cf81611dfd565b82525050565b6117de81611deb565b82525050565b60006117ef82611c9c565b6117f98185611cb4565b935061180483611c8c565b8060005b8381101561183557815161181c888261178f565b975061182783611ca7565b925050600181019050611808565b5085935050505092915050565b61184b81611e0f565b82525050565b61185a81611e0f565b82525050565b61186981611e69565b82525050565b61187881611e69565b82525050565b600061188b601f83611cc5565b915061189682611f58565b602082019050919050565b60006118ae601483611cc5565b91506118b982611f81565b602082019050919050565b60006118d1601383611cc5565b91506118dc82611faa565b602082019050919050565b60006118f4601f83611cc5565b91506118ff82611fd3565b602082019050919050565b6000611917602e83611cc5565b915061192282611ffc565b604082019050919050565b600061193a602f83611cc5565b91506119458261204b565b604082019050919050565b610120820160008201516119676000850182611a07565b50602082015161197a6020850182611a07565b50604082015161198d6040850182611860565b5060608201516119a060608501826117b7565b5060808201516119b360808501826117b7565b5060a08201516119c660a08501826117b7565b5060c08201516119d960c0850182611a07565b5060e08201516119ec60e0850182611a07565b50610100820151611a01610100850182611842565b50505050565b611a1081611e4d565b82525050565b611a1f81611e4d565b82525050565b600060a082019050611a3a60008301886117a8565b611a4760208301876117d5565b611a5460408301866117a8565b611a616060830185611a16565b611a6e6080830184611a16565b9695505050505050565b600060a082019050611a8d60008301886117d5565b611a9a60208301876117d5565b611aa760408301866117a8565b611ab46060830185611a16565b611ac16080830184611a16565b9695505050505050565b6000606082019050611ae060008301866117d5565b611aed60208301856117d5565b611afa6040830184611a16565b949350505050565b60006020820190508181036000830152611b1c81846117e4565b905092915050565b60006020820190508181036000830152611b3d8161187e565b9050919050565b60006020820190508181036000830152611b5d816118a1565b9050919050565b60006020820190508181036000830152611b7d816118c4565b9050919050565b60006020820190508181036000830152611b9d816118e7565b9050919050565b60006020820190508181036000830152611bbd8161190a565b9050919050565b60006020820190508181036000830152611bdd8161192d565b9050919050565b6000602082019050611bf96000830184611a16565b92915050565b600061012082019050611c15600083018c611a16565b611c22602083018b611a16565b611c2f604083018a61186f565b611c3c60608301896117c6565b611c4960808301886117c6565b611c5660a08301876117c6565b611c6360c0830186611a16565b611c7060e0830185611a16565b611c7e610100830184611851565b9a9950505050505050505050565b6000819050602082019050919050565b600081519050919050565b6000602082019050919050565b600082825260208201905092915050565b600082825260208201905092915050565b6000611ce182611e4d565b9150611cec83611e4d565b9250827fffffffffffffffffffffffffffffffffffffffffffffffffffffffffffffffff03821115611d2157611d20611efa565b5b828201905092915050565b6000611d3782611e4d565b9150611d4283611e4d565b925082611d5257611d51611f29565b5b828204905092915050565b6000611d6882611e4d565b9150611d7383611e4d565b9250817fffffffffffffffffffffffffffffffffffffffffffffffffffffffffffffffff0483118215151615611dac57611dab611efa565b5b828202905092915050565b6000611dc282611e4d565b9150611dcd83611e4d565b925082821015611de057611ddf611efa565b5b828203905092915050565b6000611df682611e2d565b9050919050565b6000611e0882611e2d565b9050919050565b60008115159050919050565b6000611e2682611deb565b9050919050565b600073ffffffffffffffffffffffffffffffffffffffff82169050919050565b6000819050919050565b6000611e6282611e8d565b9050919050565b6000611e7482611e7b565b9050919050565b6000611e8682611e2d565b9050919050565b6000611e9882611e9f565b9050919050565b6000611eaa82611e2d565b9050919050565b6000611ebc82611e4d565b91507fffffffffffffffffffffffffffffffffffffffffffffffffffffffffffffffff821415611eef57611eee611efa565b5b600182019050919050565b7f4e487b7100000000000000000000000000000000000000000000000000000000600052601160045260246000fd5b7f4e487b7100000000000000000000000000000000000000000000000000000000600052601260045260246000fd5b7f5072696365206d7573742062652067726561746572207468616e207a65726f00600082015250565b7f4974656d20697320616c726561647920736f6c64000000000000000000000000600082015250565b7f4974656d20646f6573206e6f7420657869737400000000000000000000000000600082015250565b7f5265656e7472616e637947756172643a207265656e7472616e742063616c6c00600082015250565b7f53656c6c65722063616e6e6f74206265207468652073616d652061646472657360008201527f7320617320746865206275796572000000000000000000000000000000000000602082015250565b7f496e73756666696369656e742066756e647320746f20636f766572207072696360008201527f65202b20726f79616c7479206665650000000000000000000000000000000000602082015250565b6120a381611e1b565b81146120ae57600080fd5b50565b6120ba81611e4d565b81146120c557600080fd5b5056fea2646970667358221220b5f6202eef4348a183a7691db31b61acc5c8e13894b5de657415dd3d74797a8d64736f6c63430008010033",
  "linkReferences": {},
  "deployedLinkReferences": {}
}