{
  "_format": "hh-sol-artifact-1",
  "contractName": "Token",
  "sourceName": "src/contracts/Token.sol",
  "abi": [
    {
      "inputs": [
        {
          "internalType": "address",
          "name": "marketplaceAddress",
          "type": "address"
        }
      ],
      "stateMutability": "nonpayable",
      "type": "constructor"
    },
    {
      "anonymous": false,
      "inputs": [
        {
          "indexed": true,
          "internalType": "address",
          "name": "owner",
          "type": "address"
        },
        {
          "indexed": true,
          "internalType": "address",
          "name": "approved",
          "type": "address"
        },
        {
          "indexed": true,
          "internalType": "uint256",
          "name": "tokenId",
          "type": "uint256"
        }
      ],
      "name": "Approval",
      "type": "event"
    },
    {
      "anonymous": false,
      "inputs": [
        {
          "indexed": true,
          "internalType": "address",
          "name": "owner",
          "type": "address"
        },
        {
          "indexed": true,
          "internalType": "address",
          "name": "operator",
          "type": "address"
        },
        {
          "indexed": false,
          "internalType": "bool",
          "name": "approved",
          "type": "bool"
        }
      ],
      "name": "ApprovalForAll",
      "type": "event"
    },
    {
      "anonymous": false,
      "inputs": [
        {
          "indexed": true,
          "internalType": "address",
          "name": "from",
          "type": "address"
        },
        {
          "indexed": true,
          "internalType": "address",
          "name": "to",
          "type": "address"
        },
        {
          "indexed": true,
          "internalType": "uint256",
          "name": "tokenId",
          "type": "uint256"
        }
      ],
      "name": "Transfer",
      "type": "event"
    },
    {
      "inputs": [
        {
          "internalType": "address",
          "name": "to",
          "type": "address"
        },
        {
          "internalType": "uint256",
          "name": "tokenId",
          "type": "uint256"
        }
      ],
      "name": "approve",
      "outputs": [],
      "stateMutability": "nonpayable",
      "type": "function"
    },
    {
      "inputs": [
        {
          "internalType": "address",
          "name": "owner",
          "type": "address"
        }
      ],
      "name": "balanceOf",
      "outputs": [
        {
          "internalType": "uint256",
          "name": "",
          "type": "uint256"
        }
      ],
      "stateMutability": "view",
      "type": "function"
    },
    {
      "inputs": [
        {
          "internalType": "uint256",
          "name": "tokenId",
          "type": "uint256"
        }
      ],
      "name": "getApproved",
      "outputs": [
        {
          "internalType": "address",
          "name": "",
          "type": "address"
        }
      ],
      "stateMutability": "view",
      "type": "function"
    },
    {
      "inputs": [
        {
          "internalType": "address",
          "name": "owner",
          "type": "address"
        },
        {
          "internalType": "address",
          "name": "operator",
          "type": "address"
        }
      ],
      "name": "isApprovedForAll",
      "outputs": [
        {
          "internalType": "bool",
          "name": "",
          "type": "bool"
        }
      ],
      "stateMutability": "view",
      "type": "function"
    },
    {
      "inputs": [
        {
          "internalType": "string",
          "name": "_tokenUri",
          "type": "string"
        }
      ],
      "name": "mint",
      "outputs": [
        {
          "internalType": "uint256",
          "name": "",
          "type": "uint256"
        }
      ],
      "stateMutability": "nonpayable",
      "type": "function"
    },
    {
      "inputs": [],
      "name": "name",
      "outputs": [
        {
          "internalType": "string",
          "name": "",
          "type": "string"
        }
      ],
      "stateMutability": "view",
      "type": "function"
    },
    {
      "inputs": [
        {
          "internalType": "uint256",
          "name": "tokenId",
          "type": "uint256"
        }
      ],
      "name": "ownerOf",
      "outputs": [
        {
          "internalType": "address",
          "name": "",
          "type": "address"
        }
      ],
      "stateMutability": "view",
      "type": "function"
    },
    {
      "inputs": [
        {
          "internalType": "address",
          "name": "from",
          "type": "address"
        },
        {
          "internalType": "address",
          "name": "to",
          "type": "address"
        },
        {
          "internalType": "uint256",
          "name": "tokenId",
          "type": "uint256"
        }
      ],
      "name": "safeTransferFrom",
      "outputs": [],
      "stateMutability": "nonpayable",
      "type": "function"
    },
    {
      "inputs": [
        {
          "internalType": "address",
          "name": "from",
          "type": "address"
        },
        {
          "internalType": "address",
          "name": "to",
          "type": "address"
        },
        {
          "internalType": "uint256",
          "name": "tokenId",
          "type": "uint256"
        },
        {
          "internalType": "bytes",
          "name": "_data",
          "type": "bytes"
        }
      ],
      "name": "safeTransferFrom",
      "outputs": [],
      "stateMutability": "nonpayable",
      "type": "function"
    },
    {
      "inputs": [
        {
          "internalType": "address",
          "name": "operator",
          "type": "address"
        },
        {
          "internalType": "bool",
          "name": "approved",
          "type": "bool"
        }
      ],
      "name": "setApprovalForAll",
      "outputs": [],
      "stateMutability": "nonpayable",
      "type": "function"
    },
    {
      "inputs": [
        {
          "internalType": "bytes4",
          "name": "interfaceId",
          "type": "bytes4"
        }
      ],
      "name": "supportsInterface",
      "outputs": [
        {
          "internalType": "bool",
          "name": "",
          "type": "bool"
        }
      ],
      "stateMutability": "view",
      "type": "function"
    },
    {
      "inputs": [],
      "name": "symbol",
      "outputs": [
        {
          "internalType": "string",
          "name": "",
          "type": "string"
        }
      ],
      "stateMutability": "view",
      "type": "function"
    },
    {
      "inputs": [
        {
          "internalType": "uint256",
          "name": "tokenId",
          "type": "uint256"
        }
      ],
      "name": "tokenURI",
      "outputs": [
        {
          "internalType": "string",
          "name": "",
          "type": "string"
        }
      ],
      "stateMutability": "view",
      "type": "function"
    },
    {
      "inputs": [
        {
          "internalType": "address",
          "name": "from",
          "type": "address"
        },
        {
          "internalType": "address",
          "name": "to",
          "type": "address"
        },
        {
          "internalType": "uint256",
          "name": "tokenId",
          "type": "uint256"
        }
      ],
      "name": "transferFrom",
      "outputs": [],
      "stateMutability": "nonpayable",
      "type": "function"
    }
  ],
  "bytecode": "0x60806040523480156200001157600080fd5b5060405162002f0038038062002f008339818101604052810190620000379190620001e6565b6040518060400160405280600e81526020017f6d696e747962617920546f6b656e0000000000000000000000000000000000008152506040518060400160405280600381526020017f4d425400000000000000000000000000000000000000000000000000000000008152508160009080519060200190620000bb9291906200011f565b508060019080519060200190620000d49291906200011f565b50505080600860006101000a81548173ffffffffffffffffffffffffffffffffffffffff021916908373ffffffffffffffffffffffffffffffffffffffff16021790555050620002c5565b8280546200012d9062000246565b90600052602060002090601f0160209004810192826200015157600085556200019d565b82601f106200016c57805160ff19168380011785556200019d565b828001600101855582156200019d579182015b828111156200019c5782518255916020019190600101906200017f565b5b509050620001ac9190620001b0565b5090565b5b80821115620001cb576000816000905550600101620001b1565b5090565b600081519050620001e081620002ab565b92915050565b600060208284031215620001f957600080fd5b60006200020984828501620001cf565b91505092915050565b60006200021f8262000226565b9050919050565b600073ffffffffffffffffffffffffffffffffffffffff82169050919050565b600060028204905060018216806200025f57607f821691505b602082108114156200027657620002756200027c565b5b50919050565b7f4e487b7100000000000000000000000000000000000000000000000000000000600052602260045260246000fd5b620002b68162000212565b8114620002c257600080fd5b50565b612c2b80620002d56000396000f3fe608060405234801561001057600080fd5b50600436106100ea5760003560e01c806370a082311161008c578063b88d4fde11610066578063b88d4fde1461025b578063c87b56dd14610277578063d85d3d27146102a7578063e985e9c5146102d7576100ea565b806370a08231146101f157806395d89b4114610221578063a22cb4651461023f576100ea565b8063095ea7b3116100c8578063095ea7b31461016d57806323b872dd1461018957806342842e0e146101a55780636352211e146101c1576100ea565b806301ffc9a7146100ef57806306fdde031461011f578063081812fc1461013d575b600080fd5b61010960048036038101906101049190611c97565b610307565b60405161011691906120de565b60405180910390f35b6101276103e9565b60405161013491906120f9565b60405180910390f35b61015760048036038101906101529190611d2a565b61047b565b6040516101649190612077565b60405180910390f35b61018760048036038101906101829190611c5b565b610500565b005b6101a3600480360381019061019e9190611b55565b610618565b005b6101bf60048036038101906101ba9190611b55565b610678565b005b6101db60048036038101906101d69190611d2a565b610698565b6040516101e89190612077565b60405180910390f35b61020b60048036038101906102069190611af0565b61074a565b604051610218919061231b565b60405180910390f35b610229610802565b60405161023691906120f9565b60405180910390f35b61025960048036038101906102549190611c1f565b610894565b005b61027560048036038101906102709190611ba4565b6108aa565b005b610291600480360381019061028c9190611d2a565b61090c565b60405161029e91906120f9565b60405180910390f35b6102c160048036038101906102bc9190611ce9565b610a5e565b6040516102ce919061231b565b60405180910390f35b6102f160048036038101906102ec9190611b19565b610ac1565b6040516102fe91906120de565b60405180910390f35b60007f80ac58cd000000000000000000000000000000000000000000000000000000007bffffffffffffffffffffffffffffffffffffffffffffffffffffffff1916827bffffffffffffffffffffffffffffffffffffffffffffffffffffffff191614806103d257507f5b5e139f000000000000000000000000000000000000000000000000000000007bffffffffffffffffffffffffffffffffffffffffffffffffffffffff1916827bffffffffffffffffffffffffffffffffffffffffffffffffffffffff1916145b806103e257506103e182610b55565b5b9050919050565b6060600080546103f890612571565b80601f016020809104026020016040519081016040528092919081815260200182805461042490612571565b80156104715780601f1061044657610100808354040283529160200191610471565b820191906000526020600020905b81548152906001019060200180831161045457829003601f168201915b5050505050905090565b600061048682610bbf565b6104c5576040517f08c379a00000000000000000000000000000000000000000000000000000000081526004016104bc9061229b565b60405180910390fd5b6004600083815260200190815260200160002060009054906101000a900473ffffffffffffffffffffffffffffffffffffffff169050919050565b600061050b82610698565b90508073ffffffffffffffffffffffffffffffffffffffff168373ffffffffffffffffffffffffffffffffffffffff16141561057c576040517f08c379a0000000000000000000000000000000000000000000000000000000008152600401610573906122db565b60405180910390fd5b8073ffffffffffffffffffffffffffffffffffffffff1661059b610c2b565b73ffffffffffffffffffffffffffffffffffffffff1614806105ca57506105c9816105c4610c2b565b610ac1565b5b610609576040517f08c379a0000000000000000000000000000000000000000000000000000000008152600401610600906121db565b60405180910390fd5b6106138383610c33565b505050565b610629610623610c2b565b82610cec565b610668576040517f08c379a000000000000000000000000000000000000000000000000000000000815260040161065f906122fb565b60405180910390fd5b610673838383610dca565b505050565b610693838383604051806020016040528060008152506108aa565b505050565b6000806002600084815260200190815260200160002060009054906101000a900473ffffffffffffffffffffffffffffffffffffffff169050600073ffffffffffffffffffffffffffffffffffffffff168173ffffffffffffffffffffffffffffffffffffffff161415610741576040517f08c379a00000000000000000000000000000000000000000000000000000000081526004016107389061221b565b60405180910390fd5b80915050919050565b60008073ffffffffffffffffffffffffffffffffffffffff168273ffffffffffffffffffffffffffffffffffffffff1614156107bb576040517f08c379a00000000000000000000000000000000000000000000000000000000081526004016107b2906121fb565b60405180910390fd5b600360008373ffffffffffffffffffffffffffffffffffffffff1673ffffffffffffffffffffffffffffffffffffffff168152602001908152602001600020549050919050565b60606001805461081190612571565b80601f016020809104026020016040519081016040528092919081815260200182805461083d90612571565b801561088a5780601f1061085f5761010080835404028352916020019161088a565b820191906000526020600020905b81548152906001019060200180831161086d57829003601f168201915b5050505050905090565b6108a661089f610c2b565b8383611031565b5050565b6108bb6108b5610c2b565b83610cec565b6108fa576040517f08c379a00000000000000000000000000000000000000000000000000000000081526004016108f1906122fb565b60405180910390fd5b6109068484848461119e565b50505050565b606061091782610bbf565b610956576040517f08c379a000000000000000000000000000000000000000000000000000000000815260040161094d9061227b565b60405180910390fd5b600060066000848152602001908152602001600020805461097690612571565b80601f01602080910402602001604051908101604052809291908181526020018280546109a290612571565b80156109ef5780601f106109c4576101008083540402835291602001916109ef565b820191906000526020600020905b8154815290600101906020018083116109d257829003601f168201915b505050505090506000610a006111fa565b9050600081511415610a16578192505050610a59565b600082511115610a4b578082604051602001610a33929190612053565b60405160208183030381529060405292505050610a59565b610a5484611211565b925050505b919050565b6000610a6a60076112b8565b6000610a7660076112ce565b9050610a8233826112dc565b610a8c81846112fa565b610ab8600860009054906101000a900473ffffffffffffffffffffffffffffffffffffffff1682610500565b80915050919050565b6000600560008473ffffffffffffffffffffffffffffffffffffffff1673ffffffffffffffffffffffffffffffffffffffff16815260200190815260200160002060008373ffffffffffffffffffffffffffffffffffffffff1673ffffffffffffffffffffffffffffffffffffffff16815260200190815260200160002060009054906101000a900460ff16905092915050565b60007f01ffc9a7000000000000000000000000000000000000000000000000000000007bffffffffffffffffffffffffffffffffffffffffffffffffffffffff1916827bffffffffffffffffffffffffffffffffffffffffffffffffffffffff1916149050919050565b60008073ffffffffffffffffffffffffffffffffffffffff166002600084815260200190815260200160002060009054906101000a900473ffffffffffffffffffffffffffffffffffffffff1673ffffffffffffffffffffffffffffffffffffffff1614159050919050565b600033905090565b816004600083815260200190815260200160002060006101000a81548173ffffffffffffffffffffffffffffffffffffffff021916908373ffffffffffffffffffffffffffffffffffffffff160217905550808273ffffffffffffffffffffffffffffffffffffffff16610ca683610698565b73ffffffffffffffffffffffffffffffffffffffff167f8c5be1e5ebec7d5bd14f71427d1e84f3dd0314c0f7b2291e5b200ac8c7c3b92560405160405180910390a45050565b6000610cf782610bbf565b610d36576040517f08c379a0000000000000000000000000000000000000000000000000000000008152600401610d2d906121bb565b60405180910390fd5b6000610d4183610698565b90508073ffffffffffffffffffffffffffffffffffffffff168473ffffffffffffffffffffffffffffffffffffffff161480610d835750610d828185610ac1565b5b80610dc157508373ffffffffffffffffffffffffffffffffffffffff16610da98461047b565b73ffffffffffffffffffffffffffffffffffffffff16145b91505092915050565b8273ffffffffffffffffffffffffffffffffffffffff16610dea82610698565b73ffffffffffffffffffffffffffffffffffffffff1614610e40576040517f08c379a0000000000000000000000000000000000000000000000000000000008152600401610e379061213b565b60405180910390fd5b600073ffffffffffffffffffffffffffffffffffffffff168273ffffffffffffffffffffffffffffffffffffffff161415610eb0576040517f08c379a0000000000000000000000000000000000000000000000000000000008152600401610ea79061217b565b60405180910390fd5b610ebb83838361136e565b610ec6600082610c33565b6001600360008573ffffffffffffffffffffffffffffffffffffffff1673ffffffffffffffffffffffffffffffffffffffff1681526020019081526020016000206000828254610f169190612487565b925050819055506001600360008473ffffffffffffffffffffffffffffffffffffffff1673ffffffffffffffffffffffffffffffffffffffff1681526020019081526020016000206000828254610f6d9190612400565b92505081905550816002600083815260200190815260200160002060006101000a81548173ffffffffffffffffffffffffffffffffffffffff021916908373ffffffffffffffffffffffffffffffffffffffff160217905550808273ffffffffffffffffffffffffffffffffffffffff168473ffffffffffffffffffffffffffffffffffffffff167fddf252ad1be2c89b69c2b068fc378daa952ba7f163c4a11628f55a4df523b3ef60405160405180910390a461102c838383611373565b505050565b8173ffffffffffffffffffffffffffffffffffffffff168373ffffffffffffffffffffffffffffffffffffffff1614156110a0576040517f08c379a00000000000000000000000000000000000000000000000000000000081526004016110979061219b565b60405180910390fd5b80600560008573ffffffffffffffffffffffffffffffffffffffff1673ffffffffffffffffffffffffffffffffffffffff16815260200190815260200160002060008473ffffffffffffffffffffffffffffffffffffffff1673ffffffffffffffffffffffffffffffffffffffff16815260200190815260200160002060006101000a81548160ff0219169083151502179055508173ffffffffffffffffffffffffffffffffffffffff168373ffffffffffffffffffffffffffffffffffffffff167f17307eab39ab6107e8899845ad3d59bd9653f200f220920489ca2b5937696c318360405161119191906120de565b60405180910390a3505050565b6111a9848484610dca565b6111b584848484611378565b6111f4576040517f08c379a00000000000000000000000000000000000000000000000000000000081526004016111eb9061211b565b60405180910390fd5b50505050565b606060405180602001604052806000815250905090565b606061121c82610bbf565b61125b576040517f08c379a0000000000000000000000000000000000000000000000000000000008152600401611252906122bb565b60405180910390fd5b60006112656111fa565b9050600081511161128557604051806020016040528060008152506112b0565b8061128f8461150f565b6040516020016112a0929190612053565b6040516020818303038152906040525b915050919050565b6001816000016000828254019250508190555050565b600081600001549050919050565b6112f68282604051806020016040528060008152506116bc565b5050565b61130382610bbf565b611342576040517f08c379a00000000000000000000000000000000000000000000000000000000081526004016113399061223b565b60405180910390fd5b80600660008481526020019081526020016000209080519060200190611369929190611914565b505050565b505050565b505050565b60006113998473ffffffffffffffffffffffffffffffffffffffff16611717565b15611502578373ffffffffffffffffffffffffffffffffffffffff1663150b7a026113c2610c2b565b8786866040518563ffffffff1660e01b81526004016113e49493929190612092565b602060405180830381600087803b1580156113fe57600080fd5b505af192505050801561142f57506040513d601f19601f8201168201806040525081019061142c9190611cc0565b60015b6114b2573d806000811461145f576040519150601f19603f3d011682016040523d82523d6000602084013e611464565b606091505b506000815114156114aa576040517f08c379a00000000000000000000000000000000000000000000000000000000081526004016114a19061211b565b60405180910390fd5b805181602001fd5b63150b7a0260e01b7bffffffffffffffffffffffffffffffffffffffffffffffffffffffff1916817bffffffffffffffffffffffffffffffffffffffffffffffffffffffff191614915050611507565b600190505b949350505050565b60606000821415611557576040518060400160405280600181526020017f300000000000000000000000000000000000000000000000000000000000000081525090506116b7565b600082905060005b60008214611589578080611572906125d4565b915050600a826115829190612456565b915061155f565b60008167ffffffffffffffff8111156115cb577f4e487b7100000000000000000000000000000000000000000000000000000000600052604160045260246000fd5b6040519080825280601f01601f1916602001820160405280156115fd5781602001600182028036833780820191505090505b5090505b600085146116b0576001826116169190612487565b9150600a85611625919061261d565b60306116319190612400565b60f81b81838151811061166d577f4e487b7100000000000000000000000000000000000000000000000000000000600052603260045260246000fd5b60200101907effffffffffffffffffffffffffffffffffffffffffffffffffffffffffffff1916908160001a905350600a856116a99190612456565b9450611601565b8093505050505b919050565b6116c6838361173a565b6116d36000848484611378565b611712576040517f08c379a00000000000000000000000000000000000000000000000000000000081526004016117099061211b565b60405180910390fd5b505050565b6000808273ffffffffffffffffffffffffffffffffffffffff163b119050919050565b600073ffffffffffffffffffffffffffffffffffffffff168273ffffffffffffffffffffffffffffffffffffffff1614156117aa576040517f08c379a00000000000000000000000000000000000000000000000000000000081526004016117a19061225b565b60405180910390fd5b6117b381610bbf565b156117f3576040517f08c379a00000000000000000000000000000000000000000000000000000000081526004016117ea9061215b565b60405180910390fd5b6117ff6000838361136e565b6001600360008473ffffffffffffffffffffffffffffffffffffffff1673ffffffffffffffffffffffffffffffffffffffff168152602001908152602001600020600082825461184f9190612400565b92505081905550816002600083815260200190815260200160002060006101000a81548173ffffffffffffffffffffffffffffffffffffffff021916908373ffffffffffffffffffffffffffffffffffffffff160217905550808273ffffffffffffffffffffffffffffffffffffffff16600073ffffffffffffffffffffffffffffffffffffffff167fddf252ad1be2c89b69c2b068fc378daa952ba7f163c4a11628f55a4df523b3ef60405160405180910390a461191060008383611373565b5050565b82805461192090612571565b90600052602060002090601f0160209004810192826119425760008555611989565b82601f1061195b57805160ff1916838001178555611989565b82800160010185558215611989579182015b8281111561198857825182559160200191906001019061196d565b5b509050611996919061199a565b5090565b5b808211156119b357600081600090555060010161199b565b5090565b60006119ca6119c58461235b565b612336565b9050828152602081018484840111156119e257600080fd5b6119ed84828561252f565b509392505050565b6000611a08611a038461238c565b612336565b905082815260208101848484011115611a2057600080fd5b611a2b84828561252f565b509392505050565b600081359050611a4281612b99565b92915050565b600081359050611a5781612bb0565b92915050565b600081359050611a6c81612bc7565b92915050565b600081519050611a8181612bc7565b92915050565b600082601f830112611a9857600080fd5b8135611aa88482602086016119b7565b91505092915050565b600082601f830112611ac257600080fd5b8135611ad28482602086016119f5565b91505092915050565b600081359050611aea81612bde565b92915050565b600060208284031215611b0257600080fd5b6000611b1084828501611a33565b91505092915050565b60008060408385031215611b2c57600080fd5b6000611b3a85828601611a33565b9250506020611b4b85828601611a33565b9150509250929050565b600080600060608486031215611b6a57600080fd5b6000611b7886828701611a33565b9350506020611b8986828701611a33565b9250506040611b9a86828701611adb565b9150509250925092565b60008060008060808587031215611bba57600080fd5b6000611bc887828801611a33565b9450506020611bd987828801611a33565b9350506040611bea87828801611adb565b925050606085013567ffffffffffffffff811115611c0757600080fd5b611c1387828801611a87565b91505092959194509250565b60008060408385031215611c3257600080fd5b6000611c4085828601611a33565b9250506020611c5185828601611a48565b9150509250929050565b60008060408385031215611c6e57600080fd5b6000611c7c85828601611a33565b9250506020611c8d85828601611adb565b9150509250929050565b600060208284031215611ca957600080fd5b6000611cb784828501611a5d565b91505092915050565b600060208284031215611cd257600080fd5b6000611ce084828501611a72565b91505092915050565b600060208284031215611cfb57600080fd5b600082013567ffffffffffffffff811115611d1557600080fd5b611d2184828501611ab1565b91505092915050565b600060208284031215611d3c57600080fd5b6000611d4a84828501611adb565b91505092915050565b611d5c816124bb565b82525050565b611d6b816124cd565b82525050565b6000611d7c826123bd565b611d8681856123d3565b9350611d9681856020860161253e565b611d9f8161270a565b840191505092915050565b6000611db5826123c8565b611dbf81856123e4565b9350611dcf81856020860161253e565b611dd88161270a565b840191505092915050565b6000611dee826123c8565b611df881856123f5565b9350611e0881856020860161253e565b80840191505092915050565b6000611e216032836123e4565b9150611e2c8261271b565b604082019050919050565b6000611e446025836123e4565b9150611e4f8261276a565b604082019050919050565b6000611e67601c836123e4565b9150611e72826127b9565b602082019050919050565b6000611e8a6024836123e4565b9150611e95826127e2565b604082019050919050565b6000611ead6019836123e4565b9150611eb882612831565b602082019050919050565b6000611ed0602c836123e4565b9150611edb8261285a565b604082019050919050565b6000611ef36038836123e4565b9150611efe826128a9565b604082019050919050565b6000611f16602a836123e4565b9150611f21826128f8565b604082019050919050565b6000611f396029836123e4565b9150611f4482612947565b604082019050919050565b6000611f5c602e836123e4565b9150611f6782612996565b604082019050919050565b6000611f7f6020836123e4565b9150611f8a826129e5565b602082019050919050565b6000611fa26031836123e4565b9150611fad82612a0e565b604082019050919050565b6000611fc5602c836123e4565b9150611fd082612a5d565b604082019050919050565b6000611fe8602f836123e4565b9150611ff382612aac565b604082019050919050565b600061200b6021836123e4565b915061201682612afb565b604082019050919050565b600061202e6031836123e4565b915061203982612b4a565b604082019050919050565b61204d81612525565b82525050565b600061205f8285611de3565b915061206b8284611de3565b91508190509392505050565b600060208201905061208c6000830184611d53565b92915050565b60006080820190506120a76000830187611d53565b6120b46020830186611d53565b6120c16040830185612044565b81810360608301526120d38184611d71565b905095945050505050565b60006020820190506120f36000830184611d62565b92915050565b600060208201905081810360008301526121138184611daa565b905092915050565b6000602082019050818103600083015261213481611e14565b9050919050565b6000602082019050818103600083015261215481611e37565b9050919050565b6000602082019050818103600083015261217481611e5a565b9050919050565b6000602082019050818103600083015261219481611e7d565b9050919050565b600060208201905081810360008301526121b481611ea0565b9050919050565b600060208201905081810360008301526121d481611ec3565b9050919050565b600060208201905081810360008301526121f481611ee6565b9050919050565b6000602082019050818103600083015261221481611f09565b9050919050565b6000602082019050818103600083015261223481611f2c565b9050919050565b6000602082019050818103600083015261225481611f4f565b9050919050565b6000602082019050818103600083015261227481611f72565b9050919050565b6000602082019050818103600083015261229481611f95565b9050919050565b600060208201905081810360008301526122b481611fb8565b9050919050565b600060208201905081810360008301526122d481611fdb565b9050919050565b600060208201905081810360008301526122f481611ffe565b9050919050565b6000602082019050818103600083015261231481612021565b9050919050565b60006020820190506123306000830184612044565b92915050565b6000612340612351565b905061234c82826125a3565b919050565b6000604051905090565b600067ffffffffffffffff821115612376576123756126db565b5b61237f8261270a565b9050602081019050919050565b600067ffffffffffffffff8211156123a7576123a66126db565b5b6123b08261270a565b9050602081019050919050565b600081519050919050565b600081519050919050565b600082825260208201905092915050565b600082825260208201905092915050565b600081905092915050565b600061240b82612525565b915061241683612525565b9250827fffffffffffffffffffffffffffffffffffffffffffffffffffffffffffffffff0382111561244b5761244a61264e565b5b828201905092915050565b600061246182612525565b915061246c83612525565b92508261247c5761247b61267d565b5b828204905092915050565b600061249282612525565b915061249d83612525565b9250828210156124b0576124af61264e565b5b828203905092915050565b60006124c682612505565b9050919050565b60008115159050919050565b60007fffffffff0000000000000000000000000000000000000000000000000000000082169050919050565b600073ffffffffffffffffffffffffffffffffffffffff82169050919050565b6000819050919050565b82818337600083830152505050565b60005b8381101561255c578082015181840152602081019050612541565b8381111561256b576000848401525b50505050565b6000600282049050600182168061258957607f821691505b6020821081141561259d5761259c6126ac565b5b50919050565b6125ac8261270a565b810181811067ffffffffffffffff821117156125cb576125ca6126db565b5b80604052505050565b60006125df82612525565b91507fffffffffffffffffffffffffffffffffffffffffffffffffffffffffffffffff8214156126125761261161264e565b5b600182019050919050565b600061262882612525565b915061263383612525565b9250826126435761264261267d565b5b828206905092915050565b7f4e487b7100000000000000000000000000000000000000000000000000000000600052601160045260246000fd5b7f4e487b7100000000000000000000000000000000000000000000000000000000600052601260045260246000fd5b7f4e487b7100000000000000000000000000000000000000000000000000000000600052602260045260246000fd5b7f4e487b7100000000000000000000000000000000000000000000000000000000600052604160045260246000fd5b6000601f19601f8301169050919050565b7f4552433732313a207472616e7366657220746f206e6f6e20455243373231526560008201527f63656976657220696d706c656d656e7465720000000000000000000000000000602082015250565b7f4552433732313a207472616e736665722066726f6d20696e636f72726563742060008201527f6f776e6572000000000000000000000000000000000000000000000000000000602082015250565b7f4552433732313a20746f6b656e20616c7265616479206d696e74656400000000600082015250565b7f4552433732313a207472616e7366657220746f20746865207a65726f2061646460008201527f7265737300000000000000000000000000000000000000000000000000000000602082015250565b7f4552433732313a20617070726f766520746f2063616c6c657200000000000000600082015250565b7f4552433732313a206f70657261746f7220717565727920666f72206e6f6e657860008201527f697374656e7420746f6b656e0000000000000000000000000000000000000000602082015250565b7f4552433732313a20617070726f76652063616c6c6572206973206e6f74206f7760008201527f6e6572206e6f7220617070726f76656420666f7220616c6c0000000000000000602082015250565b7f4552433732313a2062616c616e636520717565727920666f7220746865207a6560008201527f726f206164647265737300000000000000000000000000000000000000000000602082015250565b7f4552433732313a206f776e657220717565727920666f72206e6f6e657869737460008201527f656e7420746f6b656e0000000000000000000000000000000000000000000000602082015250565b7f45524337323155524953746f726167653a2055524920736574206f66206e6f6e60008201527f6578697374656e7420746f6b656e000000000000000000000000000000000000602082015250565b7f4552433732313a206d696e7420746f20746865207a65726f2061646472657373600082015250565b7f45524337323155524953746f726167653a2055524920717565727920666f722060008201527f6e6f6e6578697374656e7420746f6b656e000000000000000000000000000000602082015250565b7f4552433732313a20617070726f76656420717565727920666f72206e6f6e657860008201527f697374656e7420746f6b656e0000000000000000000000000000000000000000602082015250565b7f4552433732314d657461646174613a2055524920717565727920666f72206e6f60008201527f6e6578697374656e7420746f6b656e0000000000000000000000000000000000602082015250565b7f4552433732313a20617070726f76616c20746f2063757272656e74206f776e6560008201527f7200000000000000000000000000000000000000000000000000000000000000602082015250565b7f4552433732313a207472616e736665722063616c6c6572206973206e6f74206f60008201527f776e6572206e6f7220617070726f766564000000000000000000000000000000602082015250565b612ba2816124bb565b8114612bad57600080fd5b50565b612bb9816124cd565b8114612bc457600080fd5b50565b612bd0816124d9565b8114612bdb57600080fd5b50565b612be781612525565b8114612bf257600080fd5b5056fea26469706673582212205c2033abebcd42daababe0e45db2f55f8b1e915421995b5b21d2be9ec08e59f364736f6c63430008010033",
  "linkReferences": {},
  "deployedLinkReferences": {}
}