{
  "_format": "hh-sol-artifact-1",
  "contractName": "Token",
  "sourceName": "src/contracts/Token.sol",
  "abi": [
    {
      "inputs": [
        {
          "internalType": "address",
          "name": "marketplaceAddress",
          "type": "address"
        }
      ],
      "stateMutability": "nonpayable",
      "type": "constructor"
    },
    {
      "anonymous": false,
      "inputs": [
        {
          "indexed": true,
          "internalType": "address",
          "name": "owner",
          "type": "address"
        },
        {
          "indexed": true,
          "internalType": "address",
          "name": "approved",
          "type": "address"
        },
        {
          "indexed": true,
          "internalType": "uint256",
          "name": "tokenId",
          "type": "uint256"
        }
      ],
      "name": "Approval",
      "type": "event"
    },
    {
      "anonymous": false,
      "inputs": [
        {
          "indexed": true,
          "internalType": "address",
          "name": "owner",
          "type": "address"
        },
        {
          "indexed": true,
          "internalType": "address",
          "name": "operator",
          "type": "address"
        },
        {
          "indexed": false,
          "internalType": "bool",
          "name": "approved",
          "type": "bool"
        }
      ],
      "name": "ApprovalForAll",
      "type": "event"
    },
    {
      "anonymous": false,
      "inputs": [
        {
          "indexed": true,
          "internalType": "address",
          "name": "from",
          "type": "address"
        },
        {
          "indexed": true,
          "internalType": "address",
          "name": "to",
          "type": "address"
        },
        {
          "indexed": true,
          "internalType": "uint256",
          "name": "tokenId",
          "type": "uint256"
        }
      ],
      "name": "Transfer",
      "type": "event"
    },
    {
      "inputs": [
        {
          "internalType": "address",
          "name": "to",
          "type": "address"
        },
        {
          "internalType": "uint256",
          "name": "tokenId",
          "type": "uint256"
        }
      ],
      "name": "approve",
      "outputs": [],
      "stateMutability": "nonpayable",
      "type": "function"
    },
    {
      "inputs": [
        {
          "internalType": "address",
          "name": "owner",
          "type": "address"
        }
      ],
      "name": "balanceOf",
      "outputs": [
        {
          "internalType": "uint256",
          "name": "",
          "type": "uint256"
        }
      ],
      "stateMutability": "view",
      "type": "function"
    },
    {
      "inputs": [
        {
          "internalType": "uint256",
          "name": "tokenId",
          "type": "uint256"
        }
      ],
      "name": "getApproved",
      "outputs": [
        {
          "internalType": "address",
          "name": "",
          "type": "address"
        }
      ],
      "stateMutability": "view",
      "type": "function"
    },
    {
      "inputs": [
        {
          "internalType": "address",
          "name": "owner",
          "type": "address"
        },
        {
          "internalType": "address",
          "name": "operator",
          "type": "address"
        }
      ],
      "name": "isApprovedForAll",
      "outputs": [
        {
          "internalType": "bool",
          "name": "",
          "type": "bool"
        }
      ],
      "stateMutability": "view",
      "type": "function"
    },
    {
      "inputs": [
        {
          "internalType": "string",
          "name": "_tokenUri",
          "type": "string"
        }
      ],
      "name": "mint",
      "outputs": [
        {
          "internalType": "uint256",
          "name": "",
          "type": "uint256"
        }
      ],
      "stateMutability": "nonpayable",
      "type": "function"
    },
    {
      "inputs": [],
      "name": "name",
      "outputs": [
        {
          "internalType": "string",
          "name": "",
          "type": "string"
        }
      ],
      "stateMutability": "view",
      "type": "function"
    },
    {
      "inputs": [
        {
          "internalType": "uint256",
          "name": "tokenId",
          "type": "uint256"
        }
      ],
      "name": "ownerOf",
      "outputs": [
        {
          "internalType": "address",
          "name": "",
          "type": "address"
        }
      ],
      "stateMutability": "view",
      "type": "function"
    },
    {
      "inputs": [
        {
          "internalType": "address",
          "name": "from",
          "type": "address"
        },
        {
          "internalType": "address",
          "name": "to",
          "type": "address"
        },
        {
          "internalType": "uint256",
          "name": "tokenId",
          "type": "uint256"
        }
      ],
      "name": "safeTransferFrom",
      "outputs": [],
      "stateMutability": "nonpayable",
      "type": "function"
    },
    {
      "inputs": [
        {
          "internalType": "address",
          "name": "from",
          "type": "address"
        },
        {
          "internalType": "address",
          "name": "to",
          "type": "address"
        },
        {
          "internalType": "uint256",
          "name": "tokenId",
          "type": "uint256"
        },
        {
          "internalType": "bytes",
          "name": "_data",
          "type": "bytes"
        }
      ],
      "name": "safeTransferFrom",
      "outputs": [],
      "stateMutability": "nonpayable",
      "type": "function"
    },
    {
      "inputs": [
        {
          "internalType": "address",
          "name": "operator",
          "type": "address"
        },
        {
          "internalType": "bool",
          "name": "approved",
          "type": "bool"
        }
      ],
      "name": "setApprovalForAll",
      "outputs": [],
      "stateMutability": "nonpayable",
      "type": "function"
    },
    {
      "inputs": [
        {
          "internalType": "bytes4",
          "name": "interfaceId",
          "type": "bytes4"
        }
      ],
      "name": "supportsInterface",
      "outputs": [
        {
          "internalType": "bool",
          "name": "",
          "type": "bool"
        }
      ],
      "stateMutability": "view",
      "type": "function"
    },
    {
      "inputs": [],
      "name": "symbol",
      "outputs": [
        {
          "internalType": "string",
          "name": "",
          "type": "string"
        }
      ],
      "stateMutability": "view",
      "type": "function"
    },
    {
      "inputs": [],
      "name": "tokenIdCount",
      "outputs": [
        {
          "internalType": "uint256",
          "name": "",
          "type": "uint256"
        }
      ],
      "stateMutability": "view",
      "type": "function"
    },
    {
      "inputs": [
        {
          "internalType": "uint256",
          "name": "tokenId",
          "type": "uint256"
        }
      ],
      "name": "tokenURI",
      "outputs": [
        {
          "internalType": "string",
          "name": "",
          "type": "string"
        }
      ],
      "stateMutability": "view",
      "type": "function"
    },
    {
      "inputs": [
        {
          "internalType": "address",
          "name": "from",
          "type": "address"
        },
        {
          "internalType": "address",
          "name": "to",
          "type": "address"
        },
        {
          "internalType": "uint256",
          "name": "tokenId",
          "type": "uint256"
        }
      ],
      "name": "transferFrom",
      "outputs": [],
      "stateMutability": "nonpayable",
      "type": "function"
    }
  ],
  "bytecode": "0x60806040523480156200001157600080fd5b5060405162002f1238038062002f128339818101604052810190620000379190620001e6565b6040518060400160405280600e81526020017f6d696e747962617920546f6b656e0000000000000000000000000000000000008152506040518060400160405280600381526020017f4d425400000000000000000000000000000000000000000000000000000000008152508160009080519060200190620000bb9291906200011f565b508060019080519060200190620000d49291906200011f565b50505080600860006101000a81548173ffffffffffffffffffffffffffffffffffffffff021916908373ffffffffffffffffffffffffffffffffffffffff16021790555050620002c5565b8280546200012d9062000246565b90600052602060002090601f0160209004810192826200015157600085556200019d565b82601f106200016c57805160ff19168380011785556200019d565b828001600101855582156200019d579182015b828111156200019c5782518255916020019190600101906200017f565b5b509050620001ac9190620001b0565b5090565b5b80821115620001cb576000816000905550600101620001b1565b5090565b600081519050620001e081620002ab565b92915050565b600060208284031215620001f957600080fd5b60006200020984828501620001cf565b91505092915050565b60006200021f8262000226565b9050919050565b600073ffffffffffffffffffffffffffffffffffffffff82169050919050565b600060028204905060018216806200025f57607f821691505b602082108114156200027657620002756200027c565b5b50919050565b7f4e487b7100000000000000000000000000000000000000000000000000000000600052602260045260246000fd5b620002b68162000212565b8114620002c257600080fd5b50565b612c3d80620002d56000396000f3fe608060405234801561001057600080fd5b50600436106100f55760003560e01c806370a0823111610097578063c87b56dd11610066578063c87b56dd14610282578063d85d3d27146102b2578063e985e9c5146102e2578063f127394c14610312576100f5565b806370a08231146101fc57806395d89b411461022c578063a22cb4651461024a578063b88d4fde14610266576100f5565b8063095ea7b3116100d3578063095ea7b31461017857806323b872dd1461019457806342842e0e146101b05780636352211e146101cc576100f5565b806301ffc9a7146100fa57806306fdde031461012a578063081812fc14610148575b600080fd5b610114600480360381019061010f9190611ca9565b610330565b60405161012191906120f0565b60405180910390f35b610132610412565b60405161013f919061210b565b60405180910390f35b610162600480360381019061015d9190611d3c565b6104a4565b60405161016f9190612089565b60405180910390f35b610192600480360381019061018d9190611c6d565b610529565b005b6101ae60048036038101906101a99190611b67565b610641565b005b6101ca60048036038101906101c59190611b67565b6106a1565b005b6101e660048036038101906101e19190611d3c565b6106c1565b6040516101f39190612089565b60405180910390f35b61021660048036038101906102119190611b02565b610773565b604051610223919061232d565b60405180910390f35b61023461082b565b604051610241919061210b565b60405180910390f35b610264600480360381019061025f9190611c31565b6108bd565b005b610280600480360381019061027b9190611bb6565b6108d3565b005b61029c60048036038101906102979190611d3c565b610935565b6040516102a9919061210b565b60405180910390f35b6102cc60048036038101906102c79190611cfb565b610a87565b6040516102d9919061232d565b60405180910390f35b6102fc60048036038101906102f79190611b2b565b610af1565b60405161030991906120f0565b60405180910390f35b61031a610b85565b604051610327919061232d565b60405180910390f35b60007f80ac58cd000000000000000000000000000000000000000000000000000000007bffffffffffffffffffffffffffffffffffffffffffffffffffffffff1916827bffffffffffffffffffffffffffffffffffffffffffffffffffffffff191614806103fb57507f5b5e139f000000000000000000000000000000000000000000000000000000007bffffffffffffffffffffffffffffffffffffffffffffffffffffffff1916827bffffffffffffffffffffffffffffffffffffffffffffffffffffffff1916145b8061040b575061040a82610b8b565b5b9050919050565b60606000805461042190612583565b80601f016020809104026020016040519081016040528092919081815260200182805461044d90612583565b801561049a5780601f1061046f5761010080835404028352916020019161049a565b820191906000526020600020905b81548152906001019060200180831161047d57829003601f168201915b5050505050905090565b60006104af82610bf5565b6104ee576040517f08c379a00000000000000000000000000000000000000000000000000000000081526004016104e5906122ad565b60405180910390fd5b6004600083815260200190815260200160002060009054906101000a900473ffffffffffffffffffffffffffffffffffffffff169050919050565b6000610534826106c1565b90508073ffffffffffffffffffffffffffffffffffffffff168373ffffffffffffffffffffffffffffffffffffffff1614156105a5576040517f08c379a000000000000000000000000000000000000000000000000000000000815260040161059c906122ed565b60405180910390fd5b8073ffffffffffffffffffffffffffffffffffffffff166105c4610c61565b73ffffffffffffffffffffffffffffffffffffffff1614806105f357506105f2816105ed610c61565b610af1565b5b610632576040517f08c379a0000000000000000000000000000000000000000000000000000000008152600401610629906121ed565b60405180910390fd5b61063c8383610c69565b505050565b61065261064c610c61565b82610d22565b610691576040517f08c379a00000000000000000000000000000000000000000000000000000000081526004016106889061230d565b60405180910390fd5b61069c838383610e00565b505050565b6106bc838383604051806020016040528060008152506108d3565b505050565b6000806002600084815260200190815260200160002060009054906101000a900473ffffffffffffffffffffffffffffffffffffffff169050600073ffffffffffffffffffffffffffffffffffffffff168173ffffffffffffffffffffffffffffffffffffffff16141561076a576040517f08c379a00000000000000000000000000000000000000000000000000000000081526004016107619061222d565b60405180910390fd5b80915050919050565b60008073ffffffffffffffffffffffffffffffffffffffff168273ffffffffffffffffffffffffffffffffffffffff1614156107e4576040517f08c379a00000000000000000000000000000000000000000000000000000000081526004016107db9061220d565b60405180910390fd5b600360008373ffffffffffffffffffffffffffffffffffffffff1673ffffffffffffffffffffffffffffffffffffffff168152602001908152602001600020549050919050565b60606001805461083a90612583565b80601f016020809104026020016040519081016040528092919081815260200182805461086690612583565b80156108b35780601f10610888576101008083540402835291602001916108b3565b820191906000526020600020905b81548152906001019060200180831161089657829003601f168201915b5050505050905090565b6108cf6108c8610c61565b8383611067565b5050565b6108e46108de610c61565b83610d22565b610923576040517f08c379a000000000000000000000000000000000000000000000000000000000815260040161091a9061230d565b60405180910390fd5b61092f848484846111d4565b50505050565b606061094082610bf5565b61097f576040517f08c379a00000000000000000000000000000000000000000000000000000000081526004016109769061228d565b60405180910390fd5b600060066000848152602001908152602001600020805461099f90612583565b80601f01602080910402602001604051908101604052809291908181526020018280546109cb90612583565b8015610a185780601f106109ed57610100808354040283529160200191610a18565b820191906000526020600020905b8154815290600101906020018083116109fb57829003601f168201915b505050505090506000610a29611230565b9050600081511415610a3f578192505050610a82565b600082511115610a74578082604051602001610a5c929190612065565b60405160208183030381529060405292505050610a82565b610a7d84611247565b925050505b919050565b600060076000815480929190610a9c906125e6565b919050555060006007549050610ab233826112ee565b610abc818461130c565b610ae8600860009054906101000a900473ffffffffffffffffffffffffffffffffffffffff1682610529565b80915050919050565b6000600560008473ffffffffffffffffffffffffffffffffffffffff1673ffffffffffffffffffffffffffffffffffffffff16815260200190815260200160002060008373ffffffffffffffffffffffffffffffffffffffff1673ffffffffffffffffffffffffffffffffffffffff16815260200190815260200160002060009054906101000a900460ff16905092915050565b60075481565b60007f01ffc9a7000000000000000000000000000000000000000000000000000000007bffffffffffffffffffffffffffffffffffffffffffffffffffffffff1916827bffffffffffffffffffffffffffffffffffffffffffffffffffffffff1916149050919050565b60008073ffffffffffffffffffffffffffffffffffffffff166002600084815260200190815260200160002060009054906101000a900473ffffffffffffffffffffffffffffffffffffffff1673ffffffffffffffffffffffffffffffffffffffff1614159050919050565b600033905090565b816004600083815260200190815260200160002060006101000a81548173ffffffffffffffffffffffffffffffffffffffff021916908373ffffffffffffffffffffffffffffffffffffffff160217905550808273ffffffffffffffffffffffffffffffffffffffff16610cdc836106c1565b73ffffffffffffffffffffffffffffffffffffffff167f8c5be1e5ebec7d5bd14f71427d1e84f3dd0314c0f7b2291e5b200ac8c7c3b92560405160405180910390a45050565b6000610d2d82610bf5565b610d6c576040517f08c379a0000000000000000000000000000000000000000000000000000000008152600401610d63906121cd565b60405180910390fd5b6000610d77836106c1565b90508073ffffffffffffffffffffffffffffffffffffffff168473ffffffffffffffffffffffffffffffffffffffff161480610db95750610db88185610af1565b5b80610df757508373ffffffffffffffffffffffffffffffffffffffff16610ddf846104a4565b73ffffffffffffffffffffffffffffffffffffffff16145b91505092915050565b8273ffffffffffffffffffffffffffffffffffffffff16610e20826106c1565b73ffffffffffffffffffffffffffffffffffffffff1614610e76576040517f08c379a0000000000000000000000000000000000000000000000000000000008152600401610e6d9061214d565b60405180910390fd5b600073ffffffffffffffffffffffffffffffffffffffff168273ffffffffffffffffffffffffffffffffffffffff161415610ee6576040517f08c379a0000000000000000000000000000000000000000000000000000000008152600401610edd9061218d565b60405180910390fd5b610ef1838383611380565b610efc600082610c69565b6001600360008573ffffffffffffffffffffffffffffffffffffffff1673ffffffffffffffffffffffffffffffffffffffff1681526020019081526020016000206000828254610f4c9190612499565b925050819055506001600360008473ffffffffffffffffffffffffffffffffffffffff1673ffffffffffffffffffffffffffffffffffffffff1681526020019081526020016000206000828254610fa39190612412565b92505081905550816002600083815260200190815260200160002060006101000a81548173ffffffffffffffffffffffffffffffffffffffff021916908373ffffffffffffffffffffffffffffffffffffffff160217905550808273ffffffffffffffffffffffffffffffffffffffff168473ffffffffffffffffffffffffffffffffffffffff167fddf252ad1be2c89b69c2b068fc378daa952ba7f163c4a11628f55a4df523b3ef60405160405180910390a4611062838383611385565b505050565b8173ffffffffffffffffffffffffffffffffffffffff168373ffffffffffffffffffffffffffffffffffffffff1614156110d6576040517f08c379a00000000000000000000000000000000000000000000000000000000081526004016110cd906121ad565b60405180910390fd5b80600560008573ffffffffffffffffffffffffffffffffffffffff1673ffffffffffffffffffffffffffffffffffffffff16815260200190815260200160002060008473ffffffffffffffffffffffffffffffffffffffff1673ffffffffffffffffffffffffffffffffffffffff16815260200190815260200160002060006101000a81548160ff0219169083151502179055508173ffffffffffffffffffffffffffffffffffffffff168373ffffffffffffffffffffffffffffffffffffffff167f17307eab39ab6107e8899845ad3d59bd9653f200f220920489ca2b5937696c31836040516111c791906120f0565b60405180910390a3505050565b6111df848484610e00565b6111eb8484848461138a565b61122a576040517f08c379a00000000000000000000000000000000000000000000000000000000081526004016112219061212d565b60405180910390fd5b50505050565b606060405180602001604052806000815250905090565b606061125282610bf5565b611291576040517f08c379a0000000000000000000000000000000000000000000000000000000008152600401611288906122cd565b60405180910390fd5b600061129b611230565b905060008151116112bb57604051806020016040528060008152506112e6565b806112c584611521565b6040516020016112d6929190612065565b6040516020818303038152906040525b915050919050565b6113088282604051806020016040528060008152506116ce565b5050565b61131582610bf5565b611354576040517f08c379a000000000000000000000000000000000000000000000000000000000815260040161134b9061224d565b60405180910390fd5b8060066000848152602001908152602001600020908051906020019061137b929190611926565b505050565b505050565b505050565b60006113ab8473ffffffffffffffffffffffffffffffffffffffff16611729565b15611514578373ffffffffffffffffffffffffffffffffffffffff1663150b7a026113d4610c61565b8786866040518563ffffffff1660e01b81526004016113f694939291906120a4565b602060405180830381600087803b15801561141057600080fd5b505af192505050801561144157506040513d601f19601f8201168201806040525081019061143e9190611cd2565b60015b6114c4573d8060008114611471576040519150601f19603f3d011682016040523d82523d6000602084013e611476565b606091505b506000815114156114bc576040517f08c379a00000000000000000000000000000000000000000000000000000000081526004016114b39061212d565b60405180910390fd5b805181602001fd5b63150b7a0260e01b7bffffffffffffffffffffffffffffffffffffffffffffffffffffffff1916817bffffffffffffffffffffffffffffffffffffffffffffffffffffffff191614915050611519565b600190505b949350505050565b60606000821415611569576040518060400160405280600181526020017f300000000000000000000000000000000000000000000000000000000000000081525090506116c9565b600082905060005b6000821461159b578080611584906125e6565b915050600a826115949190612468565b9150611571565b60008167ffffffffffffffff8111156115dd577f4e487b7100000000000000000000000000000000000000000000000000000000600052604160045260246000fd5b6040519080825280601f01601f19166020018201604052801561160f5781602001600182028036833780820191505090505b5090505b600085146116c2576001826116289190612499565b9150600a85611637919061262f565b60306116439190612412565b60f81b81838151811061167f577f4e487b7100000000000000000000000000000000000000000000000000000000600052603260045260246000fd5b60200101907effffffffffffffffffffffffffffffffffffffffffffffffffffffffffffff1916908160001a905350600a856116bb9190612468565b9450611613565b8093505050505b919050565b6116d8838361174c565b6116e5600084848461138a565b611724576040517f08c379a000000000000000000000000000000000000000000000000000000000815260040161171b9061212d565b60405180910390fd5b505050565b6000808273ffffffffffffffffffffffffffffffffffffffff163b119050919050565b600073ffffffffffffffffffffffffffffffffffffffff168273ffffffffffffffffffffffffffffffffffffffff1614156117bc576040517f08c379a00000000000000000000000000000000000000000000000000000000081526004016117b39061226d565b60405180910390fd5b6117c581610bf5565b15611805576040517f08c379a00000000000000000000000000000000000000000000000000000000081526004016117fc9061216d565b60405180910390fd5b61181160008383611380565b6001600360008473ffffffffffffffffffffffffffffffffffffffff1673ffffffffffffffffffffffffffffffffffffffff16815260200190815260200160002060008282546118619190612412565b92505081905550816002600083815260200190815260200160002060006101000a81548173ffffffffffffffffffffffffffffffffffffffff021916908373ffffffffffffffffffffffffffffffffffffffff160217905550808273ffffffffffffffffffffffffffffffffffffffff16600073ffffffffffffffffffffffffffffffffffffffff167fddf252ad1be2c89b69c2b068fc378daa952ba7f163c4a11628f55a4df523b3ef60405160405180910390a461192260008383611385565b5050565b82805461193290612583565b90600052602060002090601f016020900481019282611954576000855561199b565b82601f1061196d57805160ff191683800117855561199b565b8280016001018555821561199b579182015b8281111561199a57825182559160200191906001019061197f565b5b5090506119a891906119ac565b5090565b5b808211156119c55760008160009055506001016119ad565b5090565b60006119dc6119d78461236d565b612348565b9050828152602081018484840111156119f457600080fd5b6119ff848285612541565b509392505050565b6000611a1a611a158461239e565b612348565b905082815260208101848484011115611a3257600080fd5b611a3d848285612541565b509392505050565b600081359050611a5481612bab565b92915050565b600081359050611a6981612bc2565b92915050565b600081359050611a7e81612bd9565b92915050565b600081519050611a9381612bd9565b92915050565b600082601f830112611aaa57600080fd5b8135611aba8482602086016119c9565b91505092915050565b600082601f830112611ad457600080fd5b8135611ae4848260208601611a07565b91505092915050565b600081359050611afc81612bf0565b92915050565b600060208284031215611b1457600080fd5b6000611b2284828501611a45565b91505092915050565b60008060408385031215611b3e57600080fd5b6000611b4c85828601611a45565b9250506020611b5d85828601611a45565b9150509250929050565b600080600060608486031215611b7c57600080fd5b6000611b8a86828701611a45565b9350506020611b9b86828701611a45565b9250506040611bac86828701611aed565b9150509250925092565b60008060008060808587031215611bcc57600080fd5b6000611bda87828801611a45565b9450506020611beb87828801611a45565b9350506040611bfc87828801611aed565b925050606085013567ffffffffffffffff811115611c1957600080fd5b611c2587828801611a99565b91505092959194509250565b60008060408385031215611c4457600080fd5b6000611c5285828601611a45565b9250506020611c6385828601611a5a565b9150509250929050565b60008060408385031215611c8057600080fd5b6000611c8e85828601611a45565b9250506020611c9f85828601611aed565b9150509250929050565b600060208284031215611cbb57600080fd5b6000611cc984828501611a6f565b91505092915050565b600060208284031215611ce457600080fd5b6000611cf284828501611a84565b91505092915050565b600060208284031215611d0d57600080fd5b600082013567ffffffffffffffff811115611d2757600080fd5b611d3384828501611ac3565b91505092915050565b600060208284031215611d4e57600080fd5b6000611d5c84828501611aed565b91505092915050565b611d6e816124cd565b82525050565b611d7d816124df565b82525050565b6000611d8e826123cf565b611d9881856123e5565b9350611da8818560208601612550565b611db18161271c565b840191505092915050565b6000611dc7826123da565b611dd181856123f6565b9350611de1818560208601612550565b611dea8161271c565b840191505092915050565b6000611e00826123da565b611e0a8185612407565b9350611e1a818560208601612550565b80840191505092915050565b6000611e336032836123f6565b9150611e3e8261272d565b604082019050919050565b6000611e566025836123f6565b9150611e618261277c565b604082019050919050565b6000611e79601c836123f6565b9150611e84826127cb565b602082019050919050565b6000611e9c6024836123f6565b9150611ea7826127f4565b604082019050919050565b6000611ebf6019836123f6565b9150611eca82612843565b602082019050919050565b6000611ee2602c836123f6565b9150611eed8261286c565b604082019050919050565b6000611f056038836123f6565b9150611f10826128bb565b604082019050919050565b6000611f28602a836123f6565b9150611f338261290a565b604082019050919050565b6000611f4b6029836123f6565b9150611f5682612959565b604082019050919050565b6000611f6e602e836123f6565b9150611f79826129a8565b604082019050919050565b6000611f916020836123f6565b9150611f9c826129f7565b602082019050919050565b6000611fb46031836123f6565b9150611fbf82612a20565b604082019050919050565b6000611fd7602c836123f6565b9150611fe282612a6f565b604082019050919050565b6000611ffa602f836123f6565b915061200582612abe565b604082019050919050565b600061201d6021836123f6565b915061202882612b0d565b604082019050919050565b60006120406031836123f6565b915061204b82612b5c565b604082019050919050565b61205f81612537565b82525050565b60006120718285611df5565b915061207d8284611df5565b91508190509392505050565b600060208201905061209e6000830184611d65565b92915050565b60006080820190506120b96000830187611d65565b6120c66020830186611d65565b6120d36040830185612056565b81810360608301526120e58184611d83565b905095945050505050565b60006020820190506121056000830184611d74565b92915050565b600060208201905081810360008301526121258184611dbc565b905092915050565b6000602082019050818103600083015261214681611e26565b9050919050565b6000602082019050818103600083015261216681611e49565b9050919050565b6000602082019050818103600083015261218681611e6c565b9050919050565b600060208201905081810360008301526121a681611e8f565b9050919050565b600060208201905081810360008301526121c681611eb2565b9050919050565b600060208201905081810360008301526121e681611ed5565b9050919050565b6000602082019050818103600083015261220681611ef8565b9050919050565b6000602082019050818103600083015261222681611f1b565b9050919050565b6000602082019050818103600083015261224681611f3e565b9050919050565b6000602082019050818103600083015261226681611f61565b9050919050565b6000602082019050818103600083015261228681611f84565b9050919050565b600060208201905081810360008301526122a681611fa7565b9050919050565b600060208201905081810360008301526122c681611fca565b9050919050565b600060208201905081810360008301526122e681611fed565b9050919050565b6000602082019050818103600083015261230681612010565b9050919050565b6000602082019050818103600083015261232681612033565b9050919050565b60006020820190506123426000830184612056565b92915050565b6000612352612363565b905061235e82826125b5565b919050565b6000604051905090565b600067ffffffffffffffff821115612388576123876126ed565b5b6123918261271c565b9050602081019050919050565b600067ffffffffffffffff8211156123b9576123b86126ed565b5b6123c28261271c565b9050602081019050919050565b600081519050919050565b600081519050919050565b600082825260208201905092915050565b600082825260208201905092915050565b600081905092915050565b600061241d82612537565b915061242883612537565b9250827fffffffffffffffffffffffffffffffffffffffffffffffffffffffffffffffff0382111561245d5761245c612660565b5b828201905092915050565b600061247382612537565b915061247e83612537565b92508261248e5761248d61268f565b5b828204905092915050565b60006124a482612537565b91506124af83612537565b9250828210156124c2576124c1612660565b5b828203905092915050565b60006124d882612517565b9050919050565b60008115159050919050565b60007fffffffff0000000000000000000000000000000000000000000000000000000082169050919050565b600073ffffffffffffffffffffffffffffffffffffffff82169050919050565b6000819050919050565b82818337600083830152505050565b60005b8381101561256e578082015181840152602081019050612553565b8381111561257d576000848401525b50505050565b6000600282049050600182168061259b57607f821691505b602082108114156125af576125ae6126be565b5b50919050565b6125be8261271c565b810181811067ffffffffffffffff821117156125dd576125dc6126ed565b5b80604052505050565b60006125f182612537565b91507fffffffffffffffffffffffffffffffffffffffffffffffffffffffffffffffff82141561262457612623612660565b5b600182019050919050565b600061263a82612537565b915061264583612537565b9250826126555761265461268f565b5b828206905092915050565b7f4e487b7100000000000000000000000000000000000000000000000000000000600052601160045260246000fd5b7f4e487b7100000000000000000000000000000000000000000000000000000000600052601260045260246000fd5b7f4e487b7100000000000000000000000000000000000000000000000000000000600052602260045260246000fd5b7f4e487b7100000000000000000000000000000000000000000000000000000000600052604160045260246000fd5b6000601f19601f8301169050919050565b7f4552433732313a207472616e7366657220746f206e6f6e20455243373231526560008201527f63656976657220696d706c656d656e7465720000000000000000000000000000602082015250565b7f4552433732313a207472616e736665722066726f6d20696e636f72726563742060008201527f6f776e6572000000000000000000000000000000000000000000000000000000602082015250565b7f4552433732313a20746f6b656e20616c7265616479206d696e74656400000000600082015250565b7f4552433732313a207472616e7366657220746f20746865207a65726f2061646460008201527f7265737300000000000000000000000000000000000000000000000000000000602082015250565b7f4552433732313a20617070726f766520746f2063616c6c657200000000000000600082015250565b7f4552433732313a206f70657261746f7220717565727920666f72206e6f6e657860008201527f697374656e7420746f6b656e0000000000000000000000000000000000000000602082015250565b7f4552433732313a20617070726f76652063616c6c6572206973206e6f74206f7760008201527f6e6572206e6f7220617070726f76656420666f7220616c6c0000000000000000602082015250565b7f4552433732313a2062616c616e636520717565727920666f7220746865207a6560008201527f726f206164647265737300000000000000000000000000000000000000000000602082015250565b7f4552433732313a206f776e657220717565727920666f72206e6f6e657869737460008201527f656e7420746f6b656e0000000000000000000000000000000000000000000000602082015250565b7f45524337323155524953746f726167653a2055524920736574206f66206e6f6e60008201527f6578697374656e7420746f6b656e000000000000000000000000000000000000602082015250565b7f4552433732313a206d696e7420746f20746865207a65726f2061646472657373600082015250565b7f45524337323155524953746f726167653a2055524920717565727920666f722060008201527f6e6f6e6578697374656e7420746f6b656e000000000000000000000000000000602082015250565b7f4552433732313a20617070726f76656420717565727920666f72206e6f6e657860008201527f697374656e7420746f6b656e0000000000000000000000000000000000000000602082015250565b7f4552433732314d657461646174613a2055524920717565727920666f72206e6f60008201527f6e6578697374656e7420746f6b656e0000000000000000000000000000000000602082015250565b7f4552433732313a20617070726f76616c20746f2063757272656e74206f776e6560008201527f7200000000000000000000000000000000000000000000000000000000000000602082015250565b7f4552433732313a207472616e736665722063616c6c6572206973206e6f74206f60008201527f776e6572206e6f7220617070726f766564000000000000000000000000000000602082015250565b612bb4816124cd565b8114612bbf57600080fd5b50565b612bcb816124df565b8114612bd657600080fd5b50565b612be2816124eb565b8114612bed57600080fd5b50565b612bf981612537565b8114612c0457600080fd5b5056fea2646970667358221220e1bcd6c0248c091c70eaaee10a95476f51116f0378ff23a01df9a69e2ceb386a64736f6c63430008010033",
  "linkReferences": {},
  "deployedLinkReferences": {}
}